:020000040800F2
:1000000000000220A1560008F1520008F352000837
:10001000F5520008F7520008F952000800000000ED
:10002000000000000000000000000000FB5200087B
:10003000FD52000800000000FF52000801530008B4
:10004000F1560008F1560008F1560008F156000874
:10005000F1560008F1560008F1560008F156000864
:10006000F1560008F1560008F1560008F156000854
:10007000F1560008F1560008F1560008F156000844
:10008000F1560008F1560008F15600080000000083
:10009000000000000000000000000000F156000811
:1000A000F1560008F1560008F1560008F156000814
:1000B0000553000811530008F1560008F1560008D6
:1000C000F1560008F1560008F1560008F1560008F4
:1000D000F1560008F1560008F15600080000000033
:1000E000F1560008F1560008F15600080000000023
:1000F000000000000000000000000000F1560008B1
:1001000000000000F1560008F1560008F156000802
:1001100000000000000000000000000000000000DF
:10012000F15600081D530008F1560008F15600086A
:10013000F156000800000000000000000000000070
:100140000000000000000000000000003153000823
:10015000F1560008F1560008F1560008F156000863
:10016000F1560008F15600080000000000000000F1
:10017000000000000000000000000000000000007F
:1001800000000000F1560008000000000000000020
:080190003D530008F156000880
:1001A00010B5054C237833B9044B13B10448AFF3B1
:1001B00000800123237010BDA40000200000000077
:1001C000D05F000808B5034B1BB103490348AFF3E8
:1001D000008008BD00000000A8000020D05F0008DB
:1001E00001F0FF01102A2BDB10F0070F08D010F8E8
:1001F000013B013A8B422DD010F0070F42B3F6D1EC
:10020000F0B441EA012141EA014122F007047FF004
:1002100000070023F0E80256083C85EA010586EA5B
:10022000010685FA47F5A3FA87F586FA47F6A5FA97
:1002300087F68EB9EED1F0BC01F0FF0102F00702A3
:1002400032B110F8013B013A83EA010313B1F8D14E
:100250000020704701387047002D06BF354603382F
:10026000073815F0010F07D1013015F4807F02BF68
:10027000013015F4C03F0130F0BC0138704700BFB9
:1002800053B94AB9002908BF00281CBF4FF0FF31FD
:100290004FF0FF3000F07AB9ADF1080C6DE904CEF3
:1002A00000F006F8DDF804E0DDE9022304B0704751
:1002B0002DE9F0478C460D460446089E002B51D18F
:1002C0008A4217466DD9B2FA82FEBEF1000F0BD0FA
:1002D000CEF1200C01FA0EF520FA0CFC02FA0EF712
:1002E0004CEA050C00FA0EF44FEA174A250CBCFB49
:1002F000FAF81FFA87F90AFB18CC45EA0C4508FB07
:1003000009F3AB420AD9ED1908F1FF3280F02381DD
:10031000AB4240F22081A8F102083D44ED1AA4B29C
:10032000B5FBFAF00AFB105544EA054400FB09F955
:10033000A14509D9E41900F1FF3380F00A81A145F4
:1003400040F2078102383C44A4EB090440EA08402B
:100350000021002E61D024FA0EF400233460736073
:10036000BDE8F0878B4207D9002E54D0002186E8E3
:1003700021000846BDE8F087B3FA83F1002940F078
:100380008E80AB4202D3824200F2FA80841A65EB7F
:1003900003050120AC46002E3FD086E81010BDE8D2
:1003A000F08712B90127B7FBF2F7B7FA87FEBEF163
:1003B000000F34D1EB1B3A0C1FFA87FC0121B3FB71
:1003C000F2F8250C02FB183345EA03450CFB08F351
:1003D000AB4207D9ED1908F1FF3002D2AB4200F26F
:1003E000D1808046ED1AA3B2B5FBF2F002FB1055A6
:1003F00043EA05440CFB00FCA44507D9E41900F1CD
:10040000FF3302D2A44500F2B8801846A4EB0C04D6
:1004100040EA08409DE731463046BDE8F087CEF11E
:10042000200405FA0EF307FA0EF720FA04F83A0C46
:1004300025FA04F448EA0308B4FBF2F14FEA184540
:1004400002FB11441FFA87FC45EA044501FB0CF34B
:10045000AB4200FA0EF409D9ED1901F1FF3080F03A
:100460008A80AB4240F2878002393D44EB1A1FFA82
:1004700088F5B3FBF2F002FB103345EA034500FBBD
:100480000CF3AB4207D9ED1900F1FF386FD2AB4244
:100490006DD902383D44EB1A40EA01418FE7C1F1C2
:1004A000200722FA07F88B4005FA01F448EA030313
:1004B00020FA07FE4FEA134CFD404EEA040EB5FB4E
:1004C000FCF94FEA1E440CFB19551FFA83F844EA65
:1004D000054509FB08F4AC4202FA01F200FA01FA00
:1004E00008D9ED1809F1FF3043D2AC4241D9A9F146
:1004F00002091D442D1B1FFA8EFEB5FBFCF00CFB00
:1005000010554EEA054400FB08F8A04507D9E41849
:1005100000F1FF3529D2A04527D902381C4440EA12
:100520000940A4EB0804A0FB02894C45C6464D4691
:1005300015D312D056B1BAEB0E0364EB050404FADE
:1005400007F7CB401F43CC40376074600021BDE803
:10055000F0871846F8E69046E0E6C245EAD2B8EBE6
:10056000020E69EB03050138E4E72846D7E7404669
:1005700091E78146BEE7014678E702383C4445E70B
:10058000084608E7A8F102083D442BE7704700BF82
:1005900038B50E4A0E4B054618784FF47A73B3FB04
:1005A000F0F31068B0FBF3F000F0AAF8044658B975
:1005B0000F2D09D8024629464FF0FF3000F05EF8B3
:1005C000044B20461D6038BD012038BD3C00002092
:1005D000000000200400002008B50B4B1A6842F40C
:1005E00000721A601A6842F480621A601A6842F453
:1005F00080721A60032000F02FF80020FFF7C8FF78
:1006000004F0ACFC002008BD003C0240034A044B4F
:1006100011681B780B441360704700BFDC0000209A
:1006200000000020014B1868704700BFDC0000206C
:1006300038B50446FFF7F6FF631C1CBF054B1B785B
:10064000054618BFE418FFF7EDFF401B8442FAD8B7
:1006500038BD00BF00000020074AD36823F4E063E0
:100660001B041B0C43F0BF63000243F4003300F48F
:10067000E0600343D360704700ED00E0174B30B5F6
:10068000DC68C4F30224C4F10703251D042B28BF32
:100690000423062D4FF0010505FA03F303F1FF33A0
:1006A0008CBF033C00241940A14005FA04F4013C2E
:1006B0002240002842EA01024FEA0212ADBF00F1D7
:1006C000604000F00F00064B00F56140B5BFD2B2AC
:1006D000D2B21A5480F8002330BD00BF00ED00E014
:1006E00014ED00E0002808DB4209012300F01F00A0
:1006F00003FA00F0014B43F82200704700E100E0EC
:100700000138B0F1807F0AD2064B074A5860F021C9
:1007100082F823100020072298601A607047012099
:10072000704700BF10E000E000ED00E00368DAB2BF
:1007300023F47F7323F003031821103AB2FBF1F284
:100740000449032A88BF0433895C8365C165806DD1
:10075000704700BF1A60000870B50446FFF762FFDB
:100760000546002C71D0002384F83430226802231F
:1007700084F83530136823F00103136021680B6897
:10078000D8073CD40B68324D6268A0691D40A3684D
:100790001343E26813432269134362691343E26916
:1007A00003431343226A1343626A042A43EA05039C
:1007B00001BF266BE56A35432B430B604B69042A66
:1007C00023F0070343EA02030BD1A26AE56A13434D
:1007D0003DB1F8B9012A2DD001D3022A01D1EA0195
:1007E0002BD44B612046FFF7A1FFE26D3F239340DE
:1007F000836000200123606584F8353070BDFFF709
:1008000011FF401B0528B9D920236365032084F814
:10081000350070BDB0F5005F13D1032AE1D801A007
:1008200050F822F03B080008DF0700083B080008EA
:1008300035080008B5F1C07FD3D14023636501209E
:10084000E5E7022AF9D9032AC8E7012070BD00BFF5
:100850003F8010F070B590F83440012C36D0012460
:1008600080F8344090F83540866D012C4FF000053B
:100870004FF0020428D180F83540046845652568AA
:1008800025F48025256063608368402B0EBFA2603D
:10089000A160E260C26D08BFE1603F239340B36096
:1008A000236843F016032360636943F080036361A8
:1008B000036C1BB1236843F008032360236843F0F3
:1008C00001032360002070BD80F83450022070BD09
:1008D00090F83530022B03D0802343650120704708
:1008E0000268052380F83530136823F00103136094
:1008F00000207047F7B5002301935A4B856D1F68A0
:10090000C36D2E6808229A40164204460CD0016836
:100910000868400708D5086820F004000860AA604D
:10092000626D42F00102626501229A40164208D0CF
:1009300021684969090641BFAA60626D42F002025E
:10094000626504229A40164208D021680968880727
:1009500041BFAA60626D42F00402626510229A40B3
:10096000164210D02368196809070CD5AA601A68C6
:10097000500335D51B68190301D4236C00E0A36C28
:100980000BB120469847E16D20228A40164238D0AC
:1009900023681868C60634D5AA6094F83520052A5D
:1009A0001A6825D122F016021A605A6922F08002D4
:1009B0005A61226C0AB9A26C1AB11A6822F00802B4
:1009C0001A603F238B40AB60002384F8343001234E
:1009D00084F83530236D0BB12046984703B0F0BD45
:1009E0001A68D2055EBF1A6822F008021A60C4E7CE
:1009F000500328D51B68190332D4636C0BB1204611
:100A00009847636D002BE9D0636DDA0719D505238C
:100A1000226884F83530136823F0010313604FF423
:100A20001653B7FBF3F7019B01339F42019302D3A7
:100A30001368DB07F7D4002384F83430012384F8EB
:100A40003530E36CC7E71A6812F4807208D1196870
:100A500021F010011960012384F8342084F8353026
:100A6000E36BCBE73C0000202DE9F04F85B00B682D
:100A7000DFF89C81644A01934FF001090023019C37
:100A800009FA03F707EA0406B74240F0AD804C6864
:100A900024F0100ABAF1020F16D14FEAD30C00EB82
:100AA0008C0C03F0070BDCF820504FEA8B0B4FF057
:100AB0000F0E0EFA0BFE25EA0E0E0D6905FA0BF568
:100AC00045EA0E05CCF820504FEA430C0325D0F838
:100AD00000B005FA0CF5ED4304F0030E0BEA050B2C
:100AE0000EFA0CFE0AF1FF3A4EEA0B0EBAF1010FB4
:100AF0000095C0F800E015D8D0F808E005EA0E0E21
:100B0000CD6805FA0CFA4AEA0E0EC0F808E0D0F8F3
:100B100004E02EEA0707C4F3001E0EFA03FE4EEAB5
:100B200007074760C768009D3D408F6807FA0CF7CC
:100B30003D43C560E50057D54FF0000BCDF80CB034
:100B4000D8F84470314D47F48047C8F84470D8F85D
:100B5000447007F480470397039F23F0030707F1CE
:100B6000804707F59C3703F0030CD7F808A04FEA3D
:100B70008C0C4FF00F0E0EFA0CFEA8422AEA0E0E55
:100B800039D005F58065A84237D005F58065A842C3
:100B900035D005F58065A84233D005F58065A842BB
:100BA00014BF0725042505FA0CF545EA0E05BD60BE
:100BB0001568F74314F4803F0CBF3D403543156082
:100BC000556814F4003F0CBF3D40354355609568AF
:100BD00014F4801F0CBF3D4035439560D568A402D6
:100BE00054BF3D403543D5600133102B7FF447AFF0
:100BF00005B0BDE8F08F5D46D5E70125D3E70225B6
:100C0000D1E70325CFE700BF003C014000000240D0
:100C1000003802400369194214BF012000207047C8
:100C20000AB1816170470904FBE7436931EA0303B4
:100C300008BF0904816170472DE9FF47044690F819
:100C4000B8029DF830709DF834E0BDF838C0012836
:100C500028D0282000FB01400125002612F0800F3B
:100C600084F8B85202F07F0908BF354680F83D602D
:100C700080F8383080F8391080F83FE080F83A90FA
:100C800080F83B5080F83C70A0F840C0CDF808C018
:100C90008DE88040206802F06DF884F8B86204B0F6
:100CA000BDE8F0870220FAE790F8B832012B10B5C2
:100CB000044609D0012380F8B832006802F0E4F855
:100CC000002084F8B80210BD022010BD2DE9F041CB
:100CD00007468AB0002841D090F8B932046803F082
:100CE000FF021BB980F8B82204F0ACFB032387F89D
:100CF000B932E36B3C4613F4807354F8100B08BF11
:100D00003B6101F0F3FE0FCC6D460FC50FCC0FC554
:100D100094E8030085E8030007F104083E4698E8DC
:100D20000E00386801F09CFE56F8100B012101F00E
:100D3000E3FE0FCE6D460FC50FCE0FC594E803003E
:100D400085E8030098E80E00386801F093FF01235E
:100D500087F8B93200200AB0BDE8F0810120FAE737
:100D6000F0B5282404FB01049DF81470069EBDF81C
:100D70001C5084F83B2084F83F306FB90327022BC6
:100D800084F842702BD0BB4229D0012B31D12823CB
:100D900003FB010300222AE04FF0020E84F842E038
:100DA000032B26D801A454F823F000BFBD0D000882
:100DB0008F0D0008DF0D0008DF0D0008012F18D18E
:100DC000BAB925B9282303FB010383F851702823FE
:100DD00003FB010393F851204AB1022207E02823C4
:100DE00003FB0103D2B993F85140002CF5D183F8ED
:100DF0004220282404FB0103002283F839101946FD
:100E00005E649D6483F85C20DA6483F85D20383189
:100E1000027C0068BDE8F04002F09AB893F85020D8
:100E2000DAE700BF2DE9F04F066887B00446304688
:100E300001F0C2FE012840F0B480206801F0B8FE45
:100E4000002800F0AE80206801F0B2FE870248BFA3
:100E50002368206844BF4FF400125A6101F0A8FED5
:100E6000C50248BF2368206844BF4FF480125A610E
:100E700001F09EFE400148BF2368206844BF4FF048
:100E800080625A6101F094FE810748BF23682068A0
:100E900044BF02225A6101F08BFE820010D5D6F8C1
:100EA000403423F02E03C6F84034204604F01CFBE7
:100EB0000121206801F084FE23684FF000525A613E
:100EC000206801F075FEC30142D52568D5F840348D
:100ED0000493D5F840340593059B23F02E03059326
:100EE000049B9F070DD5049BD80706D5AB6923F05B
:100EF0000053AB61204604F0F3FA059B43F0020374
:100F00000593049B190719D5059B43F00803059326
:100F1000049B5A0750D5A169022945D1049B20683A
:100F200003F4C023B3F5802F18BF012101F048FE60
:100F3000204604F0DEFA204604F0D2FA049B9B0619
:100F400042BF059B43F020030593059BC5F8403441
:100F5000206801F02DFE070705D5204604F0BCFAF5
:100F6000236808225A61206801F022FE850112D50B
:100F7000206801F084FF4FF0000A019006F5A06898
:100F800028274FF00209D346A3689A4523D3236844
:100F90004FF000725A61206801F00AFEC30600F1AA
:100FA000208207B0BDE8F08FE368012B04BF4EF646
:100FB0006022C5F80424BBE7204604F09EFAD5F869
:100FC0004034226823F02E03C5F84034936943F07F
:100FD00000539361B2E7019A0AF00F0322FA03F378
:100FE000D80740F18A80D8F80030206813F4004F09
:100FF0005FFA8AF500F004816A0100F5A063D61853
:10100000B168490713D50421B160F16841F00201CC
:10101000F160B168890542D5F368206843F00203A6
:10102000F360294601F030FF4FF40073C7E0B16868
:10103000890602D52021B160EBE7B168090715D513
:10104000F168039341F00201F16007FB05414FF0A5
:10105000050E81F85DE01021B1600821B1602946DC
:10106000029201F011FF029A039BD2E7B168490591
:10107000CFD5F168039341F00201F1602946029255
:1010800001F002FF1021B16007FB0541082081F843
:101090005D004FF48061B160039B029AB9E7B168CB
:1010A000C8073DD5216949B107FB054E3069DEF817
:1010B0004810C0F31200091ACEF84C1007FB054E79
:1010C00001208EF85D00CEF858B0B0609EF83F1059
:1010D00011F0FD0F16D1F368206843F00203F360AE
:1010E000294601F0D1FE1023B36007FB054595F8B2
:1010F000503083F0010385F850300AF1010A08F1FD
:10110000200841E70329F0D1D15841F00051D150D6
:101110008EF85C0002462946204604F0E9F9E4E72F
:10112000B168890736D5F16807FB054021F0020157
:10113000F16090F85D1001290CD180F85C1007FB7C
:101140000543C6F8089093F85C202946204604F031
:10115000CFF9D2E70529F0D0062901D0082914D10A
:1011600007FB0541886D01300328886583BF042093
:10117000C1F858B081F85C0081F85C90D15821F03A
:10118000804141F00041D150D9E70329D7D180F8FF
:101190005C90F3E7B16811F0800112D0F368206829
:1011A00043F00203F36007FB054329469A6D0132C1
:1011B0009A65062283F85D2001F066FE8023B36005
:1011C0009BE7B368DA0698D507FB054292F83F30F3
:1011D000032B0AD19165F368206843F00203F360A2
:1011E000294601F051FE1023E9E713F0FD03FAD17F
:1011F00093652369002BF6D1032382F85D30EAE77B
:10120000690100F5A0628E18B36813F0040E06D0D1
:101210000423B360F36843F00203F3606DE7B3683F
:1012200013F0200314D02023B36007FB054393F889
:101230003D20012A7FF461AF83F83DE083F85C90A4
:10124000F36843F00203F360294601F01DFE54E702
:10125000D6F808E01EF0400F11D007FB054204212C
:1012600082F85D10012182F83D109365F36843F028
:101270000203F360294601F007FE40239FE7B368AD
:1012800013F4007E05D0F36843F00203F3602946AF
:10129000C8E6B368DB0711D5F26807FB054342F0E7
:1012A0000202C3F858E02946F260029301F0ECFD17
:1012B000029B0122B26083F85D201EE7B3681B0722
:1012C0000ED50823B360F36843F00203F3602946A8
:1012D00001F0DAFD07FB0545052385F85D300CE7D5
:1012E000B368DB0615D507FB0543032283F85D20B1
:1012F00093F83D20C3F858B02AB993F83C2012B9AE
:10130000012283F83D20F36843F00203F36029468D
:1013100067E7B3681B060CD5F36843F00203F3607C
:10132000294607FB054501F0AFFD062385F85D3032
:1013300044E7B3685B050FD5F36843F00203F3603D
:10134000294601F0A1FD1023B3604FF48063B36020
:1013500007FB05450823C0E7B36898077FF5CDAEC6
:10136000F36807FB054023F00203F36090F85D305B
:10137000012B0ED180F85C3090F83F30023B012BFE
:101380003FF6DDAE90F8513083F0010380F8513024
:10139000D5E6032B02D180F85C90D0E6042BFAD07E
:1013A000052B02D180F85C30C9E6062B02D0082B51
:1013B0007FF4C5AE07FB0540836D0133032B8365C6
:1013C00084BF042380F85C308B5888BFC0F858B0C5
:1013D00023F0804343F0004398BF80F85C908B502B
:1013E000ADE62668B36923F01003B361356AC5F32F
:1013F0004342022A29D1C5F30A18B8F1000F24D0BC
:1014000005F00F05282707FB0547796CE9B142462F
:10141000304601F0BFFB7B6C43447B64FB6C434470
:10142000FB6406F5A0666B019A1911690A4A0A4025
:101430005AB19A5922F0804242F000429A5197F8EC
:10144000503083F0010387F850302268936943F0ED
:1014500010039361A5E500BF0000F81F38B590F8B0
:10146000B832012B04460DD0012580F8B85200682F
:1014700001F036FB2946206801F0DCFB002084F8EF
:10148000B80238BD022038BD90F8B832012B10B533
:10149000044609D0012380F8B832006801F00AFE42
:1014A000002084F8B80210BD022010BD006801F0D1
:1014B000A3BB282303FB010191F85C00704728239C
:1014C00003FB0101C86C7047006801F04EBC006866
:1014D00001F040BC70B5044608B9012070BD90F819
:1014E0003D3003F0FF021BB980F83C2003F056FDAD
:1014F0002268242384F83D30136823F0010313602D
:1015000000F00EFD6568414B9D424DD8404B98421E
:10151000E3D922683F495368B0FBF1F123F03F0360
:101520000B435360136A23F03F03013119431162E7
:10153000D169364B21F44F419D4221F0FF0100F16A
:10154000FF3048D86D00B0FBF5F00130C0F30B035D
:10155000042B38BF04230B43D3611168206AE3696D
:1015600021F0C00103430B4313609168E0682369D5
:1015700021F40341034321F0FF010B439360D16841
:10158000A069636921F0FF0103430B43D360136833
:1015900043F00103136000202023206484F83D30D1
:1015A000206384F83E0070BD1B4B984295D9226899
:1015B000184E5368B0FBF6F623F03F0333435360F5
:1015C000136A4FF49671714323F03F034FF47A7618
:1015D000B1FBF6F1A9E7A36853B905EB4503B0FBEE
:1015E000F3F0431CC3F30B036BB143F40043B2E7C6
:1015F00019236B43B0FBF3F0431CC3F30B0313B18C
:1016000043F44043A7E70123A5E700BFA0860100FC
:101610007F841E0040420F00FF083D00F8B50446DD
:10162000002841D090F8413003F0FF022BB9424B23
:1016300080F84020436303F0E9FC0221226884F82B
:101640004110D36923F47B6323F00F03D3616369F3
:1016500011628B4231D0E368002BA3680CBF1025C8
:1016600020250120202B98BF6D0000F009FD236983
:101670006169B3F5007F1BD1E3680A22B3B1AB0007
:10168000B0FBF3F353430A22B3FBF1F30533B3FB8F
:10169000F2F303F0010212025B08991EFD290ED934
:1016A000636C43F0100363640120F8BDEB00E7E7CF
:1016B0000A23B0FBF5F04343E5E70022EDE71343CF
:1016C000226921686668E568A069DFF87CE0134359
:1016D0000B62A368CF6946EA030242F400622A4320
:1016E000024307EA0E073A43CA61226A012A1DD162
:1016F000124A6263124F134AB94218BF4FF0402298
:101700002B43D16901EA0E01D16102211162D7692F
:1017100043F40063034336F4007143EA07030CBF4C
:101720004FF4807100219BB20B43D3610020012351
:10173000606484F84130F8BD531700085118000860
:10174000003800400034004040F0FFFF7047704711
:1017500070471FB503689A68019290F84120042AE7
:10176000044636D1019AD10717D55A68520614D5C6
:10177000C26AD96822F8021BC262428E013A92B252
:101780004286428E92B242B95A6822F060025A6092
:10179000012380F84130FFF7DAFF019B590618D585
:1017A00023685A68920614D55A6822F060025A607B
:1017B00000220292DA6802929B680293029B012344
:1017C00084F84130636C43F0020363642046FFF702
:1017D000BFFF94F84130032B36D1019B9B0719D5ED
:1017E00022685368180615D5636A33F8021BD16066
:1017F0006362638D013B9BB26385638D9BB24BB982
:10180000536823F0A0035360012384F8413020463D
:10181000FFF79CFF019B190716D523685A689206AB
:1018200012D55A6822F0A0025A60002203929B68E7
:101830000393039B012384F84130636C43F004035A
:1018400063642046FFF784FF04B010BD70470000BA
:1018500010B502688B49936886B0044600938A4BA2
:101860008A4218BF4FF04023996801915168029154
:1018700059680391416831F4007140F09080009BF9
:1018800099071AD5029B1B0617D5436A991C1B881A
:101890004162D360438D013B9BB24385438D9BB234
:1018A0005BB9536823F0A0035360438E9BB223B906
:1018B000012380F84130FFF7C9FF019BD80722D5EB
:1018C000039B59061FD5E26A20686E49931CE362A8
:1018D0006D4B884218BF4FF04023D9681180628E4B
:1018E000013A92B26286628E92B262B95A6822F06E
:1018F00060025A60638D9BB22BB9012384F841309A
:101900002046FFF7A3FF019B5A0622D5039B9B06A7
:101910001FD523685B495C4A8B4218BF4FF04022B9
:101920002046516821F0600151605A6822F0A002FF
:101930005A6000220492DA6804929B680493049B24
:10194000012384F84130636C43F002036364FFF7C2
:10195000FFFE009B180720D5029B99061DD5236822
:1019600048495A6822F0A0025A60474A8B4218BF81
:101970004FF04022516821F0600151600022059231
:101980009B680593059B012384F84130636C43F009
:10199000040363642046FFF7DBFE06B010BD019A26
:1019A00092071AD5039A110617D5426A911C12881C
:1019B0004162DA60428D013A92B24285428D92B222
:1019C0005AB95A6822F0A0025A60438E9BB223B9DA
:1019D000012380F84130FFF739FF009BDA071CD55F
:1019E000029B5B0619D5E36A9A1CE2622268D16801
:1019F0001980638E013B9BB26386638E9BB263B991
:101A0000536823F060035360638D9BB22BB90123AD
:101A100084F841302046FFF719FF009B58061BD57C
:101A2000029B990618D522681649536823F0600373
:101A30005360154B8A4218BF4FF0402320465A6826
:101A400022F0A0025A60012384F84130636C43F015
:101A500002036364FFF77CFE019B1A079DD5039B7D
:101A60009B069AD522680749074B8A4218BF4FF058
:101A70004023596821F0A0015960536823F06003A6
:101A8000536080E700380040003400402DE9F34106
:101A9000044618B9012002B0BDE8F0810368DD07F3
:101AA00010D42368980758D423681A0700F19A8045
:101AB00023685B0700F1B880A269002A40F0198111
:101AC0000020E8E7A64B9A6802F00C02042A07D02F
:101AD0009A6802F00C02082A0AD15B68590207D5FD
:101AE0009F4B1B689A03DCD56368002BD9D1D1E7E3
:101AF00063689B4DB3F5803F11D12B6843F480336D
:101B00002B60FEF78FFD964D06462B689B03C8D4CD
:101B1000FEF788FD801B6428F7D90320BBE7B3F5E7
:101B2000A02F04D12B6843F480232B60E5E72A68BB
:101B300022F480322A602A6822F480222A60002B54
:101B4000DFD1FEF76FFD06462B689F03A9D5FEF790
:101B500069FD801B6428F7D9DFE7814B9A6812F092
:101B60000C0F07D09A6802F00C02082A11D15B68AA
:101B70005E020ED47A4B1A68950702D5E268012AF4
:101B800088D11A68216922F0F80242EAC1021A607B
:101B90008AE7E268734BB2B101221A60FEF742FD98
:101BA0006F4D06462B68980707D52B68226923F0EE
:101BB000F80343EAC2032B6076E7FEF733FD801B90
:101BC0000228EFD9A9E71A60FEF72CFD644D0646FE
:101BD0002B6899077FF568AFFEF724FD801B02286C
:101BE000F6D99AE76269604B7AB101221A60FEF772
:101BF00019FD5B4D06466B6F9F073FF559AFFEF72A
:101C000011FD801B0228F6D987E71A60FEF70AFD4E
:101C1000534D06466B6F98077FF54AAFFEF702FDFE
:101C2000801B0228F6D978E74D4B1A6C12F08052CF
:101C300028D101921A6C42F080521A641B6C03F096
:101C400080530193019B0126484D2B68D9051BD574
:101C5000A368434D012B27D12B6F43F001032B6762
:101C6000FEF7E0FC3E4D074641F288382B6F9B079C
:101C700039D5002E3FF420AF394A136C23F080533E
:101C8000136419E70026DFE72B6843F480732B60A9
:101C9000FEF7C8FC07462B68DA05D9D4FEF7C2FC6C
:101CA000C01B0228F7D938E7052B04D12B6F43F06E
:101CB00004032B67D0E72A6F22F001022A672A6FFC
:101CC00022F004022A67002BCAD1FEF7ABFC41F2D6
:101CD000883807462B6F9807CBD5FEF7A3FCC01BAF
:101CE0004045F7D919E7FEF79DFCC01B4045BDD91B
:101CF00013E71B4DAB6803F00C03082B3FF4CAAE8F
:101D00001B4E0023022A336034D1FEF78BFC0746BA
:101D10002B6899011ED4226AE3691343626A43EA7D
:101D20008213E26A43EA0263A26A0D4C5208013A46
:101D300043EA02436B6001233360FEF773FC054600
:101D400023689A013FF5BCAEFEF76CFC401B0228ED
:101D5000F6D9E2E6FEF766FCC01B0228D8D9DCE61D
:101D60000038024000004742800E474200700040A9
:101D700060004742FEF756FC04462B689B017FF546
:101D80009FAEFEF74FFC001B0228F6D9C5E600BF48
:101D9000134908B58B6803F00C03042B03D0082B00
:101DA00003D0104808BD104808BD4A684B68496810
:101DB00013F4800314BF0C480A48C1F3881118BFFC
:101DC000002302F03F02A1FB0001FEF759FA044B89
:101DD0005B68C3F3014301335B00B0FBF3F008BD64
:101DE000003802400024F40000127A002DE9F0418E
:101DF0000D46044610B90120BDE8F081444B1A6835
:101E000002F00F028A4228D321688F072DD4C80719
:101E100040D43F4B1A6802F00F02954266D3226805
:101E200051076CD4130707D53A4A2169936823F404
:101E3000604343EAC1039360FFF7AAFF354B364A7C
:101E40009B68C3F30313D35CD840344B1860002065
:101E5000FEF79EFB0020BDE8F081CAB21A701B6835
:101E600003F00F039942C6D1CEE72A4B11F0040FBD
:101E70001EBF9A6842F4E0529A600E0742BF9A6809
:101E800042F460429A609A68A06822F0F00202432D
:101E90009A60BCE762681F4B012A1DD11B6813F4CE
:101EA000003FA8D01B4EB36823F003031343B36075
:101EB000FEF7B8FB41F288380746B368626803F062
:101EC0000C03B3EB820FA4D0FEF7ACFBC01B404564
:101ED000F3D90320BDE8F081911E01291B6802D8C7
:101EE00013F0007FDDE713F0020FDAE7EAB21A70B1
:101EF0001B6803F00F039D427FF47DAF8FE7054918
:101F0000E0688B6823F4E05303438B608AE700BFEB
:101F1000003C0240003802401B7400083C000020D6
:101F2000044B054A9B68C3F38223D35C034A1068C1
:101F3000D8407047003802402B7400083C00002055
:101F4000036813F0050FF7B504463CD123689A07E0
:101F500030D500230193454B454D1A6C42F0805219
:101F60001A641B6C03F080530193019B2B6843F4AC
:101F700080732B60FEF756FB06462B68D9054CD5BF
:101F80003A4D2B6F13F440734DD1236903F4407223
:101F9000B2F5407F354A65D1916823F0704021F455
:101FA000F81120F4407001439160116FC3F30B03EB
:101FB0000B431367206810F008001FBF2D4B227DD4
:101FC0001A60002027E02C4E284D00233360FEF7D6
:101FD00029FB07462B681B0117D4E368A2681B077F
:101FE00043EA821362681343C5F8843001233360E7
:101FF000FEF718FB1D4D06462B681801A6D4FEF708
:1020000011FB801B0228F7D904E0FEF70BFBC01B75
:102010000228DFD9032003B0F0BDFEF703FB801BCD
:102020000228AAD9F6E7226902F440729342ACD0A2
:102030002B6F124A0121116023F4407300211160BB
:102040002B672B6FDA07A0D5FEF7ECFA41F2883741
:1020500006462B6F9B0798D4FEF7E4FA801BB84224
:10206000F7D9D7E7916821F4F8119DE700380240CD
:1020700000700040E011474268004742400E47426E
:10208000012821D1114B9A6812F4000204D0012AD0
:102090000F4818BF002070475A680C49D3F88400D5
:1020A0005302D1F884204CBF0A4B0B4B00F03F0089
:1020B000B3FBF0F3D1F88400C2F388125343C0F3AA
:1020C0000270B3FBF0F07047002070470038024008
:1020D0000080BB0000127A000024F400F8B504462A
:1020E0000E4615461F4621688A6836EA020301D06B
:1020F0000020F8BD6B1CF7D0FEF794FAC01B854298
:10210000F1D823685A6822F0E0025A606268B2F59A
:10211000827F0AD1A268B2F5004F02D0B2F5806F7B
:1021200003D11A6822F040021A60A26AB2F5005F79
:1021300007D11A6822F400521A601A6842F4005259
:102140001A60012384F85130002384F850300320B2
:10215000F8BD000073B51346134A144E1568426863
:10216000B5FBF6F64FF47A757543B2F5827F0446F7
:1021700001950DD10A468021FFF7B0FF10B900206C
:1021800002B070BD636D43F0200363650320F7E781
:10219000019B002BF3D0019B013B019323689B68BB
:1021A0001B06F5D4EBE700BF3C00002000366E01B3
:1021B00010B50446002836D00023836290F85130D1
:1021C00003F0FF021BB980F8502002F0B1FF216834
:1021D000A068A269022384F851300B6823F0400301
:1021E0000B6063680343E06803432069034360694D
:1021F0000343E0690343206A0343A06A034302F4F4
:10220000007003430B60120C636A02F004021A436D
:102210004A60CB6923F40063CB6100200123606531
:1022200084F8513010BD012010BD2DE9F3411E4648
:1022300090F85030012B04460D46904600F09B80EC
:10224000012380F85030FEF7EDF9074694F851006D
:10225000C0B2012840F08D80002D5DD0B8F1000F94
:102260005AD0032384F851300020A3686065A0632E
:10227000A4F83680A087E087606420642068256326
:10228000B3F5004F08BF0368A4F8348004BF43F4DB
:102290008043036003685B065EBF036843F040034E
:1022A0000360E368B3F5006F63683ED113B1B8F122
:1022B000010F07D135F8023BC3602563E38E013B74
:1022C0009BB2E386E38E9BB2A3B93A4631462046E1
:1022D000FFF740FF002849D1A36833B90193236871
:1022E000DA6801929B680193019B606D003018BF12
:1022F000012011E022689368980705D5236B33F815
:10230000021BD1602363D9E7FEF78CF9C01BB042F2
:10231000D8D3711CD6D00320012384F85130002378
:1023200084F8503002B0BDE8F08113B1B8F1010F6C
:1023300008D12B780373236B01332363E38E013BB6
:102340009BB2E386E38E9BB2002BBED023689A68D3
:10235000920703D5226B12781A73ECE7FEF762F945
:10236000C01B8642EED8731CECD0D4E720236365F3
:10237000B2E70220D0E70220D4E7000090F8503006
:10238000012B10B504464ED0012380F8503090F850
:102390005100C0B2984244D100292DD0002A2BD040
:1023A000032384F8513000236365A363E2866364EA
:1023B000E3872364A387A368A2862268A06C2163B5
:1023C000B3F5004F02BF136843F480431360174B0B
:1023D0000364174BC363174BC36400230365E38E89
:1023E0000C329BB2FEF736FA50B1636D012043F018
:1023F0001003636584F85100002384F8503010BD49
:1024000023681A6852065EBF1A6842F040021A60DA
:102410005A6842F020025A605A6842F002025A603A
:10242000EAE70220E8E7022010BD00BF3D240008D3
:102430006B240008492400087047704708B5806B7A
:10244000FFF7FBFF08BD7047806B026808B5536853
:1024500023F003035360436D43F0100343650123EE
:1024600080F85130FFF7EFFF08BD37B50546846BA4
:10247000FEF7D8F82B681B68DB05024626D42368D4
:10248000596821F020015960596821F00201596012
:1024900020466421FFF75EFE18B1636D43F0200310
:1024A0006365A36833B901932368DA6801929B6876
:1024B0000193019B0023E386012384F85130636D6F
:1024C00023B12046FFF7BFFF03B030BD2046FFF722
:1024D000B3FFF9E7036830B559689A6802F041051F
:1024E000012D85B0044605D14D0603D5036C9847F0
:1024F00005B030BD950704D5080602D5636C2046AB
:10250000F5E712F4B07FF3D08D06F1D550060FD564
:1025100094F8510003284FF000054CD0606D40F056
:10252000040060650095D868009098680090009855
:1025300095060CD5606D40F00100606500200290AA
:1025400098680290186820F0400018600298D00542
:1025500008D5626D42F008026265002203929A6813
:102560000392039A626D002AC2D05A6822F0E002F8
:102570005A60012284F851208A0723D05A68E06CFF
:1025800022F003025A6040B1104B0365FEF7A0F938
:1025900018B1636D43F040036365A06C0028A7D0B9
:1025A0000A4B0365FEF794F90028A1D0636D43F050
:1025B000400363659CE70195DA6801929B6801938B
:1025C000019B95E72046FFF73EFF91E7D1250008E4
:1025D00008B5806B0023C387C386FFF734FF08BDAF
:1025E0000368DA6842F00102DA609A6802F00702D2
:1025F000062A1EBF1A6842F001021A6000207047C6
:10260000704770477047704703681A69910710B5A3
:1026100004460ED5DA6892070BD56FF002021A61F4
:102620009B6901229B07027777D0FFF7EAFF00231F
:10263000237723681A69500710D5DA6851070DD53A
:102640006FF004021A619B69022213F4407F227723
:10265000204668D0FFF7D5FF0023237723681A6947
:1026600012070FD5DA6810070CD56FF008021A614F
:10267000DB6904229907227720465AD0FFF7C1FF71
:102680000023237723681A69D20610D5DA68D006AA
:102690000DD56FF010021A61DB69082213F4407F38
:1026A000227720464BD0FFF7ACFF00232377236827
:1026B0001A69D10708D5DA68D20705D56FF001028B
:1026C0001A61204602F0A6FB23681A69100608D595
:1026D000DA68110605D56FF080021A61204600F015
:1026E000A5F923681A69520608D5DA68500605D597
:1026F0006FF040021A612046FFF785FF23681A69D0
:10270000910622D5DA6892061FD56FF02002204686
:102710001A61BDE8104000F088B9FFF771FF20464C
:10272000FFF770FF83E7FFF76BFF2046FFF76AFFB5
:1027300092E7FFF765FF2046FFF764FFA0E7FFF78A
:102740005FFF2046FFF75EFFAFE710BD244A036836
:1027500090420ED0B0F1804F0BD0A2F57C42904257
:1027600007D002F58062904203D002F58062904269
:1027700015D14A6823F070031343194A904219D0C7
:10278000B0F1804F16D0A2F57C42904212D002F5F3
:10279000806290420ED002F5806290420AD0114AC7
:1027A000904207D002F58062904203D002F5806229
:1027B000904203D1CA6823F4407313434A6923F05B
:1027C0008003134303608B68C3620B688362044B0E
:1027D000984204BF0B69036301234361704700BF44
:1027E000000001400040014010B50446A0B190F83F
:1027F0003D3003F0FF021BB980F83C2002F05AFD87
:10280000022384F83D302068211DFFF79FFF01233C
:1028100084F83D30002010BD012010BDF8B50C46F5
:102820000546002843D090F83D3003F0FF021BB965
:1028300080F83C2002F002FD2946022351F8040BE7
:1028400085F83D30836823F4804323F007038360D9
:10285000FFF77CFF2868236886688269A168076A99
:102860001E43A36922F4407222F0030241EA0323CB
:10287000134323F47C422369E1691B0143EA0123EA
:10288000E1680B43216A22F0FC0243EA013313435F
:10289000616927F0AA026768866047EA01178361C9
:1028A00017430123076285F83D300020F8BD012061
:1028B000F8BD10B584680A4324F47F4442EA032338
:1028C0002343836010BD90F83C30012B70B5044663
:1028D0004FF0020019D084F83D002068012384F8ED
:1028E0003C30836823F47F4323F0770383600B68D5
:1028F000402B65D015D8102B0CD007D853B101232D
:10290000002084F83D3084F83C0070BD202B01D0BD
:10291000302BF4D1826843F0070322F07002134396
:102920001AE0602B34D019D8502BE8D14A68CE6811
:10293000016A056A25F001050562836921F00A0133
:1029400023F0F00343EA06130A43836102628368BB
:1029500023F0700343F057038360D0E7702B0CD053
:10296000B3F5005FCBD1CB684A688968FFF7A1FF58
:102970002268936843F4804308E0CB684A6889681A
:10298000FFF797FF2268936843F077039360B6E7F9
:102990004D68CE68016A21F0100101628269036A04
:1029A00022F4704223F0A00343EA051342EA063200
:1029B00082610362836823F0700343F06703CBE70F
:1029C0004A68CE68016A056A25F0010505628369D7
:1029D00021F00A0123F0F00343EA06130A4383615E
:1029E0000262836823F0700343F04703B4E790F872
:1029F0003C30012B30B54FF0020314D0046880F84E
:102A00003D306268A3680D68496822F0700223F0C7
:102A100080030B432A436260A360012380F83D30AA
:102A2000002380F83C30184630BD704770470000E6
:102A30000A4B013B01D1032070470269002AF8DAF2
:102A40000369064A43F001030361013AF3D00369C5
:102A500013F00103F9D11846704700BF410D030080
:102A600084B038B505AD85E80E000A9B012B0446FD
:102A700025D1836B23F480338363C36823F48403F9
:102A800023F04003C360C36823F44013C360119B69
:102A9000012B02BFC36843F48013C360FFF7C8FF74
:102AA000089B012B07D1A36843F00603A360A3682A
:102AB00043F02003A360BDE8384004B07047C3680A
:102AC00043F04003C360FFF7B3FF0E9B23B9A36B32
:102AD00043F48033A363E3E7A36B23F48033F9E784
:102AE000836843F00103836000207047836823F00C
:102AF000010383600020704708B5C368012923F0F3
:102B0000C043C36008D1C36843F00053C3603220A0
:102B1000FDF78EFD002008BD19B9C36843F080435E
:102B2000F4E7012008BD0000890141F02001064AB8
:102B30000161013A05D0036913F02003F9D1184669
:102B400070470320704700BF410D03001023064A61
:102B50000361013A05D0036913F01003F9D1184657
:102B600070470320704700BF410D030010B59DF86A
:102B700008404CB9033300EB023023F0030300F5A7
:102B800080500B44994201D1002010BD51F8042B14
:102B90000260F7E7033222F003020A4400F5805096
:102BA000914201D108467047036841F8043BF7E7BA
:102BB0004269806910407047406900F00100704729
:102BC000D0F8003423F0030310B5C0F80034D0F877
:102BD000004401F003032343012900F58062C0F89B
:102BE000003404D14BF680335360002010BD02291D
:102BF000FBD141F27073F7E737B500250195D0F8A6
:102C000040340193019B23F02E030193019B43F475
:102C100080730446C0F840346420FDF709FD019B31
:102C200023F48073C4F840340A20FDF701FD2846E0
:102C300003B030BD82B000230193D0F8403401933B
:102C4000019B23F02E030193019BDA0406D4012992
:102C500002BF019B43F48053C0F84034019BDB0466
:102C600005D521B9019B23F48053C0F840340020DE
:102C700002B0704784B038B5044605A880E80E005D
:102C80000023C4F8003EA36B43F40013A363A36BBB
:102C900023F40023A363A36B23F48023A363E36BD8
:102CA000DA053FD5079B032BD4F800343CD143F021
:102CB0000403C4F8003410212046FFF735FF2046F6
:102CC000FFF744FF0023069904F5A0624FF0FF30A0
:102CD0001D468B422BD101212046FFF7ABFFC820B8
:102CE000FDF7A6FC0023A3614FF0FF336361E36BA4
:102CF000DB0521D54FF40073636203F18073A36297
:102D0000114BC4F80031089B1BB9A36943F01003B1
:102D1000A361A2690D4B1343A361BDE838400020B5
:102D200004B07047D4F8003423F00403C1E7906086
:102D30000133D5602032CCE78023636203F5C00302
:102D4000A362034BDDE700BF0003E000080020A3FF
:102D5000E000400082B000230193D0F8403401939A
:102D60000198C0F3414002B0704700F58060806870
:102D700080B270472DE9F04100EB411707F5A064E0
:102D80009DF81C6005464FF0FF30A0604FFA82F8B6
:102D900005F5806C01F00F0E032E6CD8DFE806F00D
:102DA0000261024C40F29D41B8F1000FE16003DA8C
:102DB000E16841F4807105E0E96BC90542D5E1683D
:102DC00041F06001E1600020DCF81840012101FAC7
:102DD0000EF12143CCF81810A969B8F1000F41F0A9
:102DE0000071A961B4BF4FF400440024BDF8205025
:102DF0009DF818109B0503F0FE53C5F30A05D20297
:102E000002F4F0422B431343B20402F4402202299D
:102E100043EA02030CBF4FF40031002123430B436C
:102E2000032EC7F8003528D1D7F8003543F00053FA
:102E3000C7F80035BDE8F08140F29D61B8F1000FA0
:102E4000E160B5DBDCF81800012101FA0EF1014365
:102E5000CCF81810A969002041F00071A96104465E
:102E6000C4E740F22521B8F1000FE160EADAE16839
:102E700041F4C071A6E70120A6E7BDE8F08100F5A6
:102E80008060406980B2704700EB411101F5A0629B
:102E9000D1F8003513F4802FD1F8003543F080438A
:102EA000C1F800351ED1C36A13F47F0FD1F8003585
:102EB00037D123F00043C1F80035D1F8003543F095
:102EC0000043C1F80035D1F8003523F40043C1F8C0
:102ED000003540F2E933013B02D011680029FADBEA
:102EE00000207047D0F8103413F47F0FD1F800356C
:102EF00017D123F00043C1F80035D1F8003543F075
:102F00000043C1F80035D1F8003523F40043C1F87F
:102F1000003540F2E933013BE2D011680029FADBC9
:102F2000DEE743F00043C1F80035D9E700EB41117B
:102F3000064AC1F81025D1F8003523F0804343F04C
:102F40000043C1F800350020704700BF0000088032
:102F50002DE9F341C36BDB05164604464A7817D5C5
:102F60000D79ADB94EB94B79012B11D11146FFF74F
:102F7000DDFF002002B0BDE8F081012E08D100EB9A
:102F80004213D3F80C0520F06000C3F80C054D7116
:102F90000869002866D00B8901381844B0FBF3F0AB
:102FA00080B2B0F5807F03D91B020B614FF48070B3
:102FB000CF7817B10B8943430B6191F80AE00B6995
:102FC0004FEA4E7EC3F312080EF0C04E4EEA080ED2
:102FD000DFF8DC8004EB421508EAC0404EEA00004E
:102FE000C5F8100516B1C868C5F8140504F5806E5B
:102FF000DEF80800D5F800C52CF0005CC5F800C567
:10300000C043D5F800C5400700F0005040EA0C006E
:10301000C5F800052548D5F800C5C0F800C0D0F8AF
:1030200000C02CF0804CC0F800C0D0F800C0DFB168
:103030004CF4004CC0F800C0D0F800C04CF0004C7C
:10304000C0F800C00068C5F80005002E91D1002F1F
:103050008FD1002B8DD0C879032813D8DFE800F07A
:10306000071A071A0120A3E72CF4004CE2E7E06AF4
:10307000DD1CC5F38F0580B2854203D9A06940F0FD
:103080002000A061002000909BB2C9682046FFF795
:103090006DFD6EE7DEF81000DD1CC5F38F0580B214
:1030A0008542EFD9A06940F08060EAE7C0000020C7
:1030B0000000F81F836823F0010310B510210446B7
:1030C0008360FFF731FD2046FFF740FD04F5A06364
:1030D00004F5E0601A46116821F0802141F080413A
:1030E00042F8201B9042F6D10020196821F40041DB
:1030F00041F0404119600130B0F57A7F02D819687B
:103100000029F8DB20339A42EFD14FF0FF33C4F8A7
:1031100014346361A36843F00103A360002010BD71
:103120000020704738B5D0F87833DC69217805463F
:1031300039B100F017FE2178284600F02FFE002359
:103140002370217B41B1284600F00CFE217B2846EC
:1031500000F024FE00232373617B41B1284600F078
:1031600001FE617B284600F019FE00236373D5F849
:103170007833D86928B102F0EFFAD5F87833002215
:10318000DA61002038BDF0B5022285B00123114676
:10319000054600F0B2F9FF28064602D1022005B02C
:1031A000F0BD0146284600F09FF95020D5F878730D
:1031B00002F0CAFA1A2303FB0656F86196F84A335E
:1031C0001A0642BF4370B6F84C3343810446417837
:1031D000284600F0CCFD0146207060890290032053
:1031E000019095F81D0395F81C33627800902846ED
:1031F00000F0A9FD00222178284602F036FA0023CB
:103200001A460A21284600F078F9FF28C6D01A236A
:1032100003FB005103FB005091F84A2390F852330E
:10322000B1F84C1312F0800F0DBFA273E2736183EB
:10323000218313F0800F08BFA373B0F85423A17B40
:1032400018BFE373284614BF6283228300F08FFD0A
:10325000E17B6073284600F08AFD2073208B02908A
:10326000022695F81D0395F81C33A27B617B01961D
:103270000090284600F067FD608B029095F81D03D2
:1032800095F81C33E27B217B0196009000262846AE
:1032900000F059FD3246617B84F84C60284602F00C
:1032A000E4F93246217B284602F0DFF9304676E722
:1032B00038B5D0F87833D969A12303742123437436
:1032C0000722002343828382C2824031044600F0F9
:1032D000C9FA054620B9D4F8C833022120469847D8
:1032E000284638BD704770477047D0F8783373B5BB
:1032F000DC6994F84C300546042B3DD8DFE803F038
:1033000003061742A600002002B070BD2123A16C65
:103310000374202343740722002343828382C282E2
:1033200000F0A0FA50BB022384F84C3024E0A12323
:103330000374212343740722002343828382C282C1
:1033400004F1400100F08EFAC0B9626CA36C84F8FD
:103350004C0002F0FF115A6802F0FF1291420BD1AB
:1033600094F845105A79914206D1226C1B689A4212
:1033700002D12846FFF7B8FF0120C5E70128FBD09E
:103380000423D1E794F84D10012921D002292ED031
:10339000D5F87833DE6996F84E30032B45D0042BF0
:1033A000EAD1317B284602F04FF90128E4D1317B84
:1033B000284602F005F9B36A984240D0728B9042D9
:1033C0003DD91B1AB362336A18443062032333E0D9
:1033D000606A228B637B0091904298BF82B2E16960
:1033E000284600F089FC022384F84D30D0E7617B49
:1033F00002F02AF9012815D1636A228B934283BF18
:103400009B1A6362E36900238ABF9B186362E361CE
:10341000636A0BB10123E7E784F84D302846FFF7D4
:1034200061FFB5E70228B3D1F4E7337B728B316AD1
:10343000284600F078FC042386F84E309CE70023F1
:1034400086F84E302846FFF74EFF95E7002100F042
:103450000DFC002890D184F84C008DE700F56073D6
:1034600000F56F72002143F8041B9342FBD100F575
:103470008E7200F54771002302F8013B9142FBD1A7
:1034800001224021037043708270C0F8BC33027681
:103490008171437680F81C3380F81D23002070472B
:1034A00038B50D46044680B1002380F8C023C0F82B
:1034B0007833C0F87C33FFF7D1FF0DB1C4F8C8539F
:1034C000204602F01FF8002038BD022038BD49B167
:1034D000D0F87C3333B90122C0F87C23C0F87413D0
:1034E000184670470220704790F838338B4286BFE9
:1034F00080F8201300200220704770B5002490F857
:1035000043638E42E5B201D0FF290BD190F84463AA
:10351000964201D0FF2A05D190F845639E4207D01C
:10352000FF2B05D00134022C00F11A00E7D1FF2552
:10353000284670BD10B5044602F00AF80121204665
:1035400002F086F8002010BD30B587B002238DF858
:10355000173090F81F33044633B9027822B102784D
:10356000032A1CBF0322027022780B2A18D8DFE836
:1035700012F00C001A001F00210117004F00070174
:10358000C600D000DA00E700180194F81E333BB102
:103590000123C820237002F077F8204602F002F8D9
:1035A000002007B030BD012BFAD102232370F7E7CA
:1035B000642002F069F8204601F0E6FF052323703D
:1035C00084F81D030021204600F0D1FB80216071AA
:1035D000204600F0CCFBA27994F81C332071014600
:1035E0000292002594F81D23009201958022204626
:1035F00000F0A9FBA279029294F81D23009294F89E
:103600001C33617901952A46204600F09CFBC7E7F0
:103610006378072BC4D8DFE803F004151E30384167
:103620004F5D0821204600F0FAF905460028B7D181
:10363000012394F829236370217994F81C33A27133
:103640000292CFE71221204600F0E9F90028A7D125
:1036500002236370A4E70121204600F0DDFA05464D
:1036600000289DD1022002F00FF80322012362708E
:1036700084F81C332179A279E2E70921204600F081
:1036800016FA00288CD10423E3E7B4F83613204659
:1036900000F00DFA002883D10523DAE794F83013FF
:1036A00041B1FF2304F58E72204600F08EFA002807
:1036B0007FF476AF0623CCE794F8311341B1FF23B2
:1036C00004F58E72204600F080FA00287FF468AF7F
:1036D0000723BEE794F8321341B1FF2304F58E723D
:1036E000204600F072FA00287FF45AAF002384F8D5
:1036F000203394F83333012B09D0072356E7D4F84D
:10370000C833002B3FF44CAF0121204698470823D3
:103710004CE794F83913204600F08CFA00287FF427
:103720003FAF092342E794F83B339B0606D50121BE
:10373000204600F08DFA00287FF432AF0A2335E7E7
:10374000D4F87C33002B3FF42BAF0023C4F878333C
:10375000D4F8743394F843231979914208BFC4F81C
:103760007833D4F87833D3B19B6820469847B0B902
:10377000062323700321D4F8C833204698470FE767
:10378000D4F878335BB11B69204698478DF8170051
:103790009DF81730002B7FF403AF0B2306E70D23B2
:1037A00004E7D4F87833002B3FF4FAAE5B69204687
:1037B0009847F5E62046FFF751FED4F87833002B02
:1037C0003FF4EEAEDB68204698470023C4F8783318
:1037D000E6E6C0F8BC137047D0F8BC230132C0F84D
:1037E000BC2302780B2A04D1D0F878330BB19B6943
:1037F00018477047012380F81F337047002380F873
:103800001F337047027808B54AB9D0F8C83301228F
:1038100080F81E230BB104219847002008BD90F8C2
:103820001F23012A04BF02220270F6E710B50446E6
:1038300001F09CFE2179204600F0B0FA6179204623
:1038400000F0ACFA002384F81E33D4F8C83313B167
:10385000052120469847204601F07AFE0323237075
:10386000002010BD13B504468078012803D002283B
:1038700008D0012004E00223A160A2812076A37079
:1038800002B010BD237E013B01210A2BF1D8DFE8F5
:1038900003F0060F2B36404C646F808C95006279E4
:1038A00004F11001204600F0EFF902232376E0E74F
:1038B0006179204601F0C8FE01280FD1E28A94F90F
:1038C00010302AB1002B01DA0323EFE70523EDE7DF
:1038D000002B01DA0923E9E70723E7E7042801D0F1
:1038E0000228C6D10B23E1E7D4F8BC33E381A289D7
:1038F0002379A168204600F0EFF90423D6E7217967
:10390000204601F0A1FE0128E4D0052815D00428A6
:10391000E7E763790091A289A168204600F0C5F924
:10392000D4F8BC33E3810623C0E76179204601F077
:103930008BFE0128D0D0052805D10123A3700023D8
:10394000237603209CE70228C0D0042891D10B23C2
:1039500023760123A370022092E7002223791146E7
:10396000204600F0B9F9D4F8BC33E38108239DE781
:103970002179204601F068FE012804D101230020AE
:10398000A37020767CE70428ACD005287FF471AFC3
:10399000D3E70022637900912046114600F085F9B3
:1039A000D4F8BC33E3810A2380E76179204601F033
:1039B0004BFE0128E2D00228A9D18BE7637E0133B8
:1039C000DBB2022B637606D8204601F0CFFD01233F
:1039D0002376A3704DE7D4F8C833062120469847D4
:1039E00000236376B5E730B48478BDF80850012C25
:1039F00010D161F07F04047402F47F44B4F5407F79
:103A000042824FF006010CBF40F20942002241748D
:103A10008282C5822A46194630BCFFF723BF37B5DC
:103A200000F58E730D4600914FF48072002104461C
:103A3000FFF7D9FFC8BB94F81C3184F8223394F8FF
:103A40001D3184F82333B4F81E31A4F8243394F8DC
:103A5000203184F8263394F8213184F8273394F800
:103A6000223184F82833082D94F8233184F829333F
:103A70001BD9B4F82431A4F82A33B4F82631A4F8B9
:103A80002C33B4F82831A4F82E3394F82A3184F872
:103A9000303394F82B3184F8313394F82C3184F896
:103AA000323394F82D3184F8333303B030BD2DE92F
:103AB000F74300F11C050E4600912B464FF40072AF
:103AC00000210446FFF78FFF48BB237F84F834337F
:103AD000637F84F8353394F8203084F8383394F8D1
:103AE000213084F8393394F8223084F83A3394F84A
:103AF0002330B4F81EE084F83B33092E94F82430C8
:103B0000A4F836E384F83C3309D927462B46064609
:103B100009224FF01A0C022E01D0964502D803B0AC
:103B2000BDE8F08319780B440A445978042992B20D
:103B3000F1D1197887F83E13597887F83F139978AF
:103B400087F84013D97887F84113197987F8421319
:103B5000597987F84313997987F84413D97987F805
:103B60004513197A87F846130CFB06F8002197F8DD
:103B700042538D4202D801361A37CCE79645FAD91E
:103B80001D782B442A445D78052D92B2EFD14D1C4F
:103B900008EBC501214493F8009081F8409393F815
:103BA000019081F8419393F8029081F8429393F841
:103BB000039081F84393B3F80490A1F8449393F8E9
:103BC000069081F84693E9B2D1E7F7B500F58E7516
:103BD00014461F46009341F440722B4600210646CE
:103BE000FFF701FF78B996F81D31032B0BD196F83A
:103BF0001C31023BBB4228BF3B469BB2024693426C
:103C000003D80023237003B0F0BDA91802328978CD
:103C100004F8011B92B2F2E78378012B06D100234E
:103C200005220374427441828382C38200221146BA
:103C3000FFF718BE8378012B06D1002309220374F5
:103C4000427441828382C38200221146FFF70ABE7A
:103C50008378012B06D1002303220374427441822E
:103C60008382C38200221146FFF7FCBD8378012BBB
:103C700006D1022243740023027443828182C382EC
:103C800000221146FFF7EEBD30B585B00024154681
:103C90000823029301910394009423462246294667
:103CA00001F0B8FC204605B030BD30B590F81D538A
:103CB00085B0002D1C469DF82030029218BF0023CD
:103CC000039301230093002301911A46214601F03A
:103CD000A1FC002005B030BD30B585B000241D46E4
:103CE000029201220191039400922346294601F099
:103CF00091FC204605B030BD30B590F81D5385B01D
:103D0000002D1C469DF82030029218BF002303931B
:103D100001230191009300220223214601F07AFC45
:103D2000002005B030BD30B585B01D46002402929C
:103D300001220191039400920223294601F06AFCBA
:103D4000204605B030BD1FB5BDF8204002949DF857
:103D50001C4001949DF81840009401F035FC0020AF
:103D600004B010BD08B501F047FC002008BD30B517
:103D7000002300F5607454F8045B2D04DAB207D414
:103D8000E03341F4004140F8231092B2D0B230BD8C
:103D900001330B2BEFD14FF6FF72F7E70A299FBFD4
:103DA00000EB8100D0F88033C3F30E03C0F88033FA
:103DB0000020704700224FF480710148FCF730BFAB
:103DC000000C024013B502AC002204F8010D4FF4C0
:103DD00000610548FCF724FF0A230122214603481D
:103DE000FEF723FA02B010BD000C0240D8010020FB
:103DF0002DE9F843012205460C461148114FDFF822
:103E00004880DFF848904FF40061FCF709FF0CB9D7
:103E1000BDE8F883B4F5004F264628BF4FF40046AE
:103E20000023B2B2294640463B70FEF7A7FA89F854
:103E3000000001F089FA0028FBD03544A41BE6E716
:103E4000000C0240C8000020D8010020E000002043
:103E5000F7B507462A2016460D461C46FFF7B2FF67
:103E600004213B0A0DEB01008DF80430330A8DF874
:103E700006308DF805708DF80760FFF7B9FF2B202D
:103E8000FFF7A0FF04212B0A0DEB01008DF8043091
:103E9000230A8DF806308DF805508DF80740FFF79E
:103EA000A7FF2C20FFF78EFF03B0F0BD01224FF4D7
:103EB00080710148FCF7B4BE000C024030B585B0FB
:103EC000FFF778FF00224FF400718848884CFCF718
:103ED000A7FE0520FCF7ACFB01224FF400718348DC
:103EE000FCF79EFE0120FFF76DFF4FF47A70FCF7A0
:103EF0009FFBCB20FFF766FF206823790090052108
:103F000068468DF80430FFF773FFCF20FFF75AFFA4
:103F10002346032133F8052FADF800209B788DF858
:103F200002306846FFF764FFE820FFF74BFF2346A7
:103F3000032133F8082FADF800209B788DF802306C
:103F40006846FFF755FFEA20FFF73CFF00250221F6
:103F500068468DF800508DF80150FFF749FFED20BD
:103F6000FFF730FFD4F80B00009004216846FFF7FC
:103F70003FFFF720FFF726FF2023012168468DF839
:103F80000030FFF735FFC020FFF71CFF232301217E
:103F900068468DF80030FFF72BFFC120FFF712FFB6
:103FA0001023012168468DF80030FFF721FFC5205E
:103FB000FFF708FFB4F80F30ADF800300221684673
:103FC000FFF716FFC720FFF7FDFE86230121684695
:103FD0008DF80030FFF70CFF3620FFF7F3FE482383
:103FE000012168468DF80030FFF702FF3A20FFF705
:103FF000E9FE5523012168468DF80030FFF7F8FEF1
:10400000B120FFF7DFFE1823022168468DF801304A
:104010008DF80050FFF7ECFEB620FFF7D3FE2346E5
:10402000032133F8112FADF800209B788DF8023072
:104030006846FFF7DDFEF220FFF7C4FE0121684667
:104040008DF80050FFF7D4FE2620FFF7BBFE0121BC
:1040500068468DF80010FFF7CBFEE020FFF7B2FEB8
:1040600004F114036A461C3418685968154603C5E0
:104070000833A3422A46F7D1186899889B79AB7117
:104080002860A98068460F21FFF7B2FEE120FFF704
:1040900099FE184B6A4603F10805186859681446DA
:1040A00003C40833AB422246F7D1186899889B793C
:1040B000A3712060A18068460F21FFF799FE1120AF
:1040C000FFF780FE7820FCF7B3FA2920FFF77AFE8D
:1040D0003620FFF777FEE823012168468DF800308F
:1040E000FFF786FEFFF7E2FE05B030BD000C024090
:1040F000E85F00080B60000882B02DE9F04F8BB03C
:1041000000AF1446B7F85C20FA615FFA83F8B7F89D
:1041100060207B65C3F3072683460D46BA61FFF72F
:1041200049FE18FB06F35B007B62BB693C621B0A1D
:10413000FB60FB691B0A3B617B6A073323F00703C3
:104140007B603B6A13F8014B3B623CB9FFF7AEFE64
:104150002C37BD46BDE8F04F02B070470BEB0803AB
:10416000B3F5A07F08DB3544ADB2AB19EF2BEDDC26
:10417000202C4CD04FF0000B0BEB08091FFA89F9EB
:10418000731E2B4409F1FF329BB292B22946584666
:10419000D7F858A0C7F814D0FFF75AFE7B68203C28
:1041A000ADEB030D74430AEB44036846BB606A46FB
:1041B0000021C0F1020AB14206D3796AFFF718FE66
:1041C000D7F814D0CB46BCE7BB680AEB020E33F835
:1041D00011B00023434504D30223013113FB08220D
:1041E000E9E70BFA03FC1CF4004F16BF3C7C3C7B58
:1041F00002F8134000EB0E0C0ABF02F813403C7F9C
:104200003C7E0CF8014C01330EF1020EE2E74FF058
:104210000009D7E72DE9F04F83B000AFB0F5A07FDC
:104220000446884616461D46B7F830B0EA465CD2CA
:10423000EF295AD88318B3F5A07FC8BFC0F5A07680
:1042400001EB0503C8BFB6B2F02BC4BFC1F1F00546
:10425000ADB2FFF7AFFD2046621E08F1FF337400D8
:104260002B44324414FB05F4A4B29BB292B24146F3
:10427000FFF7EEFDB4F5964F28BF4FF49644E31DCB
:1042800023F00703ADEB030D01224FF40061194841
:10429000FCF7C6FCE9464FEA1B220021FDB1B046FF
:1042A00017E04B1C09F80120023109F803B0B1FBFB
:1042B000F4F304FB131343B9214648463B607A608C
:1042C000FFF796FD3B687A68194608F1FF381FFA38
:1042D00088F8B8F1000FE4D1013DADB2DEE7214628
:1042E0004846FFF785FDFFF7E1FD0C37D546BD4693
:1042F000BDE8F08F000C024007B500210090F023CC
:104300004FF4A0720846FFF785FF03B05DF804FB89
:1043100070B59AB0302200210EA801F025FA1422BF
:10432000002103A801F020FA0021182208A801F0BA
:104330001BFA0024204B01941A6C42F080521A643C
:104340001B6C03F080530193019B1C4B02941A6871
:1043500042F440421A601B6803F440430293029BFC
:104360004FF480330F934FF4800315930423C0223E
:1043700002250126169318930EA808231792199365
:104380000E961495FDF782FB0F23039303214FF440
:10439000A05303A80693049505940794FDF726FD02
:1043A000C8230A9308A80523089609930B95FDF7DF
:1043B000C7FD1AB070BD00BF003802400070004059
:1043C00080B592B00024AB4DDFF8F492FCF704F90D
:1043D000FFF79EFF1422002109A801F0C5F90194FE
:1043E0002B6BA54843F010032B632B6B03F01003DA
:1043F0000193019B02942B6B43F004032B632B6B03
:1044000003F004030293029B03942B6B43F080039D
:104410002B632B6B03F080030393039B04942B6BA0
:1044200043F001032B632B6B03F001030493049B04
:1044300005942B6B43F002032B632B6B03F00203F9
:104440000593059B06942B6B43F008032B632B6BA2
:1044500003F00803069322460821069BFCF7E0FBC5
:10446000012211468548FCF7DBFB22464FF610710E
:104470008348FCF7D5FB4FF0040809A97E48CDF826
:104480002480012603270A940B94FCF7EDFA0823F5
:1044900009A9794809930A960B940C97FCF7E4FA5A
:1044A000322309A974480993CDF828900B94FCF79E
:1044B000DBFA09A9714809960A960B940C94FCF74B
:1044C000D3FA09A96F48CDF8289009960B94FCF708
:1044D000CBFA4FF6107309A9694809930A960B9411
:1044E0000C97FCF7C1FA09A9654809960A940B9440
:1044F000FCF7BAFA022309A9614809930A960B94BA
:104500000C97FCF7B1FA09A95D48CDF824800A960A
:104510000B940C97FCF7A8FA202309A95848099393
:104520000A940B94FCF7A0FA00942B6BDFF89481AB
:1045300043F480032B632B6B03F480032146224654
:1045400000933920009BFCF799F83920FCF7CAF852
:104550004D484E4A4E4B846080E80C004FF4804337
:104560000361C46044618461C4610462FCF7B2FF0A
:104570004848494BC0F814804FF4007580E8280083
:104580008460C46004618461C4610662FDF746F81A
:104590004248434B056180E82800C0F814808460DD
:1045A000C4608461C4610462FDF738F83D483E4B45
:1045B00085614FF00A084FF4827980E80802846030
:1045C000C46004614461C461046244628462C0F8EE
:1045D0002C80FDF7EDFD00F00FFF3448344B856172
:1045E00080E80802334D8460C46004614461C461A2
:1045F000046244628462C0F82C80FDF7D9FD00F0AB
:104600001BF924220DEB0200214601F0ADF84FF01A
:1046100080494FF0FF3309A92846EB60C5F80090A8
:104620006C60AC602C61AC610794089409970B96A0
:10463000CDF834800F96CDF84480FEF7EFF807A947
:10464000284607940894FEF7D2F92146C9F800607D
:10465000102209A801F088F8174D18490794302353
:1046600085E80A00284680230894AC60C5F80C80D1
:104670002AE000BF0038024000100240000802405B
:10468000000C024000000240E40000200054004002
:10469000A0860100CC020020003800401403002056
:1046A000003C00403002002000300140D8010020D2
:1046B000003401408802002038010020000400403E
:1046C00000001210007701002C61AB61FEF78CF83E
:1046D00030B92B686FF001021A612846FDF780FFA0
:1046E0004FF4805309A91E480993FEF7ECF8002304
:1046F00007A91B4807930893FEF779F900F0B8F86B
:104700004FF480411748174CFCF78FFA6420FBF7F1
:104710008FFF4FF480411348FCF787FA6420FBF7C2
:1047200087FF4FF480410F48FCF77FFA6420FBF7C6
:104730007FFF4FF480410B48FCF777FA6420FBF7CA
:1047400077FF00F079FE01212046FCF763FAB0FA0A
:1047500080F0400900F014FB0A20FBF769FFF0E746
:1047600038010020000C024070470000014B13226A
:104770001A70704730000020014B03221A707047F6
:1047800030000020014B04221A70704730000020D6
:10479000014B05221A70704730000020014B0622A1
:1047A0001A70704730000020014B07221A707047C2
:1047B00030000020014B08221A70704730000020A2
:1047C000014B09221A70704730000020014B0A2269
:1047D0001A70704730000020014B0B221A7070478E
:1047E00030000020014B0C221A707047300000206E
:1047F000014B0D221A70704730000020014B0E2231
:104800001A70704730000020014B0F221A70704759
:1048100030000020014B10221A7070473000002039
:10482000014B11221A70704730000020014B1222F8
:104830001A70704730000020FFF740BB0A4A00237F
:1048400010B51946136000695C1C48B901B11360CA
:10485000136801331360054B1B6800225A6210BDB8
:1048600023460121EFE700BFB403002088020020A7
:104870002DE9F04F00208FB0FFF73EFD242000F01F
:1048800063FFAE4BAE4C18600646242000F05CFF80
:10489000AC4B05461860242000F056FFAA4B0D9043
:1048A0001860242000F050FFA8490C9008602420D4
:1048B00000F04AFFA64983460860242000F044FF28
:1048C000A44982460860242000F03EFFA2498146A8
:1048D0000860242000F038FFA049804608602420AA
:1048E00000F032FF9E4907460860242000F02CFFAC
:1048F0009C4901900860242000F026FF9A4902900C
:104900000860242000F020FF9849039008602420CC
:1049100000F01AFF964904900860242000F014FF6C
:10492000944905900860242000F00EFF92490690FB
:104930000860242000F008FF9049079008602420B8
:1049400000F002FF8E4908900860242000F0FCFE71
:104950008C4909900860242000F0F6FE01468A4840
:104960000B910160242000F0EFFE0A9087480A9B1B
:104970000360242000F0E8FEDFF87CE22060C5F848
:1049800000E0834CDFF874E23460C0F800E00024FB
:10499000DFF86CE20D9A286144608460C5600461B0
:1049A0008461C0F814E080F820407A480C9BB26023
:1049B00082E8410078489460D46013617460F460C8
:1049C0003561B461746186F820406C60AF60EE6060
:1049D000AC616C6185F8204090610068D061DFF8BF
:1049E00024E2C2F814E0012082F82000DA606B4A69
:1049F0009A61DFF814E21268C3F800E0DFF80CE215
:104A00005E609C60C3F810B0C3F814E0DA6183F80C
:104A10002000CBF80C30624BCBF818301B68CBF879
:104A20001C30604B604A8BF820008AE848005F4BDE
:104A3000CAF818308BE844005D4ACBF814201B6894
:104A40005C4ACAF81420CBF80840CBF810A0CAF88A
:104A50000840CAF80CB0CAF81090CAF81C30564B7F
:104A60000B99564ADFF8A8C1C9F8142089E8480014
:104A7000534BC9F818301B68C9F81C30514B524AC7
:104A80008AF8200088E84800504BC8F818301B68A6
:104A9000C8F81C304E4BC1F800C04FF0030E81F82F
:104AA00020E089F82000C8F81010C8F8142088F811
:104AB00020004E608C60C1F80C800C618C614C61F0
:104AC00087E82800C9F80840C9F80CA0C9F8108088
:104AD000C8F80840C8F80C90BC60019B3B613D4B96
:104AE000BB613D4A1B687A61019AFB613B4B1360D5
:104AF000029B136101993A4B936155609460D760B2
:104B0000384A1B684A61029ACB61374B1360039B9A
:104B10001361364BD160936181F820000299556092
:104B200094601B68324A87F820004A61FC60CB61C0
:104B3000039A304B1360049BD1606BE0D8030020D4
:104B400068030020A0030020AC030020E80300203D
:104B50009C030020C803002070030020A80300204D
:104B6000D403002074030020C0030020640300204D
:104B700060030020E00300206C030020BC03002041
:104B8000E4030020D003002078030020DC03002091
:104B900078730008937300080000010804000108FE
:104BA00008000108AB730008A37300080C0001089B
:104BB000914700089D470008B3730008A947000803
:104BC00010000108BB730008B54700081400010875
:104BD000CB73000818000108C1470008D373000810
:104BE0001C000108CD470008DB7300082000010805
:104BF000D9470008E3730008817300088A7300082E
:104C00006D470008794700089B7300088547000836
:104C1000C3730008136181F82000434B039955606A
:104C200094609361414A1B684A61049ACB61404B8E
:104C30001360059BD160136181F820003D4B0499FE
:104C40005560946093613C4A1B684A61059ACB6148
:104C50003A4B81F8200055609460D1601360069B48
:104C600013610599364B9361364A1B684A61069A6F
:104C7000CB61354B1360079BD160136181F8200035
:104C8000324B0699936155609460314A1B684A61C2
:104C9000079ACB612F4B1360089B13612E4BD16099
:104CA000936181F820000799556094601B682B4A36
:104CB0004A61CB61089A2A4B1360099BD16013614A
:104CC00081F82000274B0899936155609460264A2B
:104CD0001B684A61099ACB61244B13600A9B1361DC
:104CE000234BD160936181F8200009991B685560BE
:104CF0009460CB610A9B1F4A4A611A46C3F800C000
:104D00005D609C601C4B81F82000D16030461461CE
:104D10009461546182F820E01E60FFF78FFD174B0D
:104D20001C600FB0BDE8F08F24000108E5470008C3
:104D3000EB73000828000108F1470008F37300082E
:104D40002C000108FD470008FB7300083000010833
:104D500009480008037400083400010815480008D9
:104D60000B7400083800010821480008137400087B
:104D70003C0001082D480008B0030020CC030020AF
:104D800000B50E4B0E4A1B688BB05B6A1360142192
:104D90000DEB01000B4A00F0ABFD00210A4B019125
:104DA0004FF6FF7202925A68009208461B6805AAE5
:104DB000FFF7A2F90BB05DF804FB00BF88020020EA
:104DC000C40000207273000828000020024A136803
:104DD00018441060704700BFFC0300200B4B07EE27
:104DE000900A93ED007A0A4BF8EE677AB3F9003037
:104DF00027EE877A07EE903AF8EEE77A67EE277AA1
:104E0000FDEEE77A17EE900A704700BF34000020ED
:104E100038000020F8B5464B464D1B685C6A2046BA
:104E2000FFF7DCFF2B6844499C42064608600AD223
:104E30001B1BB3F5000F06D36FF07F40FFF7CEFFCB
:104E40004042FFF7C3FF2B689C4209D9E31AB3F530
:104E5000000F05D36FF07F40FFF7C0FFFFF7B6FFED
:104E6000364B3748D3ED007A364B374A93ED007A0C
:104E7000F4EE477AF1EE10FA05D1B0F900E0B2F99C
:104E80000070BE4501D0314F3E60C3ED007A304B1B
:104E900000881B782C601080002B44D02D4C238878
:104EA000032B43D8DFE803F002172B35274B0A68A2
:104EB0001B689A4207DA012202212748FBF7B0FE5D
:104EC00002232380F8BD31DD012204212248FBF7B3
:104ED000A7FE0123F5E71D4B0A681B689A4206DD11
:104EE000012202211C48FBF79BFE0323E9E71DDAA0
:104EF000002204211848FBF793FE0023E1E700227B
:104F000002211548FBF78CFE104A1368013B136021
:104F1000F3E7002202211048FBF782FE0B4A1368D8
:104F200001331360D5E7094B0A681A60F8BD00BF6A
:104F300088020020F4030020000400203400002038
:104F400038000020F0030020FA030020FC030020BA
:104F500031000020F8030020000C024007B50E4B82
:104F6000002100915A6C42F480425A645A6C02F457
:104F700080420092009A01911A6C42F080521A64A9
:104F80001B6C03F0805301930720019BFBF764FB2C
:104F900003B05DF804FB00BF0038024030B50446A2
:104FA00089B01422002103A800F0DEFB2268144B14
:104FB0009A4222D1134C144800250195236B43F0EB
:104FC00002032363236B03F002030193019B4FF45D
:104FD00010730393122304930123059303A904235D
:104FE0000793FBF741FD0295236C43F40013236400
:104FF000236C03F400130293029B09B030BD00BF81
:1050000000540040003802400004024070B50446DD
:105010008CB01422002107A800F0A6FB23683E4AAA
:10502000934241D13D4B3E48002401941A6C42F416
:1050300080421A641A6C02F480420192019A02942E
:105040001A6B42F004021A631A6B02F00402029215
:10505000029A03941A6B42F002021A631B6B03F06C
:1050600002030393039B04230225079307A9062346
:105070000B9305260895FBF7F7FC082307A928489A
:105080000793089509940A940B96FBF7EDFC4FF4EF
:10509000A05324480793089509940A940B9607A9EE
:1050A000FBF7E2FC0CB070BD1F4A9342FAD11B4BD8
:1050B0001E48002404941A6C42F400421A641A6CCC
:1050C00002F400420492049A05941A6B42F0010221
:1050D0001A631A6B02F001020592059A06941A6B84
:1050E00042F004021A631B6B03F004030693069B51
:1050F00002261023062507A9079308960B95FBF7B0
:10510000B3FC4FF4A4530793089609940A940B95A3
:1051100007A90348C4E700BF003800400038024038
:105120000008024000040240003C00400000024031
:1051300070B514228AB0064600210DEB020000F083
:1051400013FB3368364A934223D1364B364800214D
:1051500001915A6C42F480525A645A6C02F48052A3
:105160000192019A02911A6B42F001021A631B6BC1
:1051700003F001030293029BE023059302230693AD
:105180000323089305A905230993FBF76DFC0AB0D7
:1051900070BD264A9342FAD10025224B03955A6CE2
:1051A0002348244C42F400525A645A6C02F40052D0
:1051B0000392039A04951A6B42F010021A631B6B58
:1051C00003F010030493049B4FF44153059302230F
:1051D00006930323089305A905230993FBF744FCD1
:1051E0001549E56040234FF0006284E80E00204638
:1051F0004FF4806323616561A561E56125626562A5
:10520000FBF7AAFA08B1FFF7AFFA0022B46411461F
:105210005420A663FBF732FA5420FBF763FAB6E793
:1052200000300140003802400000024000340140DC
:1052300000100240780100202864024010B50446A6
:1052400088B01422002103A800F08EFA2368B3F17D
:10525000804F2AD103F50E33002401941A6C1448B0
:1052600042F001021A641A6C02F001020192019AE2
:1052700002941A6B42F001021A631B6B03F00103E4
:105280000293029B48F2020303930223049303A9AF
:10529000012305930793FBF7E7FB1C2022462146D9
:1052A000FBF7ECF91C20FBF71DFA08B010BD00BF9E
:1052B0000000024007B50D4B02689A4213D100224C
:1052C00003F50D330192196C41F0020119641B6C56
:1052D00003F0020301931D201146019BFBF7CEF959
:1052E0001D20FBF7FFF903B05DF804FB000400404C
:1052F0007047FEE7FEE7FEE7FEE77047704770473E
:10530000FBF784B90148FDF77FB900BF8802002090
:105310000148FDF779B900BF38010020024B03486E
:1053200001221A70FBF7E6BAC800002078010020BD
:105330000148FBF777BD00BFD00700200148FDF70B
:10534000C9B800BFD8010020014B1878704700BFD2
:10535000C800002008B50A4B1968024609B9094976
:1053600019601868694602448A4206D900F0C2F9F9
:105370000C2303604FF0FF3008BD1A6008BD00BF6A
:10538000CC000020980A00200F49D1F8883043F45F
:105390007003C1F888300D4B1A68002042F00102FA
:1053A0001A6098601A6822F0847222F480321A60BF
:1053B000074A5A601A6822F480221A60D8604FF0B7
:1053C00000638B60704700BF00ED00E000380240D2
:1053D0001030002404290AD0052904D0022905D15F
:1053E000044B197070470322024B1A707047012258
:1053F000FAE700BFD000002008B501220B490C4895
:10540000FEF74EF808B1FFF7AFF90A490848FEF772
:105410005EF808B1FFF7A8F90548FEF78BF818B158
:10542000BDE80840FFF7A0B908BD00BFD55300088C
:1054300004040020080000200148FEF785B800BFE2
:105440000404002030B5044689B01422002103A8CA
:1054500000F08AF92368B3F1A04F36D11C4C1D48E7
:1054600000250195236B43F001032363236B03F0B5
:1054700001030193019B03A94FF400730393FBF70E
:10548000F3FA4FF4E05303930223049303230693A8
:1054900003A90A230F4807930595FBF7E5FA636B09
:1054A00043F0800363630295636C43F48043636459
:1054B000636C03F48043029343202A462946029BEF
:1054C000FBF7DCF84320FBF70DF909B030BD00BF56
:1054D0000038024000000240D0F8C002FEF77CB95C
:1054E000D0F8C002FEF78EB9D0F8C002FEF79EB920
:1054F0007047D0F8C002FEF77DB9D0F8C002FEF7C1
:105500007DB9000010B590F8C033012B04461BD1C3
:105510000E48C4F8C4034FF0A04202600822826023
:10552000C36002220023C0F8C04203618261C361EC
:10553000FBF7CCFB08B1FFF717F90448FBF7C4FFF2
:1055400001462046FEF745F9002010BDD007002097
:1055500008B5D0F8C403FBF781FF03289ABF024BBC
:10556000185C022008BD00BF3674000808B5D0F8EA
:10557000C403FBF789FF03289ABF024B185C022083
:1055800008BD00BF3674000808B5D0F8C403FBF7A7
:105590009EFF02289ABF024B185C012008BD00BF85
:1055A0003374000808B5D0F8C403FBF77FFF032865
:1055B0009ABF024B185C022008BD00BF3674000879
:1055C000D0F8C403FBF77BBF1FB5BDF820400294A1
:1055D0009DF81C4001949DF818400094D0F8C40335
:1055E000FBF72AFB03289ABF024B185C022004B089
:1055F00010BD00BF3674000808B5D0F8C403FBF72F
:1056000053FB03289ABF024B185C022008BD00BF61
:10561000367400081FB59DF824400394BDF820405F
:105620000294079C01949DF818400094D0F8C4039C
:10563000FBF796FB03289ABF024B185C022004B0CC
:1056400010BD00BF36740008D0F8C403FBF731BFAB
:1056500008B590F8C033012B02D1084600F016F8C7
:10566000C820FAF7E5FF002008BDD0F8C4032823BE
:1056700003FB010191F83B301BB181F85020002061
:10568000704781F85120FAE7FAF7D2BFB0FA80F2FA
:10569000520901210148FBF7C3BA00BF00080240CC
:1056A000DFF834D0002103E00C4B5B584350043149
:1056B0000B480C4B42189A42F6D30B4A02E00023E7
:1056C00042F8043B094B9A42F9D3FFF75DFE00F024
:1056D00017F8FEF775FE704700000220807400087E
:1056E00000000020A4000020A4000020980A002050
:1056F000FEE70000014B1868704700BF4000002023
:1057000070B50D4E0D4CA41BA4100025A54209D167
:105710000B4E0C4C00F05CFCA41BA4100025A54211
:1057200005D170BD56F8253098470135EEE756F89B
:10573000253098470135F2E778740008787400083E
:10574000787400087C740008024B0146186800F069
:1057500061B800BF40000020024B0146186800F00D
:105760000BB800BF4000002002440346934200D122
:10577000704703F8011BF9E738B50546002945D005
:1057800051F8043C0C1F002BB8BFE41800F0E4F8FB
:105790001F4A1368104633B9636014602846BDE899
:1057A000384000F0DAB8A3420CD92168621893425D
:1057B00004BF1A685B68636004BF5218226004600B
:1057C000ECE713465A680AB1A242FAD91968581888
:1057D000A0420BD120680144581882421960DDD1E3
:1057E000106852685A6001441960D7E702D90C2347
:1057F0002B60D3E7206821188A4204BF11685268E1
:10580000626004BF091821605C60C7E738BD00BF53
:10581000D400002070B5CD1C25F0030508350C2DF3
:1058200038BF0C25002D064601DBA94203D90C2305
:105830003360002070BD00F08FF8234A14682146C1
:1058400091B9224C23681BB9304600F041F8206022
:105850002946304600F03CF8431C26D10C23336027
:10586000304600F07AF8E4E70B685B1B1AD40B2B88
:105870000FD90B60CD50CC18304600F06EF804F113
:105880000B00231D20F00700C31A1BD05A42E25020
:1058900070BD8C420DBF63684B686360136018BFB6
:1058A0000C46E9E70C464968CAE7C41C24F0030427
:1058B000A04205D0211A304600F00AF80130CDD0C0
:1058C0002560D9E770BD00BFD4000020D8000020BB
:1058D00038B5064C0023054608462360FFF73AFD1D
:1058E000431C02D1236803B12B6038BD940A002009
:1058F0000CB430B5174B0C1E9DB01D6808DA8B2315
:105900002B604FF0FF301DB0BDE8304002B0704753
:105910004FF40273ADF8143014BF04F1FF33234683
:10592000049307934FF6FF7302900690ADF816307C
:10593000209A21AB02A92846019300F06BF8431C82
:10594000BCBF8B232B60002CDDD0029B00221A7081
:10595000D9E700BF40000020704770472DE9F047AD
:105960008E689E4282460C469146984635D88A8972
:1059700012F4906F31D0256809696F1A65690223A6
:1059800005EB450595FBF3F508F101033B449D420A
:1059900038BF1D46530531D52946FFF73BFF064664
:1059A00050B90C23CAF80030A38943F04003A38107
:1059B0004FF0FF30BDE8F0873A46216900F0B4FAB5
:1059C000A38923F4906343F08003A381266165617A
:1059D0003E44ED1B2660A5604646464528BF464628
:1059E00032464946206800F0AAFAA3689B1BA360D0
:1059F00023681E4426600020BDE8F0872A4600F098
:105A0000B8FA06460028E1D121695046FFF7B4FEF6
:105A1000C7E700002DE9F04F9DB0804603938B89C6
:105A20001C060D4616460FD50B696BB94021FFF7D2
:105A3000F1FE2860286128B90C23C8F800304FF027
:105A4000FF30C5E040236B610023099320238DF8CC
:105A5000293030238DF82A304FF0010B37463C4671
:105A600014F8013B002B3CD1B7EB060A0BD0534690
:105A7000324629464046FFF771FF013000F0A3800F
:105A8000099B534409933B78002B00F09C80002332
:105A90004FF0FF3204930793059206938DF853302D
:105AA0001A93052221785048FAF79AFB671C049B49
:105AB000D8B9D90644BF20228DF853201A0744BF15
:105AC0002B228DF8532022782A2A16D0079A0021FB
:105AD0000A20274601343B78303B092B51D9C9B104
