:020000040800F2
:100000000000022079BC0008B1B40008BFB40008A9
:10001000C5B40008CBB40008D1B40008000000004B
:10002000000000000000000000000000D7B400083D
:10003000E5B4000800000000F3B4000801B50008B2
:10004000C9BC0008C9BC0008C9BC0008C9BC00087C
:10005000C9BC0008C9BC0008C9BC0008C9BC00086C
:10006000C9BC0008C9BC0008C9BC0008C9BC00085C
:10007000C9BC0008C9BC0008C9BC0008C9BC00084C
:10008000C9BC0008C9BC0008C9BC000800000000C9
:10009000000000000000000000000000C9BC0008D3
:1000A000C9BC0008C9BC0008C9BC0008C9BC00081C
:1000B0000DB5000821B5000835B50008C9BC000819
:1000C000C9BC0008C9BC0008C9BC0008C9BC0008FC
:1000D000C9BC0008C9BC0008C9BC00080000000079
:1000E000C9BC0008C9BC0008C9BC00080000000069
:1000F000000000000000000000000000C9BC000873
:1001000000000000C9BC0008C9BC0008C9BC000848
:1001100000000000000000000000000000000000DF
:10012000C9BC000849B50008C9BC0008C9BC000822
:10013000C9BC000800000000000000000000000032
:1001400000000000000000000000000065B500088D
:10015000C9BC0008C9BC0008C9BC0008C9BC00086B
:10016000C9BC0008C9BC0008000000000000000075
:10017000000000000000000000000000000000007F
:1001800000000000C9BC00080000000000000000E2
:0801900079B50008C9BC0008A4
:1001A00010B5054C237833B9044B13B10448AFF3B1
:1001B00000800123237010BDD0000020000000004B
:1001C000A8C5000808B5034B1BB103490348AFF3AA
:1001D000008008BD00000000D4000020A8C5000871
:1001E00001F0FF01102A2BDB10F0070F08D010F8E8
:1001F000013B013A8B422DD010F0070F42B3F6D1EC
:10020000F0B441EA012141EA014122F007047FF004
:1002100000070023F0E80256083C85EA010586EA5B
:10022000010685FA47F5A3FA87F586FA47F6A5FA97
:1002300087F68EB9EED1F0BC01F0FF0102F00702A3
:1002400032B110F8013B013A83EA010313B1F8D14E
:100250000020704701387047002D06BF354603382F
:10026000073815F0010F07D1013015F4807F02BF68
:10027000013015F4C03F0130F0BC0138704700BFB9
:1002800081F0004102E000BF83F0004330B54FEA47
:1002900041044FEA430594EA050F08BF90EA020FB4
:1002A0001FBF54EA000C55EA020C7FEA645C7FEA47
:1002B000655C00F0E2804FEA5454D4EB5555B8BF6A
:1002C0006D420CDD2C4480EA020281EA030382EADB
:1002D000000083EA010180EA020281EA0303362D6D
:1002E00088BF30BD11F0004F4FEA01314FF4801C40
:1002F0004CEA113102D0404261EB410113F0004F52
:100300004FEA03334CEA133302D0524263EB430308
:1003100094EA050F00F0A780A4F10104D5F1200EA6
:100320000DDB02FA0EFC22FA05F2801841F1000101
:1003300003FA0EF2801843FA05F359410EE0A5F1D5
:1003400020050EF1200E012A03FA0EFC28BF4CF006
:10035000020C43FA05F3C01851EBE37101F00045BC
:1003600007D54FF0000EDCF1000C7EEB00006EEBC9
:100370000101B1F5801F1BD3B1F5001F0CD3490853
:100380005FEA30004FEA3C0C04F101044FEA4452AA
:1003900012F5800F80F09A80BCF1004F08BF5FEA31
:1003A000500C50F1000041EB045141EA050130BD11
:1003B0005FEA4C0C404141EB010111F4801FA4F1B4
:1003C0000104E9D191F0000F04BF01460020B1FA09
:1003D00081F308BF2033A3F10B03B3F120020CDA41
:1003E0000C3208DD02F1140CC2F10C0201FA0CF01F
:1003F00021FA02F10CE002F11402D8BFC2F1200C84
:1004000001FA02F120FA0CFCDCBF41EA0C01904039
:10041000E41AA2BF01EB0451294330BD6FEA040482
:100420001F3C1CDA0C340EDC04F11404C4F120026D
:1004300020FA04F001FA02F340EA030021FA04F37F
:1004400045EA030130BDC4F10C04C4F1200220FAD6
:1004500002F001FA04F340EA0300294630BD21FA14
:1004600004F0294630BD94F0000F83F4801306BFDA
:1004700081F480110134013D4EE77FEA645C18BFCE
:100480007FEA655C29D094EA050F08BF90EA020F65
:1004900005D054EA000C04BF1946104630BD91EA5D
:1004A000030F1EBF0021002030BD5FEA545C05D160
:1004B0004000494128BF41F0004130BD14F580049F
:1004C0003CBF01F5801130BD01F0004545F0FE4113
:1004D00041F470014FF0000030BD7FEA645C1ABF48
:1004E000194610467FEA655C1CBF0B46024650EA7F
:1004F000013406BF52EA033591EA030F41F40021AB
:1005000030BD00BF90F0000F04BF0021704730B530
:100510004FF4806404F132044FF000054FF0000105
:1005200050E700BF90F0000F04BF0021704730B5C6
:100530004FF4806404F1320410F0004548BF40429B
:100540004FF000013EE700BF42004FEAE2014FEAF0
:1005500031014FEA02701FBF12F07F4393F07F4FCB
:1005600081F06051704792F0000F14BF93F07F4FFD
:10057000704730B54FF4607401F0004521F0004140
:1005800020E700BF50EA010208BF704730B54FF0C6
:1005900000050AE050EA010208BF704730B511F0CB
:1005A000004502D5404261EB41014FF4806404F103
:1005B00032045FEA915C3FF4DCAE4FF003025FEA85
:1005C000DC0C18BF03325FEADC0C18BF033202EB0D
:1005D000DC02C2F1200300FA03FC20FA02F001FA67
:1005E00003FE40EA0E0021FA02F11444C1E600BF06
:1005F00070B54FF0FF0C4CF4E06C1CEA11541DBFB9
:100600001CEA135594EA0C0F95EA0C0F00F0DEF883
:100610002C4481EA030621EA4C5123EA4C5350EA68
:10062000013518BF52EA033541F4801143F48013B9
:1006300038D0A0FB02CE4FF00005E1FB02E506F04A
:100640000042E0FB03E54FF00006E1FB03569CF09F
:10065000000F18BF4EF0010EA4F1FF04B6F5007FA5
:1006600064F5407404D25FEA4E0E6D4146EB060617
:1006700042EAC62141EA55514FEAC52040EA5E50A0
:100680004FEACE2EB4F1FD0C88BFBCF5E06F1ED84A
:10069000BEF1004F08BF5FEA500E50F1000041EB81
:1006A000045170BD06F0004646EA010140EA02002E
:1006B00081EA0301B4EB5C04C2BFD4EB0C0541EA50
:1006C000045170BD41F480114FF0000E013C00F365
:1006D000AB8014F1360FDEBF002001F0004170BD89
:1006E000C4F10004203C35DA0C341BDC04F11404A2
:1006F000C4F1200500FA05F320FA04F001FA05F22E
:1007000040EA020001F0004221F0004110EBD370FA
:1007100021FA04F642EB06015EEA430E08BF20EA26
:10072000D37070BDC4F10C04C4F1200500FA04F3C9
:1007300020FA05F001FA04F240EA020001F000415B
:1007400010EBD37041F100015EEA430E08BF20EACE
:10075000D37070BDC4F1200500FA05F24EEA020E16
:1007600020FA04F301FA05F243EA020321FA04F045
:1007700001F0004121FA04F220EA020000EBD370FC
:100780005EEA430E08BF20EAD37070BD94F0000FFC
:100790000FD101F00046400041EB010111F4801F30
:1007A00008BF013CF7D041EA060195F0000F18BFE1
:1007B000704703F00046520043EB030313F4801F1D
:1007C00008BF013DF7D043EA0603704794EA0C0FD7
:1007D0000CEA135518BF95EA0C0F0CD050EA4106ED
:1007E00018BF52EA4306D1D181EA030101F000416A
:1007F0004FF0000070BD50EA410606BF1046194692
:1008000052EA430619D094EA0C0F02D150EA01369D
:1008100013D195EA0C0F05D152EA03361CBF1046DE
:1008200019460AD181EA030101F0004141F0FE417D
:1008300041F470014FF0000070BD41F0FE4141F401
:10084000780170BD70B54FF0FF0C4CF4E06C1CEA01
:1008500011541DBF1CEA135594EA0C0F95EA0C0FB6
:1008600000F0A7F8A4EB050481EA030E52EA033571
:100870004FEA013100F088804FEA03334FF0805592
:1008800045EA131343EA12634FEA022245EA1115BF
:1008900045EA10654FEA00260EF000419D4208BF70
:1008A000964244F1FD0404F5407402D25B084FEA1D
:1008B0003202B61A65EB03055B084FEA32024FF4C9
:1008C00080104FF4002CB6EB020E75EB030E22BF26
:1008D000B61A754640EA0C005B084FEA3202B6EBE6
:1008E000020E75EB030E22BFB61A754640EA5C0095
:1008F0005B084FEA3202B6EB020E75EB030E22BF25
:10090000B61A754640EA9C005B084FEA3202B6EB25
:10091000020E75EB030E22BFB61A754640EADC00E4
:1009200055EA060E18D04FEA051545EA16754FEA46
:1009300006164FEAC30343EA52734FEAC2025FEA64
:100940001C1CC0D111F4801F0BD141EA00014FF0F3
:1009500000004FF0004CB6E711F4801F04BF0143C4
:100960000020B4F1FD0C88BFBCF5E06F3FF6AFAEE0
:10097000B5EB030C04BFB6EB020C5FEA500C50F170
:10098000000041EB045170BD0EF0004E4EEA1131F3
:1009900014EB5C04C2BFD4EB0C0541EA045170BDFA
:1009A00041F480114FF0000E013C90E645EA060E3E
:1009B0008DE60CEA135594EA0C0F08BF95EA0C0F6C
:1009C0003FF43BAF94EA0C0F0AD150EA01347FF4B4
:1009D00034AF95EA0C0F7FF425AF104619462CE78B
:1009E00095EA0C0F06D152EA03353FF4FDAE1046EE
:1009F000194622E750EA410618BF52EA43067FF43F
:100A0000C5AE50EA41047FF40DAF52EA43057FF4CE
:100A1000EBAE12E74FEA4102B2F1E04324BFB3F577
:100A2000001CDCF1FE5C0DD901F0004C4FEAC00265
:100A30004CEA5070B2F1004F40EB830008BF20F049
:100A40000100704711F0804F21D113F13872BCBF03
:100A500001F00040704741F480114FEA5252C2F158
:100A60001802C2F1200C10FA0CF320FA02F018BFA1
:100A700040F001004FEAC1234FEAD32303FA0CFCF4
:100A800040EA0C0023FA02F34FEA4303CCE77FEA83
:100A9000625307D150EA01331EBF4FF0FE4040F4CD
:100AA0004000704701F0004040F0FE4040F400007C
:100AB000704700BF53B94AB9002908BF00281CBFBE
:100AC0004FF0FF314FF0FF3000F07AB9ADF1080C74
:100AD0006DE904CE00F006F8DDF804E0DDE902235C
:100AE00004B070472DE9F0478C460D460446089E39
:100AF000002B51D18A4217466DD9B2FA82FEBEF15F
:100B0000000F0BD0CEF1200C01FA0EF520FA0CFCF0
:100B100002FA0EF74CEA050C00FA0EF44FEA174AF7
:100B2000250CBCFBFAF81FFA87F90AFB18CC45EA3A
:100B30000C4508FB09F3AB420AD9ED1908F1FF3265
:100B400080F02381AB4240F22081A8F102083D44AD
:100B5000ED1AA4B2B5FBFAF00AFB105544EA0544BD
:100B600000FB09F9A14509D9E41900F1FF3380F030
:100B70000A81A14540F2078102383C44A4EB0904F4
:100B800040EA08400021002E61D024FA0EF4002330
:100B900034607360BDE8F0878B4207D9002E54D0D3
:100BA000002186E821000846BDE8F087B3FA83F10A
:100BB000002940F08E80AB4202D3824200F2FA80DC
:100BC000841A65EB03050120AC46002E3FD086E871
:100BD0001010BDE8F08712B90127B7FBF2F7B7FA9A
:100BE00087FEBEF1000F34D1EB1B3A0C1FFA87FCD5
:100BF0000121B3FBF2F8250C02FB183345EA03454B
:100C00000CFB08F3AB4207D9ED1908F1FF3002D213
:100C1000AB4200F2D1808046ED1AA3B2B5FBF2F0F0
:100C200002FB105543EA05440CFB00FCA44507D920
:100C3000E41900F1FF3302D2A44500F2B88018464F
:100C4000A4EB0C0440EA08409DE731463046BDE87D
:100C5000F087CEF1200405FA0EF307FA0EF720FA1A
:100C600004F83A0C25FA04F448EA0308B4FBF2F15C
:100C70004FEA184502FB11441FFA87FC45EA044578
:100C800001FB0CF3AB4200FA0EF409D9ED1901F1A6
:100C9000FF3080F08A80AB4240F2878002393D44C9
:100CA000EB1A1FFA88F5B3FBF2F002FB103345EAAA
:100CB000034500FB0CF3AB4207D9ED1900F1FF38F7
:100CC0006FD2AB426DD902383D44EB1A40EA014184
:100CD0008FE7C1F1200722FA07F88B4005FA01F4EB
:100CE00048EA030320FA07FE4FEA134CFD404EEAA0
:100CF000040EB5FBFCF94FEA1E440CFB19551FFA14
:100D000083F844EA054509FB08F4AC4202FA01F213
:100D100000FA01FA08D9ED1809F1FF3043D2AC42CC
:100D200041D9A9F102091D442D1B1FFA8EFEB5FB06
:100D3000FCF00CFB10554EEA054400FB08F8A045FA
:100D400007D9E41800F1FF3529D2A04527D9023888
:100D50001C4440EA0940A4EB0804A0FB02894C456E
:100D6000C6464D4615D312D056B1BAEB0E0364EB0E
:100D7000050404FA07F7CB401F43CC40376074608A
:100D80000021BDE8F0871846F8E69046E0E6C24547
:100D9000EAD2B8EB020E69EB03050138E4E7284616
:100DA000D7E7404691E78146BEE7014678E702383B
:100DB0003C4445E7084608E7A8F102083D442BE714
:100DC000704700BF80B500AF0E4A0E4B1B6843F45E
:100DD000007313600B4A0B4B1B6843F48063136072
:100DE000084A084B1B6843F480731360032000F02B
:100DF0004BF9002000F008F80AF082F800231846AA
:100E000080BD00BF003C024080B582B000AF78607A
:100E1000124B1A68124B1B7819464FF47A73B3FBC6
:100E2000F1F3B2FBF3F3184600F063F90346002B2D
:100E300001D001230EE07B680F2B0AD800227968CD
:100E40004FF0FF3000F02BF9064A7B681360002357
:100E500000E0012318460837BD4680BD6800002029
:100E6000040000200000002080B400AF064B1B7877
:100E70001A46064B1B681344044A136000BFBD4664
:100E80005DF8047B704700BF0400002020010020B3
:100E900080B400AF034B1B681846BD465DF8047B69
:100EA000704700BF2001002080B584B000AF78609B
:100EB000FFF7EEFFB8607B68FB60FB68B3F1FF3FB4
:100EC00005D0094B1B781A46FB681344FB6000BF32
:100ED000FFF7DEFF0246BB68D21AFB689A42F7D3DF
:100EE00000BF1037BD4680BD0400002080B485B02F
:100EF00000AF78607B6803F00703FB600C4BDB6896
:100F0000BB60BA684FF6FF031340BB60FB681A0270
:100F1000BB68134343F0BF6343F40033BB60044A30
:100F2000BB68D36000BF1437BD465DF8047B7047D3
:100F300000ED00E080B400AF044BDB681B0A03F057
:100F400007031846BD465DF8047B704700ED00E0DE
:100F500080B483B000AF0346FB7197F90730002BD4
:100F60000BDB094997F907305B09FA7902F01F0298
:100F7000012000FA02F241F8232000BF0C37BD46E1
:100F80005DF8047B704700BF00E100E080B483B0EF
:100F900000AF03463960FB7197F90730002B0ADB7D
:100FA0000D4997F907303A68D2B21201D2B20B4418
:100FB00083F800230AE00949FB7903F00F03043B9F
:100FC0003A68D2B21201D2B20B441A7600BF0C3783
:100FD000BD465DF8047B704700E100E000ED00E0F5
:100FE00080B489B000AFF860B9607A60FB6803F044
:100FF0000703FB61FB69C3F10703042B28BF04232C
:10100000BB61FB690433062B02D9FB69033B00E09B
:1010100000237B610122BB6902FA03F35A1EBB68FD
:101020001A407B699A4001217B6901FA03F3591E3A
:101030007B680B40134318462437BD465DF8047B9C
:101040007047000080B582B000AF78607B68013BDC
:10105000B3F1807F01D301230FE00A4A7B68013B93
:1010600053600F214FF0FF30FFF790FF054B002238
:101070009A60044B07221A60002318460837BD46C1
:1010800080BD00BF10E000E080B582B000AF7860A6
:101090007868FFF72BFF00BF0837BD4680BD80B5DD
:1010A00086B000AF0346B9607A60FB7300237B61B2
:1010B000FFF740FF78617A68B9687869FFF790FFB9
:1010C000024697F90F3011461846FFF75FFF00BF41
:1010D0001837BD4680BD80B582B000AF0346FB71B6
:1010E00097F907301846FFF733FF00BF0837BD46B2
:1010F00080BD80B582B000AF78607868FFF7A2FF4E
:10110000034618460837BD4680BD000080B586B04E
:1011100000AF786000237B61FFF7BAFE38617B681F
:10112000002B01D1012399E07B68002283F8342051
:101130007B68022283F835207B681B687A68126816
:10114000126822F001021A600FE0FFF7A1FE0246CA
:101150003B69D31A052B08D97B6820225A657B6826
:10116000032283F83520032378E07B681B681B6823
:1011700003F00103002BE8D17B681B681B687B61CF
:101180007A69384B13407B617B685A687B689B683F
:101190001A437B68DB681A437B681B691A437B68C8
:1011A0005B691A437B689B691A437B68DB691A4356
:1011B0007B681B6A13437A6913437B617B685B6AB4
:1011C000042B07D17B68DA6A7B681B6B13437A694F
:1011D00013437B617B681B687A691A607B681B68B4
:1011E0005B697B617B6923F007037B617B685B6ADA
:1011F0007A6913437B617B685B6A042B17D17B6838
:101200009B6A7A6913437B617B68DB6A002B0ED093
:10121000786800F099FA0346002B08D07B684022DA
:101220005A657B68012283F83520012316E07B682C
:101230001B687A695A61786800F050FA0346FB60CF
:101240007B68DB6D3F229A40FB689A607B680022D6
:101250005A657B68012283F8352000231846183729
:10126000BD4680BD3F8010F080B586B000AFF8600D
:10127000B9607A603B600023FB75FB689B6D3B6146
:10128000FB6893F83430012B01D1022348E0FB685E
:10129000012283F83420FB6893F83530DBB2012B50
:1012A00037D1FB68022283F83520FB6800225A659B
:1012B0003B687A68B968F86800F0E2F9FB68DB6DB2
:1012C0003F229A403B699A60FB681B68FA68126883
:1012D000126842F016021A60FB681B68FA6812680E
:1012E000526942F080025A61FB681B6C002B07D0E8
:1012F000FB681B68FA681268126842F008021A60FC
:10130000FB681B68FA681268126842F001021A60F2
:1013100005E0FB68002283F834200223FB75FB7D87
:1013200018461837BD4680BD80B483B000AF7860E2
:101330007B6893F83530DBB2022B04D07B688022C7
:101340005A6501230CE07B68052283F835207B6811
:101350001B687A681268126822F001021A60002382
:1013600018460C37BD465DF8047B704780B586B0E3
:1013700000AF78600023BB60924B1B68924AA2FBCF
:1013800003239B0A7B617B689B6D3B613B691B6808
:10139000FB607B68DB6D08229A40FB681340002BE2
:1013A0001AD07B681B681B6803F00403002B13D062
:1013B0007B681B687A681268126822F004021A605F
:1013C0007B68DB6D08229A403B699A607B685B6DA5
:1013D00043F001027B685A657B68DB6D01229A400D
:1013E000FB681340002B12D07B681B685B6903F01D
:1013F0008003002B0BD07B68DB6D01229A403B6998
:101400009A607B685B6D43F002027B685A657B687B
:10141000DB6D04229A40FB681340002B12D07B68DE
:101420001B681B6803F00203002B0BD07B68DB6D8D
:1014300004229A403B699A607B685B6D43F004022A
:101440007B685A657B68DB6D10229A40FB6813400D
:10145000002B43D07B681B681B6803F00803002B3C
:101460003CD07B68DB6D10229A403B699A607B68B8
:101470001B681B6803F48023002B18D07B681B6853
:101480001B6803F40023002B08D17B681B6C002B26
:1014900024D07B681B6C786898471FE07B689B6C46
:1014A000002B1BD07B689B6C7868984716E07B68A4
:1014B0001B681B6803F48073002B07D17B681B68D3
:1014C0007A681268126822F008021A607B681B6C46
:1014D000002B03D07B681B6C786898477B68DB6DBA
:1014E00020229A40FB681340002B00F08E807B681E
:1014F0001B681B6803F01003002B00F086807B68DC
:10150000DB6D20229A403B699A607B6893F8353006
:10151000DBB2052B36D17B681B687A6812681268CB
:1015200022F016021A607B681B687A68126852699A
:1015300022F080025A617B681B6C002B03D17B6810
:101540009B6C002B07D07B681B687A681268126856
:1015500022F008021A607B68DB6D3F229A403B69EB
:101560009A607B68002283F834207B68012283F82C
:1015700035207B681B6D002B7DD07B681B6D7868E8
:10158000984778E07B681B681B6803F48023002B76
:101590001CD07B681B681B6803F40023002B08D158
:1015A0007B685B6C002B30D07B685B6C78689847FD
:1015B0002BE07B68DB6B002B27D07B68DB6B7868CC
:1015C000984722E068000020B5814E1B7B681B68AD
:1015D0001B6803F48073002B0FD17B681B687A684B
:1015E0001268126822F010021A607B68002283F8E9
:1015F00034207B68012283F835207B68DB6B002B6D
:1016000003D07B68DB6B786898477B685B6D002B49
:1016100032D07B685B6D03F00103002B22D07B6826
:10162000052283F835207B681B687A681268126887
:1016300022F001021A60BB680133BB607A699342F1
:1016400007D87B681B681B6803F00103002BF2D1ED
:1016500000E000BF7B68002283F834207B68012211
:1016600083F835207B68DB6C002B05D07B68DB6C56
:101670007868984700E000BF1837BD4680BD00BFBE
:1016800080B485B000AFF860B9607A603B60FB68F9
:101690001B68FA681268126822F480221A60FB68DC
:1016A0001B683A685A60FB689B68402B08D1FB684E
:1016B0001B687A689A60FB681B68BA68DA6007E0A2
:1016C000FB681B68BA689A60FB681B687A68DA6016
:1016D00000BF1437BD465DF8047B704780B485B009
:1016E00000AF78607B681B68DBB2103B144AA2FB3A
:1016F00003231B09FB60134AFB6813441B781A463B
:101700007B68DA65FB68032B09D97B681B6823F4C7
:101710007F7323F003031A1D7B689A6507E07B68DB
:101720001B6823F47F7323F003037A6893657B6857
:101730009B6D18461437BD465DF8047B704700BFAB
:10174000ABAAAAAA48C6000880B485B000AF7860EA
:101750000023FB737B689B6ABB607B689B69002BE3
:101760001FD1BB68032B55D801A252F823F000BF4C
:101770008117000893170008811700081518000842
:101780007B68DB6A03F08073002B45D00123FB7379
:1017900042E07B68DB6AB3F1C07F3FD10123FB737A
:1017A0003CE07B689B69B3F5005F21D1BB68032BEC
:1017B00036D801A252F823F0C9170008CF17000845
:1017C000C9170008E11700080123FB732FE07B68AD
:1017D000DB6A03F08073002B24D00123FB7321E02C
:1017E0007B68DB6AB3F1C07F1ED10123FB731BE072
:1017F000BB68022B02D9032B03D018E00123FB7333
:1018000015E07B68DB6A03F08073002B0ED00123A8
:10181000FB730BE000BF0AE000BF08E000BF06E07A
:1018200000BF04E000BF02E000BF00E000BFFB7BA0
:1018300018461437BD465DF8047B704780B586B006
:1018400000AFF860B960C7E900230123FB75234BA3
:101850001B7E012B01D102233BE0204B01221A7693
:101860004CF2503000F070F80346FB75FB7D002B06
:101870002BD1FB68002B05D13B781946B86800F0E6
:1018800015F916E0FB68012B05D13B881946B868AD
:1018900000F0E8F80DE0FB68022B05D13B68194623
:1018A000B86800F0BDF804E0D7E90023B86800F09C
:1018B0008BF84CF2503000F047F80346FB75084AAD
:1018C000074B1B6923F001031361044B00221A76B6
:1018D000FB7D18461837BD4680BD00BF240100209F
:1018E000003C024080B483B000AF0023FB710B4B7F
:1018F0001B69002B0BDA094B094A5A60074B094A4E
:101900005A60064B1B69002B01DA0123FB71FB793E
:1019100018460C37BD465DF8047B7047003C02401A
:1019200023016745AB89EFCD80B400AF054A054B75
:101930001B6943F00043136100231846BD465DF860
:10194000047B7047003C024080B584B000AF7860F3
:101950000023FB601A4B0022DA61FFF799FAF86066
:1019600010E07B68B3F1FF3F0CD07B68002B07D001
:10197000FFF78EFA0246FB68D21A7B689A4201D9B9
:10198000032319E00F4BDB6803F48033002BE8D10D
:101990000C4BDB6803F00103002B02D0094B012242
:1019A000DA60084BDB6803F4F973002B03D000F016
:1019B0009FF8012300E0002318461037BD4680BD84
:1019C00024010020003C0240F0B484B000AFF86075
:1019D000C7E90023114A114B1B6923F440731361BB
:1019E0000E4A0E4B1B6943F4407313610B4A0B4BB9
:1019F0001B6943F001031361FB683A681A60FB68D6
:101A000004331A4697E81800250000262B46136079
:101A100000BF1037BD46F0BC704700BF003C02401D
:101A200080B483B000AF786039600D4A0C4B1B69FD
:101A300023F4407313610A4A094B1B6943F4007392
:101A40001361074A064B1B6943F0010313617B686E
:101A50003A681A6000BF0C37BD465DF8047B7047DA
:101A6000003C024080B483B000AF78600B467B80BE
:101A70000D4A0D4B1B6923F4407313610A4A0A4B4C
:101A80001B6943F480731361074A074B1B6943F0DA
:101A9000010313617B687A881A8000BF0C37BD464A
:101AA0005DF8047B704700BF003C024080B483B007
:101AB00000AF78600B46FB700C4A0C4B1B6923F49B
:101AC00040731361094A094B1B691361074A074BAD
:101AD0001B6943F0010313617B68FA781A7000BF39
:101AE0000C37BD465DF8047B704700BF003C0240E8
:101AF00080B400AF2F4BDB6803F01003002B08D03D
:101B00002D4BDB6943F010032B4AD361294B102284
:101B1000DA60284BDB6803F02003002B08D0264B4B
:101B2000DB6943F00803244AD361224B2022DA60A8
:101B3000204BDB6803F04003002B08D01E4BDB6911
:101B400043F004031C4AD3611A4B4022DA60194B5C
:101B5000DB6803F08003002B08D0174BDB6943F0F0
:101B60000203154AD361134B8022DA60114BDB6804
:101B700003F48073002B09D00F4BDB6943F00103A2
:101B80000D4AD3610B4B4FF48072DA60094BDB686E
:101B900003F00203002B08D0074BDB6943F020035E
:101BA000054AD361034B0222DA6000BFBD465DF8EF
:101BB000047B7047003C02402401002080B485B0C3
:101BC00000AF78600B46FB700023FB60FB78002BB6
:101BD00002D10023FB6010E0FB78012B03D14FF40E
:101BE0008073FB6009E0FB78022B03D14FF4007394
:101BF000FB6002E04FF44073FB60134A124B1B6919
:101C000023F44073136110490F4B1A69FB681343A7
:101C10000B610D4A0C4B1B6923F0F80313610A4951
:101C2000094B1A697B68DB00134343F002030B6125
:101C3000054A054B1B6943F48033136100BF143719
:101C4000BD465DF8047B7047003C024080B489B01B
:101C500000AF7860396000237B6100233B61002383
:101C6000BB610023FB6159E10122FB6902FA03F326
:101C70007B613B681A687B6913403B613A697B6909
:101C80009A4240F048813B685B68022B03D03B6876
:101C90005B68122B23D1FB69DA087B68083253F8A2
:101CA0002230BB61FB6903F007039B000F2202FA9D
:101CB00003F3DB43BA691340BB613B681A69FB69F4
:101CC00003F007039B0002FA03F3BA691343BB61F5
:101CD000FB69DA087B680832B96943F822107B682F
:101CE0001B68BB61FB695B00032202FA03F3DB4361
:101CF000BA691340BB613B685B6803F00302FB6990
:101D00005B0002FA03F3BA691343BB617B68BA69EB
:101D10001A603B685B68012B0BD03B685B68022B49
:101D200007D03B685B68112B03D03B685B68122BC4
:101D300030D17B689B68BB61FB695B00032202FAC0
:101D400003F3DB43BA691340BB613B68DA68FB69A4
:101D50005B0002FA03F3BA691343BB617B68BA699B
:101D60009A607B685B68BB610122FB6902FA03F33E
:101D7000DB43BA691340BB613B685B681B0903F036
:101D80000102FB6902FA03F3BA691343BB617B6882
:101D9000BA695A607B68DB68BB61FB695B00032240
:101DA00002FA03F3DB43BA691340BB613B689A68EC
:101DB000FB695B0002FA03F3BA691343BB617B68FA
:101DC000BA69DA603B685B6803F08053002B00F06F
:101DD000A2800023FB60564A554B5B6C43F4804362
:101DE0005364534B5B6C03F48043FB60FB68514AC4
:101DF000FB699B08023352F82330BB61FB6903F097
:101E000003039B000F2202FA03F3DB43BA6913407A
:101E1000BB617B68484A934219D07B68474A93422A
:101E200013D07B68464A93420DD07B68454A934263
:101E300007D07B68444A934201D1042308E007237A
:101E400006E0032304E0022302E0012300E0002374
:101E5000FA6902F0030292009340BA691343BB612E
:101E60003449FB699B080233BA6941F82320374B98
:101E70001B68BB613B69DB43BA691340BB613B68CC
:101E80005B6803F48033002B03D0BA693B691343CA
:101E9000BB612E4ABB6913602C4B5B68BB613B691D
:101EA000DB43BA691340BB613B685B6803F40033F2
:101EB000002B03D0BA693B691343BB61234ABB695A
:101EC0005360224B9B68BB613B69DB43BA6913409B
:101ED000BB613B685B6803F48013002B03D0BA69D5
:101EE0003B691343BB61194ABB699360174BDB68BD
:101EF000BB613B69DB43BA691340BB613B685B680C
:101F000003F40013002B03D0BA693B691343BB6190
:101F10000E4ABB69D360FB690133FB61FB690F2B80
:101F20007FF6A2AE00BF2437BD465DF8047B704744
:101F30000038024000380140000002400004024026
:101F400000080240000C024000100240003C01402A
:101F500080B485B000AF78600B467B807B681A69DF
:101F60007B881340002B02D00123FB7301E0002388
:101F7000FB73FB7B18461437BD465DF8047B704746
:101F800080B483B000AF78600B467B8013467B70D3
:101F90007B78002B03D07A887B689A6103E07B888A
:101FA0001A047B689A6100BF0C37BD465DF8047B5C
:101FB000704780B483B000AF78600B467B807B684D
:101FC0005A697B881A407B889A4204D17B881A041C
:101FD0007B689A6102E07A887B689A6100BF0C375F
:101FE000BD465DF8047B7047F0B58FB00AAF7860EE
:101FF0007B68002B01D1012354E07B681B68FB60E8
:102000007B6893F8B932DBB2002B06D17B680022E3
:1020100083F8B822786809F085FB7B68032283F88F
:10202000B922FB68DB6B03F48073002B02D17B6861
:1020300000221A617B681B68184604F0CCF87B68A4
:102040001B683B607E686D4606F110040FCC0FC51F
:102050000FCC0FC594E8030085E80300331D0ECBB9
:10206000386804F046F87B681B680121184604F0C4
:10207000C3F87B681B683B607E686D4606F1100400
:102080000FCC0FC50FCC0FC594E8030085E8030003
:10209000331D0ECB386804F0D5F97B68012283F834
:1020A000B922002318461437BD46F0BD90B589B05B
:1020B00004AF7860084611461A460346FB700B468B
:1020C000BB7013467B707B6893F8B832012B01D14B
:1020D00002237FE07B68012283F8B822FA787968CE
:1020E00013469B001344DB000B443D3300221A705F
:1020F000FA78796813469B001344DB000B443833AD
:102100007A781A70FA78796813469B001344DB00DA
:102110000B4440333A8D1A80FA78796813469B0055
:102120001344DB000B443933FA781A70FA78796873
:1021300013469B001344DB000B443F3397F82420E5
:102140001A70FA78BB7803F07F03D8B27968134627
:102150009B001344DB000B443A3302461A7097F994
:102160000230002B0ADAFA78796813469B00134490
:10217000DB000B443B3301221A7009E0FA787968DE
:1021800013469B001344DB000B443B3300221A70C0
:10219000FA78796813469B001344DB000B443C3308
:1021A00097F820201A707B6818687C78BA78F978DC
:1021B0003B8D029397F82430019397F820300093D9
:1021C000234604F0C9FA0346FB737B68002283F8B8
:1021D000B822FB7B18461437BD4690BD80B584B04D
:1021E00000AF78600B46FB700023FB737B6893F8AD
:1021F000B832012B01D102230FE07B68012283F862
:10220000B8227B681B68FA781146184604F00FFD67
:102210007B68002283F8B822FB7B18461037BD4646
:1022200080BD000080B582B000AF786008461146DE
:102230001A460346FB700B46BB7013467B70FA7858
:10224000796813469B001344DB000B443B33BA7898
:102250001A70FA78796813469B001344DB000B442C
:102260003F337A781A703B7C002B0AD1FA78796870
:1022700013469B001344DB000B44423303221A70C5
:1022800009E0FA78796813469B001344DB000B449D
:10229000423302221A707B78032B00F2D68001A20F
:1022A00052F823F0B5220008352400082123000845
:1022B000AB2300083B7C012B40F0C980BB78002B8E
:1022C00040F0C5803B8B002B09D1FA787968134622
:1022D0009B001344DB000B44513301221A70FA783F
:1022E000796813469B001344DB000B4451331B7881
:1022F000002B0AD1FA78796813469B001344DB005F
:102300000B44423300221A70A1E0FA787968134630
:102310009B001344DB000B44423302221A7096E008
:10232000BB78002B20D1FA78796813469B001344C0
:10233000DB000B4451331B78002B0AD1FA78796803
:1023400013469B001344DB000B44423300221A70F7
:102350007EE0FA78796813469B001344DB000B4457
:10236000423302221A7073E0FA78796813469B00B0
:102370001344DB000B4450331B78002B0AD1FA784E
:10238000796813469B001344DB000B444233002260
:102390001A705DE0FA78796813469B001344DB00FD
:1023A0000B44423302221A7052E0BB78002B20D13A
:1023B000FA78796813469B001344DB000B445133D1
:1023C0001B78002B0AD1FA78796813469B001344D6
:1023D000DB000B44423300221A7039E0FA78796846
:1023E00013469B001344DB000B44423302221A7055
:1023F0002EE0FA78796813469B001344DB000B4407
:1024000050331B78002B0AD1FA78796813469B0069
:102410001344DB000B44423300221A7018E0FA78B0
:10242000796813469B001344DB000B4442330222BD
:102430001A700DE0FA78796813469B001344DB00AC
:102440000B44423300221A7002E000BF00E000BFDC
:10245000FA78796813469B001344DB000B4444333D
:102460007A691A60FA78398B786813469B001344AE
:10247000DB00034448331960FA78796813469B00FF
:102480001344DB000B445C3300221A70FA7879683D
:1024900013469B001344DB000B444C3300221A60AC
:1024A000FA78796813469B001344DB000B443933F8
:1024B000FA781A70FA78796813469B001344DB00A7
:1024C0000B445D3300221A707B681868FA78134653
:1024D0009B001344DB0038337A68D1187B681B6992
:1024E000DBB21A4604F04AFA034618460837BD46DE
:1024F00080BD00BF80B586B000AF78607B681B6888
:102500003B613B69FB607B681B68184603F057FF23
:102510000346012B40F0F2807B681B68184603F0ED
:102520003BFF0346002B00F0E8807B681B681846E1
:1025300003F032FF034603F40013B3F5001F04D188
:102540007B681B684FF400125A617B681B68184651
:1025500003F022FF034603F48013B3F5801F04D178
:102560007B681B684FF480125A617B681B681846B1
:1025700003F012FF034603F08063B3F1806F04D1D0
:102580007B681B684FF080625A617B681B68184645
:1025900003F002FF034603F00203022B03D17B6822
:1025A0001B6802225A617B681B68184603F0F4FE20
:1025B000034603F00053B3F1005F18D1FB6803F545
:1025C00088631A46FB6803F588631B6823F02E03B3
:1025D0001360786809F024F97B681B6801211846AC
:1025E00003F0EEFF7B681B684FF000525A617B6876
:1025F0001B68184603F0D0FE034603F08073B3F166
:10260000807F02D1786801F0DDF87B681B6818468E
:1026100003F0C2FE034603F00803082B06D17868D6
:1026200009F0E2F87B681B6808225A617B681B6826
:10263000184603F0B1FE034603F00073B3F1007FC8
:1026400038D17B681B68184604F0E0FAB8600023B4
:102650007B6125E07B6903F00F03BA6822FA03F37C
:1026600003F00103002B18D07B695A01FB68134467
:1026700003F5A0631B6803F40043B3F5004F06D1D4
:102680007B69DBB21946786800F0CFF805E07B691A
:10269000DBB21946786800F069FC7B6901337B6125
:1026A0007B689A687B699A42D4D87B681B684FF034
:1026B00000725A617B681B68184603F06DFE034682
:1026C00003F01003102B01D1012300E00023002BA5
:1026D00014D07B681B687A681268926922F0100235
:1026E0009A61786800F0C2FF7B681B687A6812689C
:1026F000926942F010029A6100E000BF1837BD46AF
:1027000080BD80B582B000AF78607B6893F8B83246
:10271000012B01D1022313E07B68012283F8B82248
:102720007B681B68184603F045FD7B681B68012128
:10273000184603F0ADFF7B68002283F8B82200231F
:1027400018460837BD4680BD80B582B000AF7860BE
:102750007B6893F8B832012B01D102230DE07B682E
:10276000012283F8B8227B681B68184604F0A4FB9A
:102770007B68002283F8B822002318460837BD463C
:1027800080BD80B582B000AF78607B681B6818465A
:1027900003F052FF034618460837BD4680BD80B49B
:1027A00083B000AF78600B46FB70FA787968134607
:1027B0009B001344DB000B445C331B7818460C373A
:1027C000BD465DF8047B704780B483B000AF78608D
:1027D0000B46FB70FA78796813469B001344DB00C4
:1027E0000B444C331B6818460C37BD465DF8047B20
:1027F000704780B582B000AF78607B681B68184670
:1028000003F098FF034618460837BD4680BD80B5E3
:1028100082B000AF78607B681B68184603F073FFD6
:10282000034618460837BD4680BD80B586B000AF68
:1028300078600B46FB707B681B687B617B693B6142
:10284000FB78FB60FB685A013B69134403F5A06306
:102850009B6803F00403042B1AD1FB685A013B69FF
:10286000134403F5A0631A4604239360FB685A01DE
:102870003B69134403F5A0631946FB685A013B69A1
:10288000134403F5A063DB6843F00203CB6097E0D9
:10289000FB685A013B69134403F5A0639B6803F08E
:1028A0002003202B09D1FB685A013B69134403F52F
:1028B000A0631A462023936082E0FB685A013B69BB
:1028C000134403F5A0639B6803F00803082B35D17C
:1028D000FB685A013B69134403F5A0631946FB6882
:1028E0005A013B69134403F5A063DB6843F002031C
:1028F000CB607968FA6813469B001344DB000B44F5
:102900005D3305221A70FB685A013B69134403F5D5
:10291000A0631A4610239360FB685A013B69134475
:1029200003F5A0631A46082393607B681B68FA6866
:10293000D2B21146184604F07AF941E0FB685A0118
:102940003B69134403F5A0639B6803F48063B3F50C
:10295000806F35D1FB685A013B69134403F5A063CE
:102960001946FB685A013B69134403F5A063DB6811
:1029700043F00203CB607B681B68FA68D2B2114651
:10298000184604F054F9FB685A013B69134403F5F7
:10299000A0631A46102393607968FA6813469B0077
:1029A0001344DB000B445D3308221A70FB685A01A4
:1029B0003B69134403F5A0631A464FF480639360A8
:1029C000FB685A013B69134403F5A0639B6803F459
:1029D0000073B3F5007F23D1FB685A013B691344B0
:1029E00003F5A0631946FB685A013B69134403F5DC
:1029F000A063DB6843F00203CB607B681B68FA6866
:102A0000D2B21146184604F012F9FB685A013B692C
:102A1000134403F5A0631A464FF400739360A1E2D8
:102A2000FB685A013B69134403F5A0639B6803F0FC
:102A30000103012B40F0C3807B681B69002B1BD076
:102A40007968FA6813469B001344DB000B44483353
:102A50001A68FB6859013B690B4403F5A0631B69C5
:102A6000C3F31203D11A7868FA6813469B00134423
:102A7000DB0003444C3319607968FA6813469B0005
:102A80001344DB000B445D3301221A707968FA6845
:102A900013469B001344DB000B44583300221A609A
:102AA000FB685A013B69134403F5A0631A460123EE
:102AB00093607968FA6813469B001344DB000B446B
:102AC0003F331B78002B0AD07968FA6813469B00C5
:102AD0001344DB000B443F331B78022B22D1FB68ED
:102AE0005A013B69134403F5A0631946FB685A0178
:102AF0003B69134403F5A063DB6843F00203CB603A
:102B00007B681B68FA68D2B21146184604F08FF849
:102B1000FB685A013B69134403F5A0631A4610236E
:102B2000936035E07968FA6813469B001344DB0034
:102B30000B443F331B78032B2AD1FB685A013B69B6
:102B4000134403F5A0631946FB685A013B6913441B
:102B500003F5A0631B6843F000530B607968FA68C3
:102B600013469B001344DB000B445C3301221A70B4
:102B7000FB68D8B27968FA6813469B001344DB00FF
:102B80000B445C331B781A460146786808F056FE01
:102B90007968FA6813469B001344DB000B445033FA
:102BA0001B7883F00103D8B27968FA6813469B005A
:102BB0001344DB000B44503302461A70D2E1FB6829
:102BC0005A013B69134403F5A0639B6803F00203B9
:102BD000022B40F0F280FB685A013B69134403F575
:102BE000A0631946FB685A013B69134403F5A063CF
:102BF000DB6823F00203CB607968FA6813469B0018
:102C00001344DB000B445D331B78012B0AD1796838
:102C1000FA6813469B001344DB000B445C3301222B
:102C20001A70B0E07968FA6813469B001344DB0021
:102C30000B445D331B78052B0AD17968FA6813467B
:102C40009B001344DB000B445C3305221A709AE0AE
:102C50007968FA6813469B001344DB000B445D332C
:102C60001B78062B0AD07968FA6813469B00134438
:102C7000DB000B445D331B78082B56D17968FA686A
:102C800013469B001344DB000B4458331B68591C4C
:102C90007868FA6813469B001344DB0003445833FA
:102CA00019607968FA6813469B001344DB000B44F3
:102CB00058331B68032B14D97968FA6813469B00B4
:102CC0001344DB000B44583300221A607968FA6819
:102CD00013469B001344DB000B445C3304221A7040
:102CE00009E07968FA6813469B001344DB000B4443
:102CF0005C3302221A70FB685A013B69134403F5E6
:102D0000A0631B68BB60BB6823F08043BB60BB68EB
:102D100043F00043BB60FB685A013B69134403F571
:102D2000A0631A46BB6813602DE07968FA68134601
:102D30009B001344DB000B445D331B78032B22D133
:102D40007968FA6813469B001344DB000B445C333C
:102D500002221A70FB685A013B69134403F5A06311
:102D60001B68BB60BB6823F08043BB60BB6843F05B
:102D70000043BB60FB685A013B69134403F5A06341
:102D80001A46BB681360FB685A013B69134403F59C
:102D9000A0631A4602239360FB68D8B27968FA6888
:102DA00013469B001344DB000B445C331B781A462C
:102DB0000146786808F042FDD4E0FB685A013B699F
:102DC000134403F5A0639B6803F08003802B3FD17D
:102DD000FB685A013B69134403F5A0631946FB687D
:102DE0005A013B69134403F5A063DB6843F0020317
:102DF000CB607968FA6813469B001344DB000B44F0
:102E000058331B68591C7868FA6813469B001344B2
:102E1000DB000344583319607968FA6813469B0055
:102E20001344DB000B445D3306221A707B681B6879
:102E3000FA68D2B21146184603F0F9FEFB685A014F
:102E40003B69134403F5A0631A468023936089E02D
:102E5000FB685A013B69134403F5A0639B6803F0C8
:102E60001003102B7ED17968FA6813469B00134437
:102E7000DB000B443F331B78032B23D17968FA68BE
:102E800013469B001344DB000B44583300221A60A6
:102E9000FB685A013B69134403F5A0631946FB68BC
:102EA0005A013B69134403F5A063DB6843F0020356
:102EB000CB607B681B68FA68D2B21146184603F0F3
:102EC000B6FE46E07968FA6813469B001344DB00BF
:102ED0000B443F331B78002B0AD07968FA681346FD
:102EE0009B001344DB000B443F331B78022B30D193
:102EF0007968FA6813469B001344DB000B4458338F
:102F000000221A607B681B69002B22D17968FA685D
:102F100013469B001344DB000B445D3303221A70FD
:102F2000FB685A013B69134403F5A0631946FB682B
:102F30005A013B69134403F5A063DB6843F00203C5
:102F4000CB607B681B68FA68D2B21146184603F062
:102F50006EFEFB685A013B69134403F5A0631A46F1
:102F60001023936000BF1837BD4680BD80B586B082
:102F700000AF78600B46FB707B681B687B617B69E8
:102F80003B61FB78FB60FB685A013B69134403F526
:102F9000A0639B6803F00403042B1AD1FB685A0159
:102FA0003B69134403F5A0631A4604239360FB684E
:102FB0005A013B69134403F5A0631946FB685A01A3
:102FC0003B69134403F5A063DB6843F00203CB6065
:102FD00047E3FB685A013B69134403F5A0639B6810
:102FE00003F02003202B42D1FB685A013B691344B4
:102FF00003F5A0631A46202393607968FA681346A4
:103000009B001344DB000B443D331B78012B40F045
:1030100028837968FA6813469B001344DB000B444D
:103020003D3300221A707968FA6813469B001344F6
:10303000DB000B445C3302221A70FB685A013B69C7
:10304000134403F5A0631946FB685A013B69134416
:1030500003F5A063DB6843F00203CB607B681B6869
:10306000FA68D2B21146184603F0E1FDF9E2FB68B6
:103070005A013B69134403F5A0639B6803F04003C6
:10308000402B40D17968FA6813469B001344DB005B
:103090000B445D3304221A707968FA6813469B006A
:1030A0001344DB000B443D3301221A707968FA683F
:1030B00013469B001344DB000B44583300221A6074
:1030C000FB685A013B69134403F5A0631946FB688A
:1030D0005A013B69134403F5A063DB6843F0020324
:1030E000CB607B681B68FA68D2B21146184603F0C1
:1030F0009EFDFB685A013B69134403F5A0631A4621
:1031000040239360ADE2FB685A013B69134403F529
:10311000A0639B6803F40073B3F5007F23D1FB68C1
:103120005A013B69134403F5A0631946FB685A0131
:103130003B69134403F5A063DB6843F00203CB60F3
:103140007B681B68FA68D2B21146184603F06FFD1F
:10315000FB685A013B69134403F5A0631A464FF418
:10316000007393607DE2FB685A013B69134403F5E9
:10317000A0639B6803F00103012B36D17968FA68DC
:1031800013469B001344DB000B44583300221A60A3
:10319000FB685A013B69134403F5A0631946FB68B9
:1031A0005A013B69134403F5A063DB6843F0020353
:1031B000CB607B681B68FA68D2B21146184603F0F0
:1031C00036FDFB685A013B69134403F5A0631A46B8
:1031D000012393607968FA6813469B001344DB006F
:1031E0000B445D3301221A703BE2FB685A013B69D4
:1031F000134403F5A0639B6803F00803082B2CD14C
:10320000FB685A013B69134403F5A0631A4608237F
:103210009360FB685A013B69134403F5A0631946A8
:10322000FB685A013B69134403F5A063DB6843F074
:103230000203CB607B681B68FA68D2B2114618465D
:1032400003F0F5FC7968FA6813469B001344DB0031
:103250000B445D3305221A7003E2FB685A013B6997
:10326000134403F5A0639B6803F01003102B56D1A1
:103270007968FA6813469B001344DB000B4458330B
:1032800000221A607968FA6813469B001344DB0039
:103290000B445D3303221A707968FA6813469B0069
:1032A0001344DB000B443D331B78002B14D17968A9
:1032B000FA6813469B001344DB000B443C331B7835
:1032C000002B09D17968FA6813469B001344DB0090
:1032D0000B443D3301221A70FB685A013B691344C9
:1032E00003F5A0631946FB685A013B69134403F5D3
:1032F000A063DB6843F00203CB607B681B68FA685D
:10330000D2B21146184603F092FCFB685A013B69A1
:10331000134403F5A0631A4610239360A1E1FB68F0
:103320005A013B69134403F5A0639B6803F08003D3
:10333000802B2CD1FB685A013B69134403F5A06331
:103340001946FB685A013B69134403F5A063DB6827
:1033500043F00203CB607B681B68FA68D2B2114667
:10336000184603F064FC7968FA6813469B0013441E
:10337000DB000B445D3306221A70FB685A013B697F
:10338000134403F5A0631A468023936069E1FB6848
:103390005A013B69134403F5A0639B6803F48063FF
:1033A000B3F5806F36D1FB685A013B69134403F5CE
:1033B000A0631946FB685A013B69134403F5A063F7
:1033C000DB6843F00203CB607B681B68FA68D2B20B
:1033D0001146184603F02BFCFB685A013B69134465
:1033E00003F5A0631A4610239360FB685A013B69FA
:1033F000134403F5A0631A464FF480639360796821
:10340000FA6813469B001344DB000B445D3308222B
:103410001A7026E1FB685A013B69134403F5A06367
:103420009B6803F00203022B40F01B81FB685A01EA
:103430003B69134403F5A0631946FB685A013B69D5
:10344000134403F5A063DB6823F00203CB607968C3
:10345000FA6813469B001344DB000B445D331B7872
:10346000012B37D17968FA6813469B001344DB00BF
:103470000B445C3301221A707968FA6813469B008A
:103480001344DB000B443F331B78022B0BD07968CD
:10349000FA6813469B001344DB000B443F331B7850
:1034A000032B40F0C5807968FA6813469B001344EB
:1034B000DB000B4451331B7883F00103D8B27968E9
:1034C000FA6813469B001344DB000B445133024659
:1034D0001A70ADE07968FA6813469B001344DB006C
:1034E0000B445D331B78032B0AD17968FA681346C5
:1034F0009B001344DB000B445C3302221A7097E0FC
:103500007968FA6813469B001344DB000B445D3373
:103510001B78042B0AD17968FA6813469B00134480
:10352000DB000B445C3302221A7081E07968FA6890
:1035300013469B001344DB000B445D331B78052BC3
:103540000AD17968FA6813469B001344DB000B44E8
:103550005C3305221A706BE07968FA6813469B00A9
:103560001344DB000B445D331B78062B0AD07968CB
:10357000FA6813469B001344DB000B445D331B7851
:10358000082B55D17968FA6813469B001344DB0079
:103590000B4458331B68591C7868FA6813469B0023
:1035A0001344DB000344583319607968FA68134602
:1035B0009B001344DB000B4458331B68032B14D9C6
:1035C0007968FA6813469B001344DB000B445833B8
:1035D00000221A607968FA6813469B001344DB00E6
:1035E0000B445C3304221A7009E07968FA681346C8
:1035F0009B001344DB000B445C3302221A70FB680F
:103600005A013B69134403F5A0631B68BB60BB68A8
:1036100023F08043BB60BB6843F00043BB60FB68A2
:103620005A013B69134403F5A0631A46BB68136053
:10363000FB685A013B69134403F5A0631A46022351
:103640009360FB68D8B27968FA6813469B0013440C
:10365000DB000B445C331B781A460146786808F09F
:10366000EDF800BF1837BD4680BD000080B58AB0B8
:1036700000AF78607B681B687B627B6A3B627B681B
:103680001B681B6AFB61FB6903F00F03BB61FB69ED
:103690005B0C03F00F037B61FB691B09C3F30A0397
:1036A0003B617B69022B03D0052B00F0828083E015
:1036B0003B69002B7FD07968BA6913469B0013449D
:1036C000DB000B4444331B68002B74D07B68186804
:1036D0007968BA6913469B001344DB000B444433FA
:1036E0001B683A6992B2194602F02DFE7968BA69F0
:1036F00013469B001344DB000B4444331A683B69B8
:10370000D1187868BA6913469B001344DB00034460
:10371000443319607968BA6913469B001344DB008F
:103720000B444C331A683B69D1187868BA69134660
:103730009B001344DB0003444C331960BB695A01FE
:103740003B6A134403F5A0631A691D4B1340002B19
:1037500031D0BB695A013B6A134403F5A0631B686F
:10376000FB60FB6823F08043FB60FB6843F0004391
:10377000FB60BB695A013B6A134403F5A0631A4618
:10378000FB6813607968BA6913469B001344DB0039
:103790000B4450331B7883F00103D8B27968BA69BF
:1037A00013469B001344DB000B44503302461A704F
:1037B00001E000BF00E000BF00BF2837BD4680BD6C
:1037C0000000F81F80B586B000AF78607B681B688A
:1037D0007B617B693B613B6903F588631B68FB6028
:1037E0003B6903F588631B68BB60BB6823F02E034D
:1037F000BB60FB6803F00203022B13D1FB6803F0EC
:103800000103012B0AD17B681B687A6812689269F0
:1038100022F000529A61786807F0F4FFBB6843F029
:103820000203BB60FB6803F00803082B48D1BB68A8
:1038300043F00803BB60FB6803F00403042B29D1A9
:103840007B689B69022B13D1FB6803F4C023B3F59B
:10385000802F06D17B681B680221184602F0B0FE5B
:1038600011E07B681B680121184602F0A9FE0AE0FE
:103870007B68DB68012B06D13B6903F580631A4640
:103880004EF660235360786807F0E6FF786807F02B
:10389000B9FF15E0786807F0EDFF3B6903F5886331
:1038A0001A463B6903F588631B6823F02E031360F7
:1038B0007B681B687A681268926942F000529A61CC
:1038C000FB6803F02003202B03D1BB6843F02003E7
:1038D000BB603B6903F588631A46BB68136000BF91
:1038E0001837BD4680BD000090B585B000AF786048
:1038F0007B68002B01D101230FE17B6893F83D30F9
:10390000DBB2002B06D17B68002283F83C2078686C
:1039100007F01EFB7B68242283F83D207B681B6830
:103920007A681268126822F001021A6001F0AAF99E
:10393000F8607B685B687B4A934207D8FB687A4AE9
:10394000934294BF01230023DBB206E0FB68774A71
:10395000934294BF01230023DBB2002B01D001234B
:10396000DBE0FB68724AA2FB03239B0CBB607B6815
:103970001B687A681268526822F03F01BA680A43ED
:103980005A607B681A687B681B681B6A23F03F01DA
:103990007B685B686348834202D8BB68013309E0F7
:1039A000BB684FF4967000FB03F36248A0FB03036F
:1039B0009B0901330B4313627B6818687B681B68A3
:1039C000DB6923F44F4222F0FF027B685B685549B4
:1039D0008B420DD8FB68591E7B685B685B00B1FBAE
:1039E000F3F30133C3F30B03042B38BF04234FE07D
:1039F0007B689B68002B11D1FB685C1E7B68596853
:103A00000B465B000B44B4FBF3F30133C3F30B032E
:103A1000002B0CBF01230023DBB212E0FB685C1E0D
:103A20007B6859680B469B000B4499000B44B4FB20
:103A3000F3F30133C3F30B03002B0CBF012300236B
:103A4000DBB2002B01D0012322E07B689B68002BB6
:103A50000ED1FB685C1E7B6859680B465B000B440B
:103A6000B4FBF3F30133C3F30B0343F400430FE060
:103A7000FB685C1E7B6859680B469B000B449900F1
:103A80000B44B4FBF3F30133C3F30B0343F44043A0
:103A90001343C3617B681B687A681268126822F05E
:103AA000C0017A68D0697A68126A02430A431A60D0
:103AB0007B681A687B681B689B6823F4034323F0C8
:103AC000FF03796808697968C96801430B4393600B
:103AD0007B681B687A681268D26822F0FF017A68F6
:103AE00050697A68926902430A43DA607B681B680E
:103AF0007A681268126842F001021A607B6800223C
:103B00001A647B68202283F83D207B6800221A63B8
:103B10007B68002283F83E20002318461437BD46F8
:103B200090BD00BFA08601007F841E00FF083D00FD
:103B300083DE1B43D34D621080B588B000AF786040
:103B40007B68002B01D1012327E17B6893F841308A
:103B5000DBB2002B09D17B68002283F840207B6810
:103B6000904A5A63786807F03BFA7B68022283F830
:103B700041207B681A687B681B68DB6923F47B63E0
:103B800023F00F03D3617B681B6802221A627B68F3
:103B90005B69022B60D07B68DB68002B02D11023AD
:103BA0007B6101E020237B617B689B68202B02D82E
:103BB0007B695B007B61012001F068F9F8607B683C
:103BC0001B69B3F5007F25D17B68DB68002B10D023
:103BD0007B699B00FA68B2FBF3F213469B00134427
:103BE0005B001A467B685B69B2FBF3F305333B610C
:103BF0001FE07B69DB00FA68B2FBF3F213469B001F
:103C000013445B001A467B685B69B2FBF3F3053330
:103C10003B610EE0FA687B69B2FBF3F213469B004E
:103C200013445B001A467B685B69B2FBF3F3053310
:103C30003B613B695C4AA2FB0323DB083B613B69B8
:103C400003F00103BB613A69BB69D31A5B08FB61EE
:103C5000BB691B02BB6103E00223FB610023BB6164
:103C6000FB69012B02D9FB69FF2B07D97B685B6CD1
:103C700043F010027B685A6401238EE07B681B6866
:103C80007A681169BA691143FA690A431A627B6852
:103C90001A687B681B68DB6923F47B6323F00F03DE
:103CA000796848687968896808437968C968084309
:103CB0007968896901430B4343F40063D3617B68EE
:103CC0001B6A012B61D17B68384A5A637B681B6889
:103CD000374A934201D1374A01E04FF040227B68D6
:103CE0001B6833498B4201D1324B01E04FF0402336
:103CF000DB6923F47B6323F00F03D3617B681B68CC
:103D00002B4A934201D12B4B01E04FF0402302227A
:103D10001A627B681B68264A934201D1254B01E059
:103D20004FF04023DB697B817B685B68B3F5007FE4
:103D300003D07B685B68002B03D14FF480733B6139
:103D400001E000233B613B699AB27B689B6899B2B2
:103D50007B68DB6898B27B689B699BB203439BB22C
:103D60000B439BB213439AB27B8913439BB243F438
:103D700000637B817B681B680D4A934201D10D4B28
:103D800001E04FF040237A89DA617B6800225A64AF
:103D90007B68012283F84120002318462037BD4666
:103DA00080BD00BFAF3E0008CDCCCCCCC53F0008E5
:103DB000003800400034004080B483B000AF786029
:103DC00000BF0C37BD465DF8047B704780B483B0FC
:103DD00000AF786000BF0C37BD465DF8047B7047CC
:103DE00080B483B000AF786000BF0C37BD465DF88B
:103DF000047B704780B582B000AF78607B681B6839
:103E00007A68526A1288DA607B685B6A9A1C7B68FF
:103E10005A627B685B8D9BB2013B9AB27B685A8584
:103E20007B685B8D9BB2002B0ED17B681B687A6828
:103E30001268526822F0A0025A607B68012283F85F
:103E400041207868FFF7B8FF00BF0837BD4680BD46
:103E500080B582B000AF78607B68DB6A7A681268F0
:103E6000D26892B21A807B68DB6A9A1C7B68DA623D
:103E70007B685B8E9BB2013B9AB27B685A867B68FB
:103E80005B8E9BB2002B0ED17B681B687A68126830
:103E9000526822F060025A607B68012283F8412058
:103EA0007868FFF793FF00BF0837BD4680BD80B537
:103EB00086B000AF78607B681B689B687B617B681D
:103EC00093F84130DBB2042B3AD17B6903F0010354
:103ED000012B09D17B681B685B6803F04003402B12
:103EE00002D17868FFF7B4FF7B6903F04003402BF1
:103EF00026D17B681B685B6803F02003202B1FD151
:103F00007B681B687A681268526822F060025A6007
:103F100000233B617B681B68DB683B617B681B6837
:103F20009B683B613B697B68012283F841207B6889
:103F30005B6C43F002027B685A647868FFF750FFBD
:103F40007B6893F84130DBB2032B36D17B6903F0F9
:103F50000203022B09D17B681B685B6803F08003B6
:103F6000802B02D17868FFF745FF7B6903F00803D7
:103F7000082B22D17B681B685B6803F02003202B91
:103F80001BD17B681B687A681268526822F0A00215
:103F90005A600023FB607B681B689B68FB60FB68C2
:103FA0007B68012283F841207B685B6C43F004024C
:103FB0007B685A647868FFF713FF00BF1837BD4667
:103FC00080BD000080B588B000AF78607B681B685A
:103FD0009B68FB617B681B68A24A934201D1A24B9C
:103FE00001E04FF040239B68BB617B681B685B6806
:103FF0007B617B681B689B4A934201D19A4B01E02D
:104000004FF040235B683B617B685B68B3F5007FE2
:1040100004D07B685B68002B40F09980FB6903F05B
:104020000203022B07D17B6903F08003002B02D02F
:10403000786800F025F9BB6903F00103012B07D173
:104040003B6903F04003002B02D0786800F0C6F90A
:10405000BB6903F04003402B3AD13B6903F02003D6
:10406000002B35D07B681B687E4A934201D17E4B82
:1040700001E04FF040237A6812687A498A4201D100
:10408000794A01E04FF04022526822F060025A6003
:104090007B681B687A681268526822F0A0025A6036
:1040A0000023FB607B681B68DB68FB607B681B6828
:1040B0009B68FB60FB687B68012283F841207B687A
:1040C0005B6C43F002027B685A647868FFF788FEF5
:1040D000FB6903F00803082B40F0BE807B6903F006
:1040E0002003002B00F0B8807B681B687A68126898
:1040F000526822F0A0025A607B681B68594A9342BA
:1041000001D1594B01E04FF040237A6812685549BC
:104110008A4201D1544A01E04FF04022526822F015
:1041200060025A600023BB607B681B689B68BB60B1
:10413000BB687B68012283F841207B685B6C43F09D
:1041400004027B685A647868FFF74AFE84E0BB6922
:1041500003F00203022B07D13B6903F08003002B1D
:1041600002D0786800F0BEF8FB6903F00103012B70
:1041700007D17B6903F04003002B02D0786800F080
:10418000FBF8FB6903F04003402B2FD17B6903F060
:104190002003002B2AD07B681B687A68126852685B
:1041A00022F060025A607B681B682E4A934201D15C
:1041B0002D4B01E04FF040237A68126829498A426A
:1041C00001D1294A01E04FF04022526822F0A002BA
:1041D0005A607B68012283F841207B685B6C43F066
:1041E00002027B685A647868FFF7FAFDBB6903F046
:1041F0000803082B31D13B6903F02003002B2CD09E
:104200007B681B68174A934201D1174B01E04FF0BE
:1042100040237A68126813498A4201D1124A01E0A8
:104220004FF04022526822F0A0025A607B681B685F
:104230007A681268526822F060025A607B68012234
:1042400083F841207B685B6C43F004027B685A640E
:104250007868FFF7C5FD00E000BF00BF2037BD460E
:1042600080BD00BF003800400034004080B483B0FF
:1042700000AF786000BF0C37BD465DF8047B704727
:1042800080B582B000AF78607B681A687B685B6A33
:10429000981C796848621B88D3607B685B8D9BB2F1
:1042A000013B9AB27B685A857B685B8D9BB2002B81
:1042B00013D17B681B687A681268526822F0A002EA
:1042C0005A607B685B8E9BB2002B06D17B68012213
:1042D00083F841207868FFF7C9FF00BF0837BD4663
:1042E00080BD000080B582B000AF78607B681B683D
:1042F0001F4A934201D11F4A01E04FF040227B68E0
:104300005B6A981C796848621B88D3607B685B8D08
:104310009BB2013B9AB27B685A857B685B8D9BB2EE
:10432000002B21D17B681B68114A934201D1114BAC
:1043300001E04FF040237A6812680D498A4201D1AA
:104340000C4A01E04FF04022526822F0A0025A606D
:104350007B685B8E9BB2002B06D17B68012283F8C1
:1043600041207868FFF782FF00BF0837BD4680BD57
:10437000003800400034004080B582B000AF786063
:104380007B68DB6A991C7A68D1627A681268D268A5
:1043900092B21A807B685B8E9BB2013B9AB27B68BB
:1043A0005A867B685B8E9BB2002B13D17B681B689F
:1043B0007A681268526822F060025A607B685B8DEE
:1043C0009BB2002B06D17B68012283F841207868DC
:1043D000FFF74CFF00BF0837BD4680BD80B582B0F7
:1043E00000AF78607B68DB6A991C7A68D1627A6872
:1043F00012681E498A4201D11D4A01E04FF0402255
:10440000D26892B21A807B685B8E9BB2013B9AB2F3
:104410007B685A867B685B8E9BB2002B21D17B68C0
:104420001B68124A934201D1114B01E04FF0402327
:104430007A6812680D498A4201D10D4A01E04FF0B5
:104440004022526822F060025A607B685B8D9BB20A
:10445000002B06D17B68012283F841207868FFF7A2
:1044600005FF00BF0837BD4680BD00BF00380040D3
:104470000034004080B586B000AF78607B68002BC8
:1044800001D101232DE27B681B6803F00103002B9F
:1044900075D0A34B9B6803F00C03042B0CD0A04BEE
:1044A0009B6803F00C03082B12D19D4B5B6803F44F
:1044B0008003B3F5800F0BD1994B1B6803F40033D5
:1044C000002B5BD07B685B68002B57D1012308E28F
:1044D0007B685B68B3F5803F06D1914A904B1B68BF
:1044E00043F4803313601DE07B685B68B3F5A02F55
:1044F0000CD18B4A8A4B1B6843F480231360884A93
:10450000874B1B6843F4803313600BE0844A844B71
:104510001B6823F480331360814A814B1B6823F4AA
:10452000802313607B685B68002B13D0FCF7B0FC22
:10453000386108E0FCF7ACFC02463B69D31A642BF7
:1045400001D90323CDE1764B1B6803F40033002B24
:10455000F0D014E0FCF79CFC386108E0FCF798FC14
:1045600002463B69D31A642B01D90323B9E16C4B92
:104570001B6803F40033002BF0D100E000BF7B6820
:104580001B6803F00203002B63D0654B9B6803F0AC
:104590000C03002B0BD0624B9B6803F00C03082B21
:1045A0001CD15F4B5B6803F48003002B16D15C4B7E
:1045B0001B6803F00203002B05D07B68DB68012B2E
:1045C00001D001238DE15649554B1B6823F0F802B9
:1045D0007B681B69DB0013430B603AE07B68DB6898
:1045E000002B20D04F4B01221A60FCF751FC3861A0
:1045F00008E0FCF74DFC02463B69D31A022B01D9B7
:1046000003236EE1464B1B6803F00203002BF0D03E
:104610004349434B1B6823F0F8027B681B69DB00AE
:1046200013430B6015E03F4B00221A60FCF730FC8F
:10463000386108E0FCF72CFC02463B69D31A022BD8
:1046400001D903234DE1364B1B6803F00203002B15
:10465000F0D17B681B6803F00803002B30D07B6827
:104660005B69002B16D0304B01221A60FCF710FC5E
:10467000386108E0FCF70CFC02463B69D31A022BB8
:1046800001D903232DE1264B5B6F03F00203002BBE
:10469000F0D015E0244B00221A60FCF7F9FB3861DA
:1046A00008E0FCF7F5FB02463B69D31A022B01D95F
:1046B000032316E11A4B5B6F03F00203002BF0D1CA
:1046C0007B681B6803F00403002B00F0A08000232C
:1046D000FB75134B1B6C03F08053002B0FD1002391
:1046E000FB600F4A0E4B1B6C43F0805313640C4B62
:1046F0001B6C03F08053FB60FB680123FB750B4BC5
:104700001B6803F48073002B21D1084A074B1B68F8
:1047100043F480731360FCF7BBFB386111E000BF0A
:104720000038024000004742800E474200700040BF
:10473000FCF7AEFB02463B69D31A022B01D90323D7
:10474000CFE06A4B1B6803F48073002BF0D07B68CA
:104750009B68012B06D1664A654B1B6F43F0010332
:1047600013671CE07B689B68052B0CD1604A604B8B
:104770001B6F43F0040313675D4A5D4B1B6F43F0EF
:10478000010313670BE05A4A594B1B6F23F00103D7
:104790001367574A564B1B6F23F0040313677B685C
:1047A0009B68002B15D0FCF773FB38610AE0FCF71F
:1047B0006FFB02463B69D31A41F28832934201D91A
:1047C00003238EE04A4B1B6F03F00203002BEED055
:1047D00014E0FCF75DFB38610AE0FCF759FB024688
:1047E0003B69D31A41F28832934201D9032378E01E
:1047F0003F4B1B6F03F00203002BEED1FB7D012B1F
:1048000005D13B4A3A4B1B6C23F0805313647B6801
:104810009B69002B64D0364B9B6803F00C03082B7C
:104820005CD07B689B69022B41D1324B00221A601D
:10483000FCF72EFB386108E0FCF72AFB02463B69D7
:10484000D31A022B01D903234BE0294B1B6803F039
:104850000073002BF0D126497B68DA697B681B6AFC
:104860001A437B685B6A9B011A437B689B6A5B08FF
:10487000013B1B041A437B68DB6A1B0613434B6036
:104880001C4B01221A60FCF703FB386108E0FCF7BF
:10489000FFFA02463B69D31A022B01D9032320E019
:1048A000134B1B6803F00073002BF0D018E0114B82
:1048B00000221A60FCF7ECFA386108E0FCF7E8FA2D
:1048C00002463B69D31A022B01D9032309E0084BA6
:1048D0001B6803F00073002BF0D101E0012300E01E
:1048E000002318461837BD4680BD00BF0070004049
:1048F000003802406000474280B584B000AF786065
:1049000039607B68002B01D10123CAE0674B1B682B
:1049100003F00F023B689A420CD2644B3A68D2B261
:104920001A70624B1B6803F00F023B689A4201D079
:104930000123B6E07B681B6803F00203002B20D044
:104940007B681B6803F00403002B05D0584A584BC2
:104950009B6843F4E05393607B681B6803F0080393
:10496000002B05D0524A524B9B6843F4604393603E
:104970004F494F4B9B6823F0F0027B689B681343C1
:104980008B607B681B6803F00103002B44D07B68BD
:104990005B68012B07D1464B1B6803F40033002BE7
:1049A00019D101237DE07B685B68022B03D07B6813
:1049B0005B68032B07D13E4B1B6803F00073002B91
:1049C00009D101236DE03A4B1B6803F00203002B71
:1049D00001D1012365E03649354B9B6823F0030282
:1049E0007B685B6813438B60FCF752FAF8600AE05F
:1049F000FCF74EFA0246FB68D31A41F28832934222
:104A000001D903234DE02A4B9B6803F00C027B681D
:104A10005B689B009A42EBD1244B1B6803F00F02AA
:104A20003B689A420CD9214B3A68D2B21A701F4B9C
:104A30001B6803F00F023B689A4201D0012330E06B
:104A40007B681B6803F00403002B08D01849184B3F
:104A50009B6823F4E0527B68DB6813438B607B68C0
:104A60001B6803F00803002B09D01149104B9B6809
:104A700023F460427B681B69DB0013438B6000F00A
:104A80001DF801460A4B9B681B0903F00F03094AF6
:104A9000D35C21FA03F3084A13600020FCF7B4F951
:104AA000002318461037BD4680BD00BF003C0240C1
:104AB00000380240808A0108680000202DE9F04F8C
:104AC0008FB000AF0023FB6200237B630023BB6237
:104AD00000233B63624B9B6803F00C03042B07D05D
:104AE000082B08D0002B40F0B2805E4B3B63B1E056
:104AF0005D4B3B63AEE05A4B5B6803F03F03FB62E8
:104B0000574B5B6803F48003002B4ED0544B5B681B
:104B10009B094FF0000440F2FF114FF0000201EA40
:104B2000030102EA04020B46144660017862786AC7
:104B300040EAD36078625B013B62D7E908345B1AD4
:104B400064EB02044FEA841949EA93694FEA831837
:104B5000B8EB030869EB04094FEAC903FB61FB6981
:104B600043EA5873FB614FEAC803BB61D7E9068982
:104B700018EB010849EB02094FEA49237B617B6985
:104B800043EAD8537B614FEA48233B61D7E9048964
:104B900040464946FB6A4FF000041A462346FBF79D
:104BA00089FF03460C467B6343E02D4B5B689B0902
:104BB0004FF0000440F2FF114FF0000201EA030140
:104BC00002EA04020B4614466001F860F86840EA05
:104BD000D360F8605B01BB60D7E902345B1A64EB19
:104BE0000204A60146EA93669D01ED1A66EB0406EF
:104BF000F3007B607B6843EA55737B60EB003B60AE
:104C000097E860006D1846EB02064FEA862B4BEAE8
:104C1000955B4FEA852A55465E4628463146FB6A33
:104C20004FF000041A462346FBF744FF03460C46A8
:104C30007B630B4B5B681B0C03F0030301335B00CE
:104C4000BB627A6BBB6AB2FBF3F33B6302E0054BDA
:104C50003B6300BF3B6B18463C37BD46BDE8F08F59
:104C6000003802400024F40000127A0080B400AF43
:104C7000034B1B681846BD465DF8047B704700BFB8
:104C80006800002080B500AFFFF7F0FF0146054B3C
:104C90009B689B0A03F00703034AD35C21FA03F3E2
:104CA000184680BD00380240908A010880B586B061
:104CB00000AF786000237B6100233B617B681B6849
:104CC00003F00103002B05D17B681B6803F004038C
:104CD000002B38D0684B00221A60FCF7D9F87861B5
:104CE00008E0FCF7D5F802467B69D31A022B01D9FC
:104CF0000323BDE0614B1B6803F00063002BF0D180
:104D00005E497B685A687B689B689B011A437B6895
:104D1000DB681B071343C1F88430574B01221A602C
:104D2000FCF7B6F8786108E0FCF7B2F802467B6958
:104D3000D31A022B01D903239AE0504B1B6803F0CE
:104D40000063002BF0D07B681B6803F00203002B8C
:104D500000F083800023FB60484A484B1B6C43F003
:104D600080531364454B1B6C03F08053FB60FB685E
:104D7000434A434B1B6843F480731360FCF788F885
:104D8000786108E0FCF784F802467B69D31A022BAD
:104D900001D903236CE03A4B1B6803F48073002BAA
:104DA000F0D0364B1B6F03F440733B613B69002B23
:104DB0002FD07B681B6903F440723B699A4228D06C
:104DC0002E4B1B6F23F440733B612E4B01221A6064
:104DD0002C4B00221A60294A3B691367274B1B6F33
:104DE00003F00103012B14D1FCF752F878610AE0BB
:104DF000FCF74EF802467B69D31A41F2883293429F
:104E000001D9032334E01D4B1B6F03F00203002B79
:104E1000EED07B681B6903F44073B3F5407F0DD17E
:104E20001649164B9B6823F4F8127B681B6923F024
:104E3000704323F4407313438B6005E00F4A0F4B1C
:104E40009B6823F4F81393600C490C4B1A6F7B6832
:104E50001B69C3F30B0313430B677B681B6803F0E9
:104E60000803002B03D0084A7B681B7D13600023D6
:104E700018461837BD4680BD6800474200380240DA
:104E800000700040400E4742E011474280B487B0B6
:104E900000AF786000237B6100233B610023FB604F
:104EA0000023BB607B68012B3FD1234B9B6803F43D
:104EB0000003FB60FB68002B04D0012B31D11F4B9A
:104EC0007B6131E01C4B5B6803F48003B3F5800F1A
:104ED00009D1194BD3F8843003F03F03184AB2FBD1
:104EE000F3F33B6108E0144BD3F8843003F03F0345
:104EF000144AB2FBF3F33B610F4BD3F884309B09A8
:104F0000C3F308033A6902FB03F3BB600A4BD3F80F
:104F100084301B0F03F00703BA68B2FBF3F37B6125
:104F200002E000237B6100BF00BF7B6918461C378D
:104F3000BD465DF8047B7047003802400080BB002E
:104F400000127A000024F40080B582B000AF7860CF
:104F50007B68002B01D1012355E07B6800229A6217
:104F60007B6893F85130DBB2002B06D17B680022BE
:104F700083F85020786806F001F97B68022283F8F4
:104F800051207B681B687A681268126822F0400220
:104F90001A607B681B687A6851687A689268114366
:104FA0007A68D26811437A68126911437A68526943
:104FB00011437A68926902F4007211437A68D269E7
:104FC00011437A68126A11437A68926A0A431A6036
:104FD0007B681B687A689269120C02F004017A6897
:104FE000526A0A435A607B681B687A681268D26901
:104FF00022F40062DA617B6800225A657B68012234
:1050000083F85120002318460837BD4680BD80B57F
:1050100088B000AFF860B9603B601346FB800023A6
:10502000FB77FB6893F85030012B01D102231CE180
:10503000FB68012283F85020FBF72AFFB861FB8848
:10504000FB82FB6893F85130DBB2012B02D00223C4
:10505000FB7701E1BB68002B02D0FB88002B02D15B
:105060000123FB77F8E0FB68032283F85120FB68FB
:1050700000225A65FB68BA681A63FB68FA889A8648
:10508000FB68FA88DA86FB6800229A63FB680022D4
:105090009A87FB680022DA87FB6800225A64FB6863
:1050A00000221A64FB689B68B3F5004F07D1FB68C8
:1050B0001B68FA681268126842F480421A60FB6842
:1050C0001B681B6803F04003402B07D0FB681B687C
:1050D000FA681268126842F040021A60FB68DB68E6
:1050E000B3F5006F4BD1FB685B68002B02D0FB8AE5
:1050F000012B3ED1FB681B68FA68126B1288DA60DC
:10510000FB681B6B9A1CFB681A63FB68DB8E9BB207
:10511000013B9AB2FB68DA862BE0FB681B689B6850
:1051200003F00203022B12D1FB681B68FA68126BB2
:105130001288DA60FB681B6B9A1CFB681A63FB68B9
:10514000DB8E9BB2013B9AB2FB68DA8611E0FBF77B
:105150009FFE0246BB69D21A3B689A4203D33B6862
:10516000B3F1FF3F02D13B68002B02D10323FB7751
:1051700072E0FB68DB8E9BB2002BCED14CE0FB686B
:105180005B68002B02D0FB8A012B40D1FB681B68B7
:105190000C33FA68126B12781A70FB681B6B5A1C7E
:1051A000FB681A63FB68DB8E9BB2013B9AB2FB681B
:1051B000DA862CE0FB681B689B6803F00203022B75
:1051C00013D1FB681B680C33FA68126B12781A70E3
:1051D000FB681B6B5A1CFB681A63FB68DB8E9BB277
:1051E000013B9AB2FB68DA8611E0FBF751FE0246FA
:1051F000BB69D21A3B689A4203D33B68B3F1FF3FC5
:1052000002D13B68002B02D10323FB7724E0FB682B
:10521000DB8E9BB2002BCDD1BA693968F86800F0FB
:10522000EBFA0346002B02D0FB6820225A65FB688C
:105230009B68002B0AD100233B61FB681B68DB687D
:105240003B61FB681B689B683B613B69FB685B6D6E
:10525000002B01D00123FB77FB68012283F851204A
:10526000FB68002283F85020FB7F18462037BD469C
:1052700080BD000080B586B000AFF860B96013460D
:10528000FB800023FB75FB6893F85030012B01D1A4
:10529000022393E0FB68012283F85020FB6893F817
:1052A0005130DBB2012B02D00223FB7581E0BB68D9
:1052B000002B02D0FB88002B02D10123FB7578E084
:1052C000FB68032283F85120FB6800225A65FB68C3
:1052D000BA681A63FB68FA889A86FB68FA88DA86E5
:1052E000FB6800229A63FB6800225A64FB68002274
:1052F0001A64FB6800229A87FB680022DA87FB6841
:105300009B68B3F5004F07D1FB681B68FA68126809
:10531000126842F480421A60FB689B6C294A1A6446
:10532000FB689B6C284ADA63FB689B6C274ADA644B
:10533000FB689B6C00221A65FB68986CFB681B6B12
:105340001946FB681B680C331A46FB68DB8E9BB260
:10535000FBF78AFF0346002B0CD0FB685B6D43F024
:105360001002FB685A650123FB75FB68012283F874
:1053700051201EE0FB681B681B6803F04003402BB4
:1053800007D0FB681B68FA681268126842F0400296
:105390001A60FB681B68FA681268526842F02002C3
:1053A0005A60FB681B68FA681268526842F0020291
:1053B0005A60FB68002283F85020FB7D184618379E
:1053C000BD4680BDA1560008F9550008BD5600082D
:1053D00080B588B000AF78607B681B685B68FB6154
:1053E0007B681B689B68BB61BB6903F04003002BB3
:1053F0000ED1BB6903F00103002B09D0FB6903F058
:105400004003002B04D07B681B6C78689847CFE082
:10541000BB6903F00203002B09D0FB6903F0800392
:10542000002B04D07B685B6C78689847C0E0BB6950
:1054300003F02003002B0AD1BB6903F04003002BCB
:1054400005D1BB6903F48073002B00F0B180FB69C8
:1054500003F02003002B00F0AB80BB6903F0400396
:10546000002B23D07B6893F85130DBB2032B11D093
:105470007B685B6D43F004027B685A6500237B61A7
:105480007B681B68DB687B617B681B689B687B6152
:105490007B690BE000233B617B681B68DB683B6139
:1054A0007B681B689B683B613B6981E0BB6903F0DB
:1054B0002003002B14D07B685B6D43F001027B68F6
:1054C0005A650023FB607B681B689B68FB607B68F8
:1054D0001B687A681268126822F040021A60FB6842
:1054E000BB6903F48073002B0CD07B685B6D43F0C9
:1054F00008027B685A650023BB607B681B689B6859
:10550000BB60BB687B685B6D002B50D07B681B6801
:105510007A681268526822F0E0025A607B680122C1
:1055200083F85120FB6903F00203002B04D1FB69CF
:1055300003F00103002B34D07B681B687A68126883
:10554000526822F003025A607B68DB6C002B11D09A
:105550007B68DB6C184A1A657B68DB6C1846FBF7C6
:10556000E3FE0346002B05D07B685B6D43F04002F1
:105570007B685A657B689B6C002B16D07B689B6CA4
:105580000D4A1A657B689B6C1846FBF7CDFE0346F7
:10559000002B0AD07B685B6D43F040027B685A6544
:1055A00003E0786800F01EF800E000BF00BF00BF15
:1055B0002037BD4680BD00BFFD56000880B483B0D3
:1055C00000AF786000BF0C37BD465DF8047B7047C4
:1055D00080B483B000AF786000BF0C37BD465DF883
:1055E000047B704780B483B000AF786000BF0C3795
:1055F000BD465DF8047B704780B586B000AF78602B
:105600007B689B6B7B61FBF743FC38617B681B68A5
:105610001B6803F48073B3F5807F3BD07B691B6804
:105620007A691268526822F020025A607B691B680E
:105630007A691268526822F002025A603A6964215B
:10564000786900F0D9F80346002B05D07B695B6DC3
:1056500043F020027B695A657B699B68002B0AD165
:105660000023FB607B691B68DB68FB607B691B6850
:105670009B68FB60FB687B690022DA867B690122FC
:1056800083F851207B695B6D002B03D07869FFF7AD
:10569000A9FF02E07869FFF791FF1837BD4680BD8A
:1056A00080B584B000AF78607B689B6BFB60F86866
:1056B000FFF78EFF00BF1037BD4680BD80B584B0B8
:1056C00000AF78607B689B6BFB60FB681B68FA68C7
:1056D0001268526822F003025A60FB685B6D43F067
:1056E0001002FB685A65FB68012283F85120F868B4
:1056F000FFF778FF00BF1037BD4680BD80B584B08E
:1057000000AF78607B689B6BFB60FB680022DA87E8
:10571000FB680022DA86F868FFF764FF00BF1037E5
:10572000BD4680BD80B584B000AFF860B9603B6015
:105730001346FB714CE03B68B3F1FF3F48D0FBF7E9
:10574000A7FB0246BB69D21A3B689A4202D23B6869
:10575000002B3DD1FB681B68FA681268526822F082
:10576000E0025A60FB685B68B3F5827F11D1FB6889
:105770009B68B3F5004F04D0FB689B68B3F5806F5E
:1057800007D1FB681B68FA681268126822F04002B1
:105790001A60FB689B6AB3F5005F0FD1FB681B685A
:1057A000FA681268126822F400521A60FB681B68DB
:1057B000FA681268126842F400521A60FB6801220B
:1057C00083F85120FB68002283F8502003230FE068
:1057D000FB681B689A68BB681A40BB689A420CBF9A
:1057E00001230023DBB21A46FB799A42A3D100239E
:1057F00018461037BD4680BD80B588B002AFF8604E
:10580000B9607A601B4B1B681B4AA2FB03235B0D2C
:105810004FF47A7202FB03F37B61FB685B68B3F5BC
:10582000827F12D17B680093BB6800228021F868D8
:10583000FFF778FF0346002B16D0FB685B6D43F043
:105840002002FB685A6503230FE07B69002B0AD016
:105850007B69013B7B61FB681B689B6803F08003ED
:10586000802BF2D000E000BF002318461837BD4659
:1058700080BD00BF68000020819F5E1680B582B0A9
:1058800000AF78607B68002B01D101231DE07B68AD
:1058900093F83D30DBB2002B06D17B68002283F801
:1058A0003C20786805F0A8FD7B68022283F83D2043
:1058B0007B681A687B6804331946104600F0A6FA24
:1058C0007B68012283F83D20002318460837BD4637
:1058D00080BD80B485B000AF78607B681B687A6853
:1058E0001268D26842F00102DA607B681B689B682C
:1058F00003F00703FB60FB68062B07D07B681B687F
:105900007A681268126842F001021A600023184691
:105910001437BD465DF8047B704780B586B000AF94
:10592000786039607B68002B01D1012383E07B68BC
:1059300093F83D30DBB2002B06D17B68002283F860
:105940003C20786805F0D2FC7B68022283F83D2079
:105950007B681A687B681B689B6823F4804323F08C
:10596000070393607B681A687B6804331946104606
:1059700000F04CFA7B681B689B687B617B681B6846
:105980009B693B617B681B681B6AFB603B681B680B
:105990007A6913437B613B6923F4407323F003036B
:1059A0003B613B689A683B689B691B0213433A69F9
:1059B00013433B613B6923F4406323F00C033B61D9
:1059C0003B6923F4704323F0F0033B613B68DA68E2
:1059D0003B68DB691B0213433A6913433B613B6835
:1059E0001B691A013B681B6A1B0313433A69134383
:1059F0003B61FB6823F02203FB60FB6823F0880314
:105A0000FB603B685A683B685B691B011343FA689B
:105A10001343FB607B681B687A699A607B681B682C
:105A20003A699A617B681B68FA681A627B6801228E
:105A300083F83D20002318461837BD4680BD80B549
:105A400082B000AF78607B681B681B6903F00203BB
:105A5000022B22D17B681B68DB6803F00203022B58
:105A60001BD17B681B686FF002021A617B68012200
:105A70001A777B681B689B6903F00303002B03D034
:105A8000786800F0A5F905E0786800F097F9786883
:105A900000F0A8F97B6800221A777B681B681B69F5
:105AA00003F00403042B22D17B681B68DB6803F03E
:105AB0000403042B1BD17B681B686FF004021A617E
:105AC0007B6802221A777B681B689B6903F440732A
:105AD000002B03D0786800F07BF905E0786800F0CF
