:020000040800F2
:1000000000000220C95C0008255900082759000893
:10001000295900082B5900082D590008000000003C
:100020000000000000000000000000002F59000840
:100030003159000800000000335900083559000804
:10004000195D0008195D0008195D0008195D0008B8
:10005000195D0008195D0008195D0008195D0008A8
:10006000195D0008195D0008195D0008195D000898
:10007000195D0008195D0008195D0008195D000888
:10008000195D0008195D0008195D000800000000F6
:10009000000000000000000000000000195D0008E2
:1000A000195D0008195D0008195D0008195D000858
:1000B00039590008195D0008195D0008195D00082C
:1000C000195D0008195D0008195D0008195D000838
:1000D000195D0008195D0008195D000800000000A6
:1000E000195D0008195D0008195D00080000000096
:1000F000000000000000000000000000195D000882
:1001000000000000195D0008195D0008195D000875
:1001100000000000000000000000000000000000DF
:10012000195D000845590008195D0008195D0008AF
:10013000195D000800000000000000000000000041
:1001400000000000000000000000000059590008F5
:10015000195D0008195D0008195D0008195D0008A7
:10016000195D0008195D0008000000000000000093
:10017000000000000000000000000000000000007F
:1001800000000000195D00080000000000000000F1
:0801900065590008195D000823
:1001A00010B5054C237833B9044B13B10448AFF3B1
:1001B00000800123237010BDA80000200000000073
:1001C000F865000808B5034B1BB103490348AFF3BA
:1001D000008008BD00000000AC000020F8650008A9
:1001E00001F0FF01102A2BDB10F0070F08D010F8E8
:1001F000013B013A8B422DD010F0070F42B3F6D1EC
:10020000F0B441EA012141EA014122F007047FF004
:1002100000070023F0E80256083C85EA010586EA5B
:10022000010685FA47F5A3FA87F586FA47F6A5FA97
:1002300087F68EB9EED1F0BC01F0FF0102F00702A3
:1002400032B110F8013B013A83EA010313B1F8D14E
:100250000020704701387047002D06BF354603382F
:10026000073815F0010F07D1013015F4807F02BF68
:10027000013015F4C03F0130F0BC0138704700BFB9
:1002800053B94AB9002908BF00281CBF4FF0FF31FD
:100290004FF0FF3000F07AB9ADF1080C6DE904CEF3
:1002A00000F006F8DDF804E0DDE9022304B0704751
:1002B0002DE9F0478C460D460446089E002B51D18F
:1002C0008A4217466DD9B2FA82FEBEF1000F0BD0FA
:1002D000CEF1200C01FA0EF520FA0CFC02FA0EF712
:1002E0004CEA050C00FA0EF44FEA174A250CBCFB49
:1002F000FAF81FFA87F90AFB18CC45EA0C4508FB07
:1003000009F3AB420AD9ED1908F1FF3280F02381DD
:10031000AB4240F22081A8F102083D44ED1AA4B29C
:10032000B5FBFAF00AFB105544EA054400FB09F955
:10033000A14509D9E41900F1FF3380F00A81A145F4
:1003400040F2078102383C44A4EB090440EA08402B
:100350000021002E61D024FA0EF400233460736073
:10036000BDE8F0878B4207D9002E54D0002186E8E3
:1003700021000846BDE8F087B3FA83F1002940F078
:100380008E80AB4202D3824200F2FA80841A65EB7F
:1003900003050120AC46002E3FD086E81010BDE8D2
:1003A000F08712B90127B7FBF2F7B7FA87FEBEF163
:1003B000000F34D1EB1B3A0C1FFA87FC0121B3FB71
:1003C000F2F8250C02FB183345EA03450CFB08F351
:1003D000AB4207D9ED1908F1FF3002D2AB4200F26F
:1003E000D1808046ED1AA3B2B5FBF2F002FB1055A6
:1003F00043EA05440CFB00FCA44507D9E41900F1CD
:10040000FF3302D2A44500F2B8801846A4EB0C04D6
:1004100040EA08409DE731463046BDE8F087CEF11E
:10042000200405FA0EF307FA0EF720FA04F83A0C46
:1004300025FA04F448EA0308B4FBF2F14FEA184540
:1004400002FB11441FFA87FC45EA044501FB0CF34B
:10045000AB4200FA0EF409D9ED1901F1FF3080F03A
:100460008A80AB4240F2878002393D44EB1A1FFA82
:1004700088F5B3FBF2F002FB103345EA034500FBBD
:100480000CF3AB4207D9ED1900F1FF386FD2AB4244
:100490006DD902383D44EB1A40EA01418FE7C1F1C2
:1004A000200722FA07F88B4005FA01F448EA030313
:1004B00020FA07FE4FEA134CFD404EEA040EB5FB4E
:1004C000FCF94FEA1E440CFB19551FFA83F844EA65
:1004D000054509FB08F4AC4202FA01F200FA01FA00
:1004E00008D9ED1809F1FF3043D2AC4241D9A9F146
:1004F00002091D442D1B1FFA8EFEB5FBFCF00CFB00
:1005000010554EEA054400FB08F8A04507D9E41849
:1005100000F1FF3529D2A04527D902381C4440EA12
:100520000940A4EB0804A0FB02894C45C6464D4691
:1005300015D312D056B1BAEB0E0364EB050404FADE
:1005400007F7CB401F43CC40376074600021BDE803
:10055000F0871846F8E69046E0E6C245EAD2B8EBE6
:10056000020E69EB03050138E4E72846D7E7404669
:1005700091E78146BEE7014678E702383C4445E70B
:10058000084608E7A8F102083D442BE7704700BF82
:1005900038B50E4A0E4B054618784FF47A73B3FB04
:1005A000F0F31068B0FBF3F000F0AAF8044658B975
:1005B0000F2D09D8024629464FF0FF3000F05EF8B3
:1005C000044B20461D6038BD012038BD400000208E
:1005D000000000200400002008B50B4B1A6842F40C
:1005E00000721A601A6842F480621A601A6842F453
:1005F00080721A60032000F02FF80020FFF7C8FF78
:1006000004F0E4FF002008BD003C0240034A044B14
:1006100011681B780B441360704700BFEC0000208A
:1006200000000020014B1868704700BFEC0000205C
:1006300038B50446FFF7F6FF631C1CBF054B1B785B
:10064000054618BFE418FFF7EDFF401B8442FAD8B7
:1006500038BD00BF00000020074AD36823F4E063E0
:100660001B041B0C43F0BF63000243F4003300F48F
:10067000E0600343D360704700ED00E0174B30B5F6
:10068000DC68C4F30224C4F10703251D042B28BF32
:100690000423062D4FF0010505FA03F303F1FF33A0
:1006A0008CBF033C00241940A14005FA04F4013C2E
:1006B0002240002842EA01024FEA0212ADBF00F1D7
:1006C000604000F00F00064B00F56140B5BFD2B2AC
:1006D000D2B21A5480F8002330BD00BF00ED00E014
:1006E00014ED00E0002808DB4209012300F01F00A0
:1006F00003FA00F0014B43F82200704700E100E0EC
:100700000138B0F1807F0AD2064B074A5860F021C9
:1007100082F823100020072298601A607047012099
:10072000704700BF10E000E000ED00E00368DAB2BF
:1007300023F47F7323F003031821103AB2FBF1F284
:100740000449032A88BF0433895C8365C165806DD1
:10075000704700BF4266000870B50446FFF762FFAD
:100760000546002C71D0002384F83430226802231F
:1007700084F83530136823F00103136021680B6897
:10078000D8073CD40B68324D6268A0691D40A3684D
:100790001343E26813432269134362691343E26916
:1007A00003431343226A1343626A042A43EA05039C
:1007B00001BF266BE56A35432B430B604B69042A66
:1007C00023F0070343EA02030BD1A26AE56A13434D
:1007D0003DB1F8B9012A2DD001D3022A01D1EA0195
:1007E0002BD44B612046FFF7A1FFE26D3F239340DE
:1007F000836000200123606584F8353070BDFFF709
:1008000011FF401B0528B9D920236365032084F814
:10081000350070BDB0F5005F13D1032AE1D801A007
:1008200050F822F03B080008DF0700083B080008EA
:1008300035080008B5F1C07FD3D14023636501209E
:10084000E5E7022AF9D9032AC8E7012070BD00BFF5
:100850003F8010F070B590F83440012C36D0012460
:1008600080F8344090F83540866D012C4FF000053B
:100870004FF0020428D180F83540046845652568AA
:1008800025F48025256063608368402B0EBFA2603D
:10089000A160E260C26D08BFE1603F239340B36096
:1008A000236843F016032360636943F080036361A8
:1008B000036C1BB1236843F008032360236843F0F3
:1008C00001032360002070BD80F83450022070BD09
:1008D00090F83530022B03D0802343650120704708
:1008E0000268052380F83530136823F00103136094
:1008F00000207047F7B5002301935A4B856D1F68A0
:10090000C36D2E6808229A40164204460CD0016836
:100910000868400708D5086820F004000860AA604D
:10092000626D42F00102626501229A40164208D0CF
:1009300021684969090641BFAA60626D42F002025E
:10094000626504229A40164208D021680968880727
:1009500041BFAA60626D42F00402626510229A40B3
:10096000164210D02368196809070CD5AA601A68C6
:10097000500335D51B68190301D4236C00E0A36C28
:100980000BB120469847E16D20228A40164238D0AC
:1009900023681868C60634D5AA6094F83520052A5D
:1009A0001A6825D122F016021A605A6922F08002D4
:1009B0005A61226C0AB9A26C1AB11A6822F00802B4
:1009C0001A603F238B40AB60002384F8343001234E
:1009D00084F83530236D0BB12046984703B0F0BD45
:1009E0001A68D2055EBF1A6822F008021A60C4E7CE
:1009F000500328D51B68190332D4636C0BB1204611
:100A00009847636D002BE9D0636DDA0719D505238C
:100A1000226884F83530136823F0010313604FF423
:100A20001653B7FBF3F7019B01339F42019302D3A7
:100A30001368DB07F7D4002384F83430012384F8EB
:100A40003530E36CC7E71A6812F4807208D1196870
:100A500021F010011960012384F8342084F8353026
:100A6000E36BCBE740000020084910B50C6924F483
:100A700040740C610C6944F440740C610C6944F0DE
:100A800001040C610260436010BD00BF003C0240E5
:100A9000074B1A6922F440721A611A6942F4007213
:100AA0001A611A6942F001021A610160704700BFC1
:100AB000003C0240074B1A6922F440721A611A691D
:100AC00042F480721A611A6942F001021A610180CF
:100AD000704700BF003C0240204BDA68D00606D5C4
:100AE0001F49CA6942F01002CA611022DA60DA684E
:100AF000910606D51A49CA6942F00802CA61202245
:100B0000DA60164BDA68520606D51549CA6942F012
:100B10000402CA614022DA60DA68100606D510497C
:100B2000CA6942F00202CA618022DA600B4BDA68BD
:100B3000D10507D50A49CA6942F00102CA614FF4DA
:100B40008072DA60DA68920706D50549CA6942F010
:100B50002002CA610222DA60704700BF003C0240F6
:100B6000F0000020064B1A69002ABFBF054A5A60F0
:100B700002F188325A60BABF1869C00F002070476E
:100B8000003C024023016745034A136943F00043D8
:100B900013610020704700BF003C0240F8B5124BC3
:100BA000124C00220546DA61FFF73CFD2646074657
:100BB000E368DA030CD4E368DB0744BF0123E36096
:100BC000F06810F4F97002D0FFF786FF0120F8BD3D
:100BD000691CEDD00DB90320F8BDFFF723FDC01B44
:100BE0008542E5D2F7E700BFF0000020003C02405C
:100BF0002DE9F041204D98462B7E012B07460E46ED
:100C0000144635D001234CF250302B76FFF7C6FF47
:100C1000B0B9CFB9194B1A6922F440721A611A6936
:100C20001A611A69E4B242F001021A6134704CF29E
:100C30005030FFF7B3FF114A136923F0010313612A
:100C400000232B76BDE8F081012F04D1A1B23046FC
:100C5000FFF730FFEBE7022F04D121463046FFF7C4
:100C600017FFE4E7224643463046FFF7FDFEDEE786
:100C70000220BDE8F08100BFF0000020003C0240EF
:100C800039B101291CD002290CBF4FF400714FF477
:100C900040710D4B1A6922F440721A611A691143AE
:100CA00019611A6922F0F8021A611A6942F0020207
:100CB00042EAC00018611A6942F480321A61704732
:100CC0004FF48071E5E700BF003C02402DE9F04F92
:100CD00085B00B68DFF89C81644A01934FF00109ED
:100CE0000023019C09FA03F707EA0406B74240F023
:100CF000AD804C6824F0100ABAF1020F16D14FEA09
:100D0000D30C00EB8C0C03F0070BDCF820504FEAFF
:100D10008B0B4FF00F0E0EFA0BFE25EA0E0E0D692F
:100D200005FA0BF545EA0E05CCF820504FEA430CC6
:100D30000325D0F800B005FA0CF5ED4304F0030EDE
:100D40000BEA050B0EFA0CFE0AF1FF3A4EEA0B0E07
:100D5000BAF1010F0095C0F800E015D8D0F808E00E
:100D600005EA0E0ECD6805FA0CFA4AEA0E0EC0F836
:100D700008E0D0F804E02EEA0707C4F3001E0EFADC
:100D800003FE4EEA07074760C768009D3D408F6835
:100D900007FA0CF73D43C560E50057D54FF0000B4F
:100DA000CDF80CB0D8F84470314D47F48047C8F8FE
:100DB0004470D8F8447007F480470397039F23F0EA
:100DC000030707F1804707F59C3703F0030CD7F8BA
:100DD00008A04FEA8C0C4FF00F0E0EFA0CFEA84242
:100DE0002AEA0E0E39D005F58065A84237D005F500
:100DF0008065A84235D005F58065A84233D005F559
:100E00008065A84214BF0725042505FA0CF545EABC
:100E10000E05BD601568F74314F4803F0CBF3D40DC
:100E200035431560556814F4003F0CBF3D40354311
:100E30005560956814F4801F0CBF3D4035439560A4
:100E4000D568A40254BF3D403543D5600133102B13
:100E50007FF447AF05B0BDE8F08F5D46D5E70125CB
:100E6000D3E70225D1E70325CFE700BF003C0140CF
:100E700000000240003802400369194214BF0120FB
:100E8000002070470AB1816170470904FBE72DE932
:100E9000FF47044690F8B8029DF830709DF834E0A2
:100EA000BDF838C0012828D0282000FB01400125CA
:100EB000002612F0800F84F8B85202F07F0908BFB4
:100EC000354680F83D6080F8383080F8391080F879
:100ED0003FE080F83A9080F83B5080F83C70A0F8F2
:100EE00040C0CDF808C08DE88040206801F0A8FF20
:100EF00084F8B86204B0BDE8F0870220FAE790F801
:100F0000B832012B10B5044609D0012380F8B8325D
:100F1000006802F01FF8002084F8B80210BD02201B
:100F200010BD2DE9F04107468AB0002841D090F865
:100F3000B932046803F0FF021BB980F8B82204F04C
:100F400095FD032387F8B932E36B3C4613F48073B5
:100F500054F8100B08BF3B6101F02EFE0FCC6D461C
:100F60000FC50FCC0FC594E8030085E8030007F117
:100F700004083E4698E80E00386801F0D7FD56F8A0
:100F8000100B012101F01EFE0FCE6D460FC50FCED6
:100F90000FC594E8030085E8030098E80E00386860
:100FA00001F0CEFE012387F8B93200200AB0BDE877
:100FB000F0810120FAE70000F0B5282404FB0104C9
:100FC0009DF81470069EBDF81C5084F83B2084F8F0
:100FD0003F306FB90327022B84F842702BD0BB42FD
:100FE00029D0012B31D1282303FB010300222AE061
:100FF0004FF0020E84F842E0032B26D801A454F8E7
:1010000023F000BF15100008E70F00083710000894
:1010100037100008012F18D1BAB925B9282303FBCE
:10102000010383F85170282303FB010393F8512037
:101030004AB1022207E0282303FB0103D2B993F847
:101040005140002CF5D183F84220282404FB0103F1
:10105000002283F8391019465E649D6483F85C2091
:10106000DA6483F85D203831027C0068BDE8F04026
:1010700001F0D4BF93F85020DAE700BF2DE9F04F1C
:10108000066887B00446304601F0FCFD012840F0B8
:10109000B480206801F0F2FD002800F0AE802068E6
:1010A00001F0ECFD870248BF2368206844BF4FF47D
:1010B00000125A6101F0E2FDC50248BF23682068B2
:1010C00044BF4FF480125A6101F0D8FD400148BF7F
:1010D0002368206844BF4FF080625A6101F0CEFD62
:1010E000810748BF2368206844BF02225A6101F08B
:1010F000C5FD820010D5D6F8403423F02E03C6F883
:101100004034204604F004FD0121206801F0BEFDBA
:1011100023684FF000525A61206801F0AFFDC3010F
:1011200042D52568D5F840340493D5F8403405936A
:10113000059B23F02E030593049B9F070DD5049B6D
:10114000D80706D5AB6923F00053AB61204604F005
:10115000DBFC059B43F002030593049B190719D59B
:10116000059B43F008030593049B5A0750D5A169DA
:10117000022945D1049B206803F4C023B3F5802FD6
:1011800018BF012101F082FD204604F0C6FC204674
:1011900004F0BAFC049B9B0642BF059B43F020036E
:1011A0000593059BC5F84034206801F067FD0707EB
:1011B00005D5204604F0A4FC236808225A61206863
:1011C00001F05CFD850112D5206801F0BEFE4FF0F4
:1011D000000A019006F5A06828274FF00209D346BF
:1011E000A3689A4523D323684FF000725A612068A0
:1011F00001F044FDC30600F1208207B0BDE8F08F86
:10120000E368012B04BF4EF66022C5F80424BBE757
:10121000204604F086FCD5F84034226823F02E03E3
:10122000C5F84034936943F000539361B2E7019AE3
:101230000AF00F0322FA03F3D80740F18A80D8F8A6
:101240000030206813F4004F5FFA8AF500F0048143
:101250006A0100F5A063D618B168490713D50421C7
:10126000B160F16841F00201F160B168890542D5D1
:10127000F368206843F00203F360294601F06AFE38
:101280004FF40073C7E0B168890602D52021B16030
:10129000EBE7B168090715D5F168039341F0020146
:1012A000F16007FB05414FF0050E81F85DE010216C
:1012B000B1600821B1602946029201F04BFE029A0A
:1012C000039BD2E7B1684905CFD5F168039341F09C
:1012D0000201F1602946029201F03CFE1021B1604A
:1012E00007FB0541082081F85D004FF48061B16083
:1012F000039B029AB9E7B168C8073DD5216949B196
:1013000007FB054E3069DEF84810C0F31200091AD9
:10131000CEF84C1007FB054E01208EF85D00CEF88C
:1013200058B0B0609EF83F1011F0FD0F16D1F36871
:10133000206843F00203F360294601F00BFE1023FE
:10134000B36007FB054595F8503083F0010385F83D
:1013500050300AF1010A08F1200841E70329F0D1D1
:10136000D15841F00051D1508EF85C000246294618
:10137000204604F0D1FBE4E7B168890736D5F1686F
:1013800007FB054021F00201F16090F85D10012992
:101390000CD180F85C1007FB0543C6F8089093F861
:1013A0005C202946204604F0B7FBD2E70529F0D09F
:1013B000062901D0082914D107FB0541886D0130A9
:1013C0000328886583BF0420C1F858B081F85C0009
:1013D00081F85C90D15821F0804141F00041D1501A
:1013E000D9E70329D7D180F85C90F3E7B16811F011
:1013F000800112D0F368206843F00203F36007FB1A
:10140000054329469A6D01329A65062283F85D20CC
:1014100001F0A0FD8023B3609BE7B368DA0698D59E
:1014200007FB054292F83F30032B0AD19165F36820
:10143000206843F00203F360294601F08BFD10237E
:10144000E9E713F0FD03FAD193652369002BF6D188
:10145000032382F85D30EAE7690100F5A0628E1887
:10146000B36813F0040E06D00423B360F36843F0AE
:101470000203F3606DE7B36813F0200314D0202358
:10148000B36007FB054393F83D20012A7FF461AF69
:1014900083F83DE083F85C90F36843F00203F36067
:1014A000294601F057FD54E7D6F808E01EF0400F3A
:1014B00011D007FB0542042182F85D10012182F85A
:1014C0003D109365F36843F00203F360294601F091
:1014D00041FD40239FE7B36813F4007E05D0F36815
:1014E00043F00203F3602946C8E6B368DB0711D571
:1014F000F26807FB054342F00202C3F858E02946B0
:10150000F260029301F026FD029B0122B26083F893
:101510005D201EE7B3681B070ED50823B360F36890
:1015200043F00203F360294601F014FD07FB054573
:10153000052385F85D300CE7B368DB0615D507FB9E
:101540000543032283F85D2093F83D20C3F858B08B
:101550002AB993F83C2012B9012283F83D20F368A0
:1015600043F00203F360294667E7B3681B060CD516
:10157000F36843F00203F360294607FB054501F0D9
:10158000E9FC062385F85D3044E7B3685B050FD5B9
:10159000F36843F00203F360294601F0DBFC1023FB
:1015A000B3604FF48063B36007FB05450823C0E7D1
:1015B000B36898077FF5CDAEF36807FB054023F0CD
:1015C0000203F36090F85D30012B0ED180F85C309F
:1015D00090F83F30023B012B3FF6DDAE90F85130E2
:1015E00083F0010380F85130D5E6032B02D180F857
:1015F0005C90D0E6042BFAD0052B02D180F85C3049
:10160000C9E6062B02D0082B7FF4C5AE07FB0540C8
:10161000836D0133032B836584BF042380F85C3022
:101620008B5888BFC0F858B023F0804343F0004384
:1016300098BF80F85C908B50ADE62668B36923F0C4
:101640001003B361356AC5F34342022A29D1C5F3B9
:101650000A18B8F1000F24D005F00F05282707FB62
:101660000547796CE9B14246304601F0F9FA7B6CE6
:1016700043447B64FB6C4344FB6406F5A0666B014A
:101680009A1911690A4A0A405AB19A5922F08042BD
:1016900042F000429A5197F8503083F0010387F8E6
:1016A00050302268936943F010039361A5E500BFB1
:1016B0000000F81F38B590F8B832012B04460DD061
:1016C000012580F8B852006801F070FA29462068B8
:1016D00001F016FB002084F8B80238BD022038BDA6
:1016E00090F8B832012B10B5044609D0012380F8D8
:1016F000B832006801F044FD002084F8B80210BD43
:10170000022010BD006801F0DDBA282303FB0101AF
:1017100091F85C007047282303FB0101C86C7047F7
:10172000006801F088BB006801F07ABB70B5044620
:1017300008B9012070BD90F83D3003F0FF021BB9DD
:1017400080F83C2003F062FF2268242384F83D30B7
:10175000136823F00103136000F00EFD6568414B30
:101760009D424DD8404B9842E3D922683F49536887
:10177000B0FBF1F123F03F030B435360136A23F0F6
:101780003F03013119431162D169364B21F44F41B6
:101790009D4221F0FF0100F1FF3048D86D00B0FB01
:1017A000F5F00130C0F30B03042B38BF04230B43C7
:1017B000D3611168206AE36921F0C00103430B4340
:1017C00013609168E068236921F40341034321F029
:1017D000FF010B439360D168A069636921F0FF01A9
:1017E00003430B43D360136843F0010313600020ED
:1017F0002023206484F83D30206384F83E0070BDCF
:101800001B4B984295D92268184E5368B0FBF6F6E8
:1018100023F03F0333435360136A4FF496717143CF
:1018200023F03F034FF47A76B1FBF6F1A9E7A36802
:1018300053B905EB4503B0FBF3F0431CC3F30B03B3
:101840006BB143F40043B2E719236B43B0FBF3F0F1
:10185000431CC3F30B0313B143F44043A7E7012335
:10186000A5E700BFA08601007F841E0040420F0054
:10187000FF083D00F8B50446002841D090F84130FB
:1018800003F0FF022BB9424B80F84020436303F082
:10189000F5FE0221226884F84110D36923F47B63AA
:1018A00023F00F03D361636911628B4231D0E36887
:1018B000002BA3680CBF102520250120202B98BFEA
:1018C0006D0000F009FD23696169B3F5007F1BD14C
:1018D000E3680A22B3B1AB00B0FBF3F353430A222F
:1018E000B3FBF1F30533B3FBF2F303F00102120291
:1018F0005B08991EFD290ED9636C43F010036364E5
:101900000120F8BDEB00E7E70A23B0FBF5F0434305
:10191000E5E70022EDE71343226921686668E56880
:10192000A069DFF87CE013430B62A368CF6946EA45
:10193000030242F400622A43024307EA0E073A43D5
:10194000CA61226A012A1DD1124A6263124F134AE8
:10195000B94218BF4FF040222B43D16901EA0E0172
:10196000D16102211162D76943F40063034336F465
:10197000007143EA07030CBF4FF4807100219BB252
:101980000B43D36100200123606484F84130F8BD2B
:10199000AB190008A91A00080038004000340040C4
:1019A00040F0FFFF7047704770471FB503689A68A3
:1019B000019290F84120042A044636D1019AD107B9
:1019C00017D55A68520614D5C26AD96822F8021B84
:1019D000C262428E013A92B24286428E92B242B9BD
:1019E0005A6822F060025A60012380F84130FFF704
:1019F000DAFF019B590618D523685A68920614D558
:101A00005A6822F060025A6000220292DA6802925A
:101A10009B680293029B012384F84130636C43F07E
:101A2000020363642046FFF7BFFF94F84130032BA5
:101A300036D1019B9B0719D522685368180615D526
:101A4000636A33F8021BD1606362638D013B9BB212
:101A50006385638D9BB24BB9536823F0A003536039
:101A6000012384F841302046FFF79CFF019B1907B2
:101A700016D523685A68920612D55A6822F0A00239
:101A80005A60002203929B680393039B012384F80E
:101A90004130636C43F0040363642046FFF784FF26
:101AA00004B010BD7047000010B502688B49936800
:101AB00086B0044600938A4B8A4218BF4FF04023F9
:101AC000996801915168029159680391416831F414
:101AD000007140F09080009B99071AD5029B1B066D
:101AE00017D5436A991C1B884162D360438D013B23
:101AF0009BB24385438D9BB25BB9536823F0A0032F
:101B00005360438E9BB223B9012380F84130FFF725
:101B1000C9FF019BD80722D5039B59061FD5E26A4E
:101B200020686E49931CE3626D4B884218BF4FF0EA
:101B30004023D9681180628E013A92B26286628E29
:101B400092B262B95A6822F060025A60638D9BB209
:101B50002BB9012384F841302046FFF7A3FF019BF6
:101B60005A0622D5039B9B061FD523685B495C4A16
:101B70008B4218BF4FF040222046516821F060018F
:101B800051605A6822F0A0025A6000220492DA687A
:101B900004929B680493049B012384F84130636C96
:101BA00043F002036364FFF7FFFE009B180720D594
:101BB000029B99061DD5236848495A6822F0A00265
:101BC0005A60474A8B4218BF4FF04022516821F0BB
:101BD00060015160002205929B680593059B0123DB
:101BE00084F84130636C43F0040363642046FFF7DC
:101BF000DBFE06B010BD019A92071AD5039A1106B2
:101C000017D5426A911C12884162DA60428D013A0E
:101C100092B24285428D92B25AB95A6822F0A0021D
:101C20005A60438E9BB223B9012380F84130FFF7FD
:101C300039FF009BDA071CD5029B5B0619D5E36AC6
:101C40009A1CE2622268D1681980638E013B9BB2C4
:101C50006386638E9BB263B9536823F0600353605D
:101C6000638D9BB22BB9012384F841302046FFF7E6
:101C700019FF009B58061BD5029B990618D52268B0
:101C80001649536823F060035360154B8A4218BF0E
:101C90004FF0402320465A6822F0A0025A600123E8
:101CA00084F84130636C43F002036364FFF77CFE09
:101CB000019B1A079DD5039B9B069AD5226807496D
:101CC000074B8A4218BF4FF04023596821F0A0010A
:101CD0005960536823F06003536080E70038004088
:101CE000003400402DE9F341044618B9012002B048
:101CF000BDE8F0810368DD0710D42368980758D445
:101D000023681A0700F19A8023685B0700F1B88006
:101D1000A269002A40F019810020E8E7A64B9A68E2
:101D200002F00C02042A07D09A6802F00C02082A7A
:101D30000AD15B68590207D59F4B1B689A03DCD513
:101D40006368002BD9D1D1E763689B4DB3F5803F21
:101D500011D12B6843F480332B60FEF763FC964D62
:101D600006462B689B03C8D4FEF75CFC801B6428E6
:101D7000F7D90320BBE7B3F5A02F04D12B6843F4B8
:101D800080232B60E5E72A6822F480322A602A68E3
:101D900022F480222A60002BDFD1FEF743FC0646A6
:101DA0002B689F03A9D5FEF73DFC801B6428F7D95B
:101DB000DFE7814B9A6812F00C0F07D09A6802F0A7
:101DC0000C02082A11D15B685E020ED47A4B1A68A5
:101DD000950702D5E268012A88D11A68216922F0A4
:101DE000F80242EAC1021A608AE7E268734BB2B1B4
:101DF00001221A60FEF716FC6F4D06462B68980705
:101E000007D52B68226923F0F80343EAC2032B604D
:101E100076E7FEF707FC801B0228EFD9A9E71A60D6
:101E2000FEF700FC644D06462B6899077FF568AF06
:101E3000FEF7F8FB801B0228F6D99AE76269604B2F
:101E40007AB101221A60FEF7EDFB5B4D06466B6F1F
:101E50009F073FF559AFFEF7E5FB801B0228F6D937
:101E600087E71A60FEF7DEFB534D06466B6F980757
:101E70007FF54AAFFEF7D6FB801B0228F6D978E73C
:101E80004D4B1A6C12F0805228D101921A6C42F01C
:101E900080521A641B6C03F080530193019B01264E
:101EA000484D2B68D9051BD5A368434D012B27D17D
:101EB0002B6F43F001032B67FEF7B4FB3E4D074643
:101EC00041F288382B6F9B0739D5002E3FF420AFA5
:101ED000394A136C23F08053136419E70026DFE7B7
:101EE0002B6843F480732B60FEF79CFB07462B683E
:101EF000DA05D9D4FEF796FBC01B0228F7D938E7DC
:101F0000052B04D12B6F43F004032B67D0E72A6F16
:101F100022F001022A672A6F22F004022A67002BAE
:101F2000CAD1FEF77FFB41F2883807462B6F98072E
:101F3000CBD5FEF777FBC01B4045F7D919E7FEF775
:101F400071FBC01B4045BDD913E71B4DAB6803F0C7
:101F50000C03082B3FF4CAAE1B4E0023022A336049
:101F600034D1FEF75FFB07462B6899011ED4226A25
:101F7000E3691343626A43EA8213E26A43EA026353
:101F8000A26A0D4C5208013A43EA02436B600123F6
:101F90003360FEF747FB054623689A013FF5BCAE68
:101FA000FEF740FB401B0228F6D9E2E6FEF73AFBBB
:101FB000C01B0228D8D9DCE60038024000004742A6
:101FC000800E47420070004060004742FEF72AFB47
:101FD00004462B689B017FF59FAEFEF723FB001B99
:101FE0000228F6D9C5E600BF134908B58B6803F08F
:101FF0000C03042B03D0082B03D0104808BD104855
:1020000008BD4A684B68496813F4800314BF0C4844
:102010000A48C1F3881118BF002302F03F02A1FB58
:102020000001FEF72DF9044B5B68C3F30143013354
:102030005B00B0FBF3F008BD003802400024F40060
:1020400000127A002DE9F0410D46044610B9012036
:10205000BDE8F081444B1A6802F00F028A4228D38F
:1020600021688F072DD4C80740D43F4B1A6802F06F
:102070000F02954266D3226851076CD4130707D527
:102080003A4A2169936823F4604343EAC1039360A9
:10209000FFF7AAFF354B364A9B68C3F30313D35CA3
:1020A000D840344B18600020FEF772FA0020BDE8DB
:1020B000F081CAB21A701B6803F00F039942C6D1AF
:1020C000CEE72A4B11F0040F1EBF9A6842F4E0528B
:1020D0009A600E0742BF9A6842F460429A609A681A
:1020E000A06822F0F00202439A60BCE762681F4BCE
:1020F000012A1DD11B6813F4003FA8D01B4EB36802
:1021000023F003031343B360FEF78CFA41F28838DF
:102110000746B368626803F00C03B3EB820FA4D0E8
:10212000FEF780FAC01B4045F3D90320BDE8F081DB
:10213000911E01291B6802D813F0007FDDE713F020
:10214000020FDAE7EAB21A701B6803F00F039D4230
:102150007FF47DAF8FE70549E0688B6823F4E05397
:1021600003438B608AE700BF003C02400038024016
:10217000F688000840000020044B054A9B68C3F322
:102180008223D35C034A1068D8407047003802406D
:102190000689000840000020036813F0050FF7B51A
:1021A00004463CD123689A0730D500230193454B60
:1021B000454D1A6C42F080521A641B6C03F0805338
:1021C0000193019B2B6843F480732B60FEF72AFA7E
:1021D00006462B68D9054CD53A4D2B6F13F4407346
:1021E0004DD1236903F44072B2F5407F354A65D181
:1021F000916823F0704021F4F81120F440700143FD
:102200009160116FC3F30B030B431367206810F049
:1022100008001FBF2D4B227D1A60002027E02C4EA6
:10222000284D00233360FEF7FDF907462B681B019C
:1022300017D4E368A2681B0743EA8213626813435A
:10224000C5F8843001233360FEF7ECF91D4D0646D6
:102250002B681801A6D4FEF7E5F9801B0228F7D9F0
:1022600004E0FEF7DFF9C01B0228DFD9032003B02A
:10227000F0BDFEF7D7F9801B0228AAD9F6E722693C
:1022800002F440729342ACD02B6F124A01211160CC
:1022900023F44073002111602B672B6FDA07A0D560
:1022A000FEF7C0F941F2883706462B6F9B0798D49A
:1022B000FEF7B8F9801BB842F7D9D7E7916821F447
:1022C000F8119DE70038024000700040E0114742DD
:1022D00068004742400E4742012821D1114B9A68BD
:1022E00012F4000204D0012A0F4818BF00207047E2
:1022F0005A680C49D3F884005302D1F884204CBFAB
:102300000A4B0B4B00F03F00B3FBF0F3D1F8840015
:10231000C2F388125343C0F30270B3FBF0F070476E
:1023200000207047003802400080BB0000127A0095
:102330000024F400F8B504460E4615461F462168F1
:102340008A6836EA020301D00020F8BD6B1CF7D082
:10235000FEF768F9C01B8542F1D823685A6822F05D
:10236000E0025A606268B2F5827F0AD1A268B2F5D3
:10237000004F02D0B2F5806F03D11A6822F04002FC
:102380001A60A26AB2F5005F07D11A6822F40052FF
:102390001A601A6842F400521A60012384F851301E
:1023A000002384F850300320F8BD000073B51346B5
:1023B000134A144E15684268B5FBF6F64FF47A7569
:1023C0007543B2F5827F044601950DD10A468021FE
:1023D000FFF7B0FF10B9002002B070BD636D43F08D
:1023E000200363650320F7E7019B002BF3D0019BDB
:1023F000013B019323689B681B06F5D4EBE700BF04
:102400004000002000366E0110B50446002836D08A
:102410000023836290F8513003F0FF021BB980F86B
:10242000502003F0BDF92168A068A269022384F856
:1024300051300B6823F040030B6063680343E0688E
:1024400003432069034360690343E0690343206A4F
:102450000343A06A034302F4007003430B60120CB1
:10246000636A02F004021A434A60CB6923F40063F2
:10247000CB6100200123606584F8513010BD01203C
:1024800010BD2DE9F3411E4690F85030012B044653
:102490000D46904600F09B80012380F85030FEF7F7
:1024A000C1F8074694F85100C0B2012840F08D8071
:1024B000002D5DD0B8F1000F5AD0032384F85130BD
:1024C0000020A3686065A063A4F83680A087E08739
:1024D0006064206420682563B3F5004F08BF03687B
:1024E000A4F8348004BF43F48043036003685B06B0
:1024F0005EBF036843F040030360E368B3F5006F19
:1025000063683ED113B1B8F1010F07D135F8023B32
:10251000C3602563E38E013B9BB2E386E38E9BB2EF
:10252000A3B93A4631462046FFF740FF002849D17B
:10253000A36833B901932368DA6801929B68019319
:10254000019B606D003018BF012011E02268936884
:10255000980705D5236B33F8021BD1602363D9E7B5
:10256000FEF760F8C01BB042D8D3711CD6D0032050
:10257000012384F85130002384F8503002B0BDE8C4
:10258000F08113B1B8F1010F08D12B780373236BDD
:1025900001332363E38E013B9BB2E386E38E9BB260
:1025A000002BBED023689A68920703D5226B12785D
:1025B0001A73ECE7FEF736F8C01B8642EED8731CA0
:1025C000ECD0D4E720236365B2E70220D0E70220F5
:1025D000D4E7000090F85030012B10B504464ED0DF
:1025E000012380F8503090F85100C0B2984244D195
:1025F00000292DD0002A2BD0032384F8513000234A
:102600006365A363E2866364E3872364A387A368A7
:10261000A2862268A06C2163B3F5004F02BF136845
:1026200043F480431360174B0364174BC363174B8A
:10263000C36400230365E38E0C329BB2FEF70AF9F4
:1026400050B1636D012043F01003636584F85100BD
:10265000002384F8503010BD23681A6852065EBF0C
:102660001A6842F040021A605A6842F020025A602A
:102670005A6842F002025A60EAE70220E8E70220C4
:1026800010BD00BF95260008C3260008A12600083B
:102690007047704708B5806BFFF7FBFF08BD7047B8
:1026A000806B026808B5536823F003035360436DE1
:1026B00043F010034365012380F85130FFF7EFFF2B
:1026C00008BD37B50546846BFDF7ACFF2B681B686A
:1026D000DB05024626D42368596821F020015960A1
:1026E000596821F00201596020466421FFF75EFE1F
:1026F00018B1636D43F020036365A36833B9019398
:102700002368DA6801929B680193019B0023E386AA
:10271000012384F85130636D23B12046FFF7BFFFDA
:1027200003B030BD2046FFF7B3FFF9E7036830B5CB
:1027300059689A6802F04105012D85B0044605D11B
:102740004D0603D5036C984705B030BD950704D5F9
:10275000080602D5636C2046F5E712F4B07FF3D08B
:102760008D06F1D550060FD594F8510003284FF08F
:1027700000054CD0606D40F0040060650095D8689D
:10278000009098680090009895060CD5606D40F018
:10279000010060650020029098680290186820F09F
:1027A000400018600298D00508D5626D42F008021A
:1027B0006265002203929A680392039A626D002A6E
:1027C000C2D05A6822F0E0025A60012284F85120F7
:1027D0008A0723D05A68E06C22F003025A6040B1A5
:1027E000104B0365FEF774F818B1636D43F04003B6
:1027F0006365A06C0028A7D00A4B0365FEF768F854
:102800000028A1D0636D43F0400363659CE7019508
:10281000DA6801929B680193019B95E72046FFF7D8
:102820003EFF91E72928000808B5806B0023C38785
:10283000C386FFF734FF08BD704770477047704785
:10284000704703681A69910710B504460ED5DA6817
:1028500092070BD56FF002021A619B6901229B0758
:10286000027777D0FFF7EAFF0023237723681A69FE
:10287000500710D5DA6851070DD56FF004021A61C0
:102880009B69022213F4407F2277204668D0FFF72D
:10289000D5FF0023237723681A6912070FD5DA685A
:1028A00010070CD56FF008021A61DB690422990742
:1028B000227720465AD0FFF7C1FF002323772368F1
:1028C0001A69D20610D5DA68D0060DD56FF010025D
:1028D0001A61DB69082213F4407F227720464BD02F
:1028E000FFF7ACFF0023237723681A69D10708D5C7
:1028F000DA68D20705D56FF001021A612046FFF7AA
:102900009BFF23681A69100608D5DA68110605D5F9
:102910006FF080021A61204600F0EEF823681A6911
:10292000520608D5DA68500605D56FF040021A61E4
:102930002046FFF785FF23681A69910622D5DA68D9
:1029400092061FD56FF0200220461A61BDE81040A4
:1029500000F0D1B8FFF771FF2046FFF770FF83E763
:10296000FFF76BFF2046FFF76AFF92E7FFF765FF6F
:102970002046FFF764FFA0E7FFF75FFF2046FFF761
:102980005EFFAFE710BD0000244A036890420ED0FE
:10299000B0F1804F0BD0A2F57C42904207D002F5F7
:1029A0008062904203D002F58062904215D14A685D
:1029B00023F070031343194A904219D0B0F1804FAD
:1029C00016D0A2F57C42904212D002F5806290426D
:1029D0000ED002F5806290420AD0114A904207D090
:1029E00002F58062904203D002F58062904203D1EA
:1029F000CA6823F4407313434A6923F080031343E6
:102A000003608B68C3620B688362044B984204BF07
:102A10000B69036301234361704700BF000001405D
:102A200000400140F8B50C460546002843D090F818
:102A30003D3003F0FF021BB980F83C2002F036FF66
:102A40002946022351F8040B85F83D30836823F4AE
:102A5000804323F007038360FFF796FF286823680D
:102A600086688269A168076A1E43A36922F44072DE
:102A700022F0030241EA0323134323F47C42236937
:102A8000E1691B0143EA0123E1680B43216A22F05B
:102A9000FC0243EA01331343616927F0AA02676825
:102AA000866047EA0117836117430123076285F8AF
:102AB0003D300020F8BD0120F8BD90F83C30012BDE
:102AC00030B54FF0020314D0046880F83D306268DE
:102AD000A3680D68496822F0700223F080030B435D
:102AE0002A436260A360012380F83D30002380F810
:102AF0003C30184630BD7047704700000A4B013B20
:102B000001D1032070470269002AF8DA0369064AF6
:102B100043F001030361013AF3D0036913F00103A9
:102B2000F9D11846704700BF410D030084B038B595
:102B300005AD85E80E000A9B012B044625D1836B69
:102B400023F480338363C36823F4840323F04003B6
:102B5000C360C36823F44013C360119B012B02BF01
:102B6000C36843F48013C360FFF7C8FF089B012BC1
:102B700007D1A36843F00603A360A36843F02003D2
:102B8000A360BDE8384004B07047C36843F0400319
:102B9000C360FFF7B3FF0E9B23B9A36B43F48033ED
:102BA000A363E3E7A36B23F48033F9E7836843F07F
:102BB0000103836000207047836823F00103836072
:102BC0000020704708B5C368012923F0C043C360E3
:102BD00008D1C36843F00053C3603220FDF728FDDD
:102BE000002008BD19B9C36843F08043F4E7012011
:102BF00008BD0000890141F02001064A0161013A47
:102C000005D0036913F02003F9D11846704703205B
:102C1000704700BF410D03001023064A0361013ACB
:102C200005D0036913F01003F9D11846704703204B
:102C3000704700BF410D030010B59DF808404CB926
:102C4000033300EB023023F0030300F580500B4404
:102C5000994201D1002010BD51F8042B0260F7E722
:102C6000033222F003020A4400F58050914201D160
:102C700008467047036841F8043BF7E742698069FA
:102C800010407047406900F001007047D0F80034F0
:102C900023F0030310B5C0F80034D0F8004401F06D
:102CA00003032343012900F58062C0F8003404D1F6
:102CB0004BF680335360002010BD0229FBD141F256
:102CC0007073F7E737B500250195D0F840340193CC
:102CD000019B23F02E030193019B43F48073044670
:102CE000C0F840346420FDF7A3FC019B23F48073FB
:102CF000C4F840340A20FDF79BFC284603B030BDE1
:102D000082B000230193D0F840340193019B23F05B
:102D10002E030193019BDA0406D4012902BF019B13
:102D200043F48053C0F84034019BDB0405D521B93E
:102D3000019B23F48053C0F84034002002B0704758
:102D400084B038B5044605A880E80E000023C4F816
:102D5000003EA36B43F40013A363A36B23F400238F
:102D6000A363A36B23F48023A363E36BDA053FD54E
:102D7000079B032BD4F800343CD143F00403C4F880
:102D8000003410212046FFF735FF2046FFF744FFAF
:102D90000023069904F5A0624FF0FF301D468B42D8
:102DA0002BD101212046FFF7ABFFC820FDF740FCE7
:102DB0000023A3614FF0FF336361E36BDB0521D593
:102DC0004FF40073636203F18073A362114BC4F884
:102DD0000031089B1BB9A36943F01003A361A269EA
:102DE0000D4B1343A361BDE83840002004B0704789
:102DF000D4F8003423F00403C1E790600133D560B8
:102E00002032CCE78023636203F5C003A362034B47
:102E1000DDE700BF0003E000080020A3E000400061
:102E200082B000230193D0F8403401930198C0F39D
:102E3000414002B0704700F58060806880B2704702
:102E40002DE9F04100EB411707F5A0649DF81C60E7
:102E500005464FF0FF30A0604FFA82F805F5806C10
:102E600001F00F0E032E6CD8DFE806F00261024C71
:102E700040F29D41B8F1000FE16003DAE16841F4EE
:102E8000807105E0E96BC90542D5E16841F0600158
:102E9000E1600020DCF81840012101FA0EF1214325
:102EA000CCF81810A969B8F1000F41F00071A961C0
:102EB000B4BF4FF400440024BDF820509DF8181012
:102EC0009B0503F0FE53C5F30A05D20202F4F0425B
:102ED0002B431343B20402F44022022943EA0203C3
:102EE0000CBF4FF40031002123430B43032EC7F8DE
:102EF000003528D1D7F8003543F00053C7F8003526
:102F0000BDE8F08140F29D61B8F1000FE160B5DBF2
:102F1000DCF81800012101FA0EF10143CCF8181079
:102F2000A969002041F00071A9610446C4E740F29C
:102F30002521B8F1000FE160EADAE16841F4C071DF
:102F4000A6E70120A6E7BDE8F08100F580604069B2
:102F500080B2704700EB411101F5A062D1F8003555
:102F600013F4802FD1F8003543F08043C1F80035C9
:102F70001ED1C36A13F47F0FD1F8003537D123F087
:102F80000043C1F80035D1F8003543F00043C1F8E3
:102F90000035D1F8003523F40043C1F8003540F284
:102FA000E933013B02D011680029FADB00207047A9
:102FB000D0F8103413F47F0FD1F8003517D123F077
:102FC0000043C1F80035D1F8003543F00043C1F8A3
:102FD0000035D1F8003523F40043C1F8003540F244
:102FE000E933013BE2D011680029FADBDEE743F068
:102FF0000043C1F80035D9E700EB4111064AC1F89A
:103000001025D1F8003523F0804343F00043C1F888
:1030100000350020704700BF000008802DE9F34113
:10302000C36BDB05164604464A7817D50D79ADB952
:103030004EB94B79012B11D11146FFF7DDFF00206E
:1030400002B0BDE8F081012E08D100EB4213D3F8A5
:103050000C0520F06000C3F80C054D7108690028CC
:1030600066D00B8901381844B0FBF3F080B2B0F59C
:10307000807F03D91B020B614FF48070CF7817B1AA
:103080000B8943430B6191F80AE00B694FEA4E7ECE
:10309000C3F312080EF0C04E4EEA080EDFF8DC80D3
:1030A00004EB421508EAC0404EEA0000C5F81005DE
:1030B00016B1C868C5F8140504F5806EDEF808007E
:1030C000D5F800C52CF0005CC5F800C5C043D5F8A4
:1030D00000C5400700F0005040EA0C00C5F80005AC
:1030E0002548D5F800C5C0F800C0D0F800C02CF0C5
:1030F000804CC0F800C0D0F800C0DFB14CF4004CE8
:10310000C0F800C0D0F800C04CF0004CC0F800C0BF
:103110000068C5F80005002E91D1002F8FD1002B3B
:103120008DD0C879032813D8DFE800F0071A071AF2
:103130000120A3E72CF4004CE2E7E06ADD1CC5F3B4
:103140008F0580B2854203D9A06940F02000A061BC
:10315000002000909BB2C9682046FFF76DFD6EE726
:10316000DEF81000DD1CC5F38F0580B28542EFD973
:10317000A06940F08060EAE7C40000200000F81F6A
:10318000836823F0010310B5102104468360FFF724
:1031900031FD2046FFF740FD04F5A06304F5E06033
:1031A0001A46116821F0802141F0804142F8201B2D
:1031B0009042F6D10020196821F4004141F04041CD
:1031C00019600130B0F57A7F02D819680029F8DB60
:1031D00020339A42EFD14FF0FF33C4F814346361C7
:1031E000A36843F00103A360002010BD00207047D6
:1031F00038B5D0F87833DC692178054639B100F06C
:1032000017FE2178284600F02FFE00232370217B33
:1032100041B1284600F00CFE217B284600F024FE38
:1032200000232373617B41B1284600F001FE617BDE
:10323000284600F019FE00236373D5F87833D86967
:1032400028B102F09DFDD5F878330022DA61002024
:1032500038BDF0B5022285B001231146054600F0C5
:10326000B2F9FF28064602D1022005B0F0BD0146A2
:10327000284600F09FF95020D5F8787302F078FDC9
:103280001A2303FB0656F86196F84A331A0642BF22
:103290004370B6F84C33438104464178284600F029
:1032A000CCFD01462070608902900320019095F8C2
:1032B0001D0395F81C3362780090284600F0A9FDA4
:1032C00000222178284602F0E4FC00231A460A2155
:1032D000284600F078F9FF28C6D01A2303FB0051D6
:1032E00003FB005091F84A2390F85233B1F84C1385
:1032F00012F0800F0DBFA273E2736183218313F07C
:10330000800F08BFA373B0F85423A17B18BFE373E9
:10331000284614BF6283228300F08FFDE17B607337
:10332000284600F08AFD2073208B0290022695F833
:103330001D0395F81C33A27B617B01960090284603
:1033400000F067FD608B029095F81D0395F81C3323
:10335000E27B217B019600900026284600F059FD73
:103360003246617B84F84C60284602F092FC32467B
:10337000217B284602F08DFC304676E738B5D0F840
:103380007833D969A12303742123437407220023CE
:1033900043828382C2824031044600F0C9FA054666
:1033A00020B9D4F8C833022120469847284638BDB2
:1033B000704770477047D0F8783373B5DC6994F87C
:1033C0004C300546042B3DD8DFE803F003061742D6
:1033D000A600002002B070BD2123A16C037420233D
:1033E00043740722002343828382C28200F0A0FA42
:1033F00050BB022384F84C3024E0A1230374212322
:1034000043740722002343828382C28204F1400175
:1034100000F08EFAC0B9626CA36C84F84C0002F024
:10342000FF115A6802F0FF1291420BD194F8451037
:103430005A79914206D1226C1B689A4202D12846E1
:10344000FFF7B8FF0120C5E70128FBD00423D1E72F
:1034500094F84D10012921D002292ED0D5F87833C7
:10346000DE6996F84E30032B45D0042BEAD1317B30
:10347000284602F0FDFB0128E4D1317B284602F00A
:10348000B3FBB36A984240D0728B90423DD91B1A6D
:10349000B362336A18443062032333E0606A228BDC
:1034A000637B0091904298BF82B2E169284600F0A8
:1034B00089FC022384F84D30D0E7617B02F0D8FB11
:1034C000012815D1636A228B934283BF9B1A6362E2
:1034D000E36900238ABF9B186362E361636A0BB1EF
:1034E0000123E7E784F84D302846FFF761FFB5E791
:1034F0000228B3D1F4E7337B728B316A284600F09F
:1035000078FC042386F84E309CE7002386F84E3082
:103510002846FFF74EFF95E7002100F00DFC00283C
:1035200090D184F84C008DE700F5607300F56F7260
:10353000002143F8041B9342FBD100F58E7200F585
:103540004771002302F8013B9142FBD10122402147
:10355000037043708270C0F8BC3302768171437689
:1035600080F81C3380F81D230020704738B50D46C5
:10357000044680B1002380F8C023C0F87833C0F837
:103580007C33FFF7D1FF0DB1C4F8C853204602F0D9
:10359000CDFA002038BD022038BD49B1D0F87C33C7
:1035A00033B90122C0F87C23C0F874131846704761
:1035B0000220704790F838338B4286BF80F8201382
:1035C00000200220704770B5002490F843638E42BB
:1035D000E5B201D0FF290BD190F84463964201D0A7
:1035E000FF2A05D190F845639E4207D0FF2B05D0F6
:1035F0000134022C00F11A00E7D1FF25284670BDE6
:1036000010B5044602F0B8FA0121204602F034FB5E
:10361000002010BD30B587B002238DF8173090F828
:103620001F33044633B9027822B10278032A1CBF43
:103630000322027022780B2A18D8DFE812F00C005F
:103640001A001F00210117004F000701C600D0001B
:10365000DA00E700180194F81E333BB10123C820BB
:10366000237002F025FB204602F0B0FA002007B0DC
:1036700030BD012BFAD102232370F7E7642002F05A
:1036800017FB204602F094FA0523237084F81D03EB
:103690000021204600F0D1FB80216071204600F01F
:1036A000CCFBA27994F81C332071014602920025CC
:1036B00094F81D23009201958022204600F0A9FB7A
:1036C000A279029294F81D23009294F81C33617938
:1036D00001952A46204600F09CFBC7E76378072B3C
:1036E000C4D8DFE803F004151E3038414F5D0821CF
:1036F000204600F0FAF905460028B7D1012394F8D6
:1037000029236370217994F81C33A2710292CFE7C8
:103710001221204600F0E9F90028A7D102236370A6
:10372000A4E70121204600F0DDFA054600289DD1DE
:10373000022002F0BDFA03220123627084F81C33D8
:103740002179A279E2E70921204600F016FA002843
:103750008CD10423E3E7B4F83613204600F00DFAC9
:10376000002883D10523DAE794F8301341B1FF2311
:1037700004F58E72204600F08EFA00287FF476AFB2
:103780000623CCE794F8311341B1FF2304F58E7280
:10379000204600F080FA00287FF468AF0723BEE7D8
:1037A00094F8321341B1FF2304F58E72204600F0E5
:1037B00072FA00287FF45AAF002384F8203394F87B
:1037C0003333012B09D0072356E7D4F8C833002B35
:1037D0003FF44CAF01212046984708234CE794F86A
:1037E0003913204600F08CFA00287FF43FAF0923FC
:1037F00042E794F83B339B0606D50121204600F0B2
:103800008DFA00287FF432AF0A2335E7D4F87C33F1
:10381000002B3FF42BAF0023C4F87833D4F8743373
:1038200094F843231979914208BFC4F87833D4F847
:103830007833D3B19B6820469847B0B906232370EC
:103840000321D4F8C833204698470FE7D4F87833DB
:103850005BB11B69204698478DF817009DF817301B
:10386000002B7FF403AF0B2306E70D2304E7D4F806
:103870007833002B3FF4FAAE5B6920469847F5E6B3
:103880002046FFF751FED4F87833002B3FF4EEAE1C
:10389000DB68204698470023C4F87833E6E6C0F892
:1038A000BC137047D0F8BC230132C0F8BC230278A7
:1038B0000B2A04D1D0F878330BB19B6918477047B5
:1038C000012380F81F337047002380F81F337047AF
:1038D000027808B54AB9D0F8C833012280F81E230F
:1038E0000BB104219847002008BD90F81F23012A3E
:1038F00004BF02220270F6E710B5044602F04AF94E
:103900002179204600F0B0FA6179204600F0ACFA47
:10391000002384F81E33D4F8C83313B105212046A0
:103920009847204602F028F903232370002010BD99
:1039300013B504468078012803D0022808D001205E
:1039400004E00223A160A2812076A37002B010BD22
:10395000237E013B01210A2BF1D8DFE803F0060F9B
:103960002B36404C646F808C9500627904F1100115
:10397000204600F0EFF902232376E0E76179204644
:1039800002F076F901280FD1E28A94F910302AB1B9
:10399000002B01DA0323EFE70523EDE7002B01DA23
:1039A0000923E9E70723E7E7042801D00228C6D165
:1039B0000B23E1E7D4F8BC33E381A2892379A16822
:1039C000204600F0EFF90423D6E72179204602F0E3
:1039D0004FF90128E4D0052815D00428E7E76379DA
:1039E0000091A289A168204600F0C5F9D4F8BC3343
:1039F000E3810623C0E76179204602F039F9012806
:103A0000D0D0052805D10123A370002323760320FD
:103A10009CE70228C0D0042891D10B2323760123F0
:103A2000A370022092E7002223791146204600F07D
:103A3000B9F9D4F8BC33E38108239DE72179204606
:103A400002F016F9012804D101230020A37020768A
:103A50007CE70428ACD005287FF471AFD3E70022BF
:103A6000637900912046114600F085F9D4F8BC3303
:103A7000E3810A2380E76179204602F0F9F8012802
:103A8000E2D00228A9D18BE7637E0133DBB2022B9F
:103A9000637606D8204602F07DF801232376A370D2
:103AA0004DE7D4F8C83306212046984700236376B3
:103AB000B5E730B48478BDF80850012C10D161F01E
:103AC0007F04047402F47F44B4F5407F42824FF0D7
:103AD00006010CBF40F20942002241748282C58275
:103AE0002A46194630BCFFF723BF37B500F58E7361
:103AF0000D4600914FF4807200210446FFF7D9FF74
:103B0000C8BB94F81C3184F8223394F81D3184F832
:103B10002333B4F81E31A4F8243394F8203184F808
:103B2000263394F8213184F8273394F8223184F82D
:103B30002833082D94F8233184F829331BD9B4F89D
:103B40002431A4F82A33B4F82631A4F82C33B4F87D
:103B50002831A4F82E3394F82A3184F8303394F8BD
:103B60002B3184F8313394F82C3184F8323394F8C3
:103B70002D3184F8333303B030BD2DE9F74300F124
:103B80001C050E4600912B464FF40072002104469E
:103B9000FFF78FFF48BB237F84F83433637F84F8BB
:103BA000353394F8203084F8383394F8213084F891
:103BB000393394F8223084F83A3394F82330B4F847
:103BC0001EE084F83B33092E94F82430A4F836E341
:103BD00084F83C3309D927462B46064609224FF084
:103BE0001A0C022E01D0964502D803B0BDE8F0832E
:103BF00019780B440A445978042992B2F1D1197802
:103C000087F83E13597887F83F13997887F840135F
:103C1000D97887F84113197987F84213597987F8C9
:103C20004313997987F84413D97987F84513197A9A
:103C300087F846130CFB06F8002197F842538D4293
:103C400002D801361A37CCE79645FAD91D782B44AD
:103C50002A445D78052D92B2EFD14D1C08EBC501C9
:103C6000214493F8009081F8409393F8019081F8F3
:103C7000419393F8029081F8429393F8039081F86E
:103C80004393B3F80490A1F8449393F8069081F815
:103C90004693E9B2D1E7F7B500F58E7514461F4695
:103CA000009341F440722B4600210646FFF701FFC6
:103CB00078B996F81D31032B0BD196F81C31023BD5
:103CC000BB4228BF3B469BB20246934203D8002327
:103CD000237003B0F0BDA9180232897804F8011BE3
:103CE00092B2F2E78378012B06D1002305220374F8
:103CF000427441828382C38200221146FFF718BEBC
:103D00008378012B06D10023092203744274418277
:103D10008382C38200221146FFF70ABE8378012BFB
:103D200006D1002303220374427441828382C3823A
:103D300000221146FFF7FCBD8378012B06D1022239
:103D400043740023027443828182C382002211469D
:103D5000FFF7EEBD30B585B0002415460823029369
:103D600001910394009423462246294601F066FF00
:103D7000204605B030BD30B590F81D5385B0002DFC
:103D80001C469DF82030029218BF002303930123A4
:103D90000093002301911A46214601F04FFF0020B5
:103DA00005B030BD30B585B000241D460292012219
:103DB0000191039400922346294601F03FFF2046DB
:103DC00005B030BD30B590F81D5385B0002D1C46B0
:103DD0009DF82030029218BF002303930123019124
:103DE000009300220223214601F028FF002005B0A5
:103DF00030BD30B585B01D460024029201220191EC
:103E0000039400920223294601F018FF204605B0D2
:103E100030BD1FB5BDF8204002949DF81C400194B0
:103E20009DF81840009401F0E3FE002004B010BD9E
:103E300008B501F0F5FE002008BD30B5002300F5FF
:103E4000607454F8045B2D04DAB207D4E03341F413
:103E5000004140F8231092B2D0B230BD01330B2B99
:103E6000EFD14FF6FF72F7E70A299FBF00EB810001
:103E7000D0F88033C3F30E03C0F8803300207047BE
:103E800000224FF480710148FCF7FCBF000C024097
:103E900013B502AC002204F8010D4FF4006105488F
:103EA000FCF7F0FF0A23012221460348FEF7E9FA56
:103EB00002B010BD000C0240C80100202DE9F843FB
:103EC000012205460C461148114FDFF84880DFF803
:103ED00048904FF40061FCF7D5FF0CB9BDE8F883BA
:103EE000B4F5004F264628BF4FF400460023B2B277
:103EF000294640463B70FEF76DFB89F8000001F053
:103F000037FD0028FBD03544A41BE6E7000C024037
:103F1000DA000020C801002010010020F7B5074694
:103F20002A2016460D461C46FFF7B2FF04213B0A25
:103F30000DEB01008DF80430330A8DF806308DF852
:103F400005708DF80760FFF7B9FF2B20FFF7A0FF82
:103F500004212B0A0DEB01008DF80430230A8DF8A3
:103F600006308DF805508DF80740FFF7A7FF2C208D
:103F7000FFF78EFF03B0F0BD01224FF480710148BE
:103F8000FCF780BF000C024030B585B0FFF778FF2A
:103F900000224FF400718848884CFCF773FF05201D
:103FA000FCF746FB01224FF400718348FCF76AFFDF
:103FB0000120FFF76DFF4FF47A70FCF739FBCB203F
:103FC000FFF766FF206823790090052168468DF889
:103FD0000430FFF773FFCF20FFF75AFF234603217A
:103FE00033F8052FADF800209B788DF80230684635
:103FF000FFF764FFE820FFF74BFF2346032133F868
:10400000082FADF800209B788DF802306846FFF746
:1040100055FFEA20FFF73CFF0025022168468DF896
:1040200000508DF80150FFF749FFED20FFF730FFFA
:10403000D4F80B00009004216846FFF73FFFF720FB
:10404000FFF726FF2023012168468DF80030FFF797
:1040500035FFC020FFF71CFF2323012168468DF8A0
:104060000030FFF72BFFC120FFF712FF10230121C3
:1040700068468DF80030FFF721FFC520FFF708FFE5
:10408000B4F80F30ADF8003002216846FFF716FF94
:10409000C720FFF7FDFE8623012168468DF800301A
:1040A000FFF70CFF3620FFF7F3FE48230121684697
:1040B0008DF80030FFF702FF3A20FFF7E9FE5523A5
:1040C000012168468DF80030FFF7F8FEB120FFF7B8
:1040D000DFFE1823022168468DF801308DF800506C
:1040E000FFF7ECFEB620FFF7D3FE2346032133F89B
:1040F000112FADF800209B788DF802306846FFF74D
:10410000DDFEF220FFF7C4FE012168468DF8005065
:10411000FFF7D4FE2620FFF7BBFE012168468DF88D
:104120000010FFF7CBFEE020FFF7B2FE04F114030E
:104130006A461C3418685968154603C50833A342FB
:104140002A46F7D1186899889B79AB712860A980B5
:1041500068460F21FFF7B2FEE120FFF799FE184BEA
:104160006A4603F1080518685968144603C4083301
:10417000AB422246F7D1186899889B79A3712060D9
:10418000A18068460F21FFF799FE1120FFF780FEFE
:104190007820FCF74DFA2920FFF77AFE3620FFF74A
:1041A00077FEE823012168468DF80030FFF786FE90
:1041B000FFF7E2FE05B030BD000C024010660008BB
:1041C00033660008B0F5A07F73B504460D46164669
:1041D00016D2EF2914D8FFF753FE6B1C621C9BB25A
:1041E00092B229462046FFF799FE330A022101A820
:1041F0008DF804308DF80560FFF760FEFFF7BCFE18
:1042000002B070BD2DE9F843171ABDF8209005469D
:104210001646A3EB010807FB01F4B54201D3BDE844
:10422000F883B4FBF7F1A8B24A4689B2FFF7CAFF98
:1042300001354444F1E782B02DE9F04F8BB000AF77
:104240001446B7F85C20FA615FFA83F8B7F860208B
:104250007B65C3F3072683460D46BA61FFF710FE60
:1042600018FB06F35B007B62BB693C621B0AFB60C8
:10427000FB691B0A3B617B6A073323F007037B6002
:104280003B6A13F8014B3B623CB9FFF775FE2C37D4
:10429000BD46BDE8F04F02B070470BEB0803B3F525
:1042A000A07F08DB3544ADB2AB19EF2BEDDC202C41
:1042B0004CD04FF0000B0BEB08091FFA89F9731E65
:1042C0002B4409F1FF329BB292B229465846D7F8E7
:1042D00058A0C7F814D0FFF721FE7B68203CADEB57
:1042E000030D74430AEB44036846BB606A46002131
:1042F000C0F1020AB14206D3796AFFF7DFFDD7F8B1
:1043000014D0CB46BCE7BB680AEB020E33F811B001
:104310000023434504D30223013113FB0822E9E7BC
:104320000BFA03FC1CF4004F16BF3C7C3C7B02F8EC
:10433000134000EB0E0C0ABF02F813403C7F3C7E9A
:104340000CF8014C01330EF1020EE2E74FF00009C8
:10435000D7E700002DE9F04F83B000AFB0F5A07FA4
:104360000446884616461D46B7F830B0EA465CD289
:10437000EF295AD88318B3F5A07FC8BFC0F5A0763F
:1043800001EB0503C8BFB6B2F02BC4BFC1F1F00505
:10439000ADB2FFF775FD2046621E08F1FF337400D1
:1043A0002B44324414FB05F4A4B29BB292B24146B2
:1043B000FFF7B4FDB4F5964F28BF4FF49644E31DC4
:1043C00023F00703ADEB030D01224FF40061194800
:1043D000FCF758FDE9464FEA1B220021FDB1B0462B
:1043E00017E04B1C09F80120023109F803B0B1FBBA
:1043F000F4F304FB131343B9214648463B607A604B
:10440000FFF75CFD3B687A68194608F1FF381FFA30
:1044100088F8B8F1000FE4D1013DADB2DEE72146E6
:104420004846FFF74BFDFFF7A7FD0C37D546BD46C5
:10443000BDE8F08F000C024007B500210090F0238A
:104440004FF4A0720846FFF785FF03B05DF804FB48
:1044500082B02DE9F04F5FFA83FB85B0C3F30724E8
:104460004FEADB0616FB04F600AF72437860B960D2
:10447000FB63B7F84480B7F84890C7F80CD0D7F87A
:1044800040A05500FFF7FCFC7868B96800EB0B030F
:10449000B3F5A07F05DB214489B20B19EF2B23DC98
:1044A0000020631E0BF1FF320B4402449BB292B218
:1044B000FFF734FD14FB0BF14900CB1D23F007037C
:1044C000ADEB030D4FEA19237B604FEA18236846D2
:1044D000BB60EC4600245544B4420BD1FFF7EEFC20
:1044E000FFF74AFDD7F80CD01437BD46BDE8F04FB2
:1044F00002B070474FEA041E35F814A00EF1020E08
:1045000000230AFA03FB1BF0800F16BF3A7A3A79B0
:104510000CF8132000EB0E0B08BF0CF8132003F16E
:10452000010314BF0BF8018C0BF8019C082B0EF152
:10453000020EE6D101340CF1100CCDE782B02DE96A
:10454000F04788B00E4611935FFA83F8C3F307294A
:1045500005461746FFF794FC00230A21DCB24FB949
:1045600000274FF4FC6AECB908B0BDE8F04702B090
:10457000FFF702BD05EB0802B2F5A07F07DB4E4452
:10458000B6B206EB0902EF2A4FF00005E8DCB7FBF4
:10459000F1F008AA144401FB107704F80C7C0133F5
:1045A0000746DBE7013CE4B208AB23448DF84480C6
:1045B00013F80C2C8DF84590129B00932846029717
:1045C000CDF804A0119B31464544FFF741FFADB241
:1045D000C9E7000070B59AB0302200210EA801F0A2
:1045E000D7FB1422002103A801F0D2FB00211822DE
:1045F00008A801F0CDFB0024204B01941A6C42F076
:1046000080521A641B6C03F080530193019B1C4B76
:1046100002941A6842F440421A601B6803F4404353
:104620000293029B4FF480330F934FF48003159352
:104630000423C02202250126169318930EA80823EE
:10464000179219930E961495FDF74CFB0F230393C5
:1046500003214FF4A05303A80693049505940794EF
:10466000FDF7F0FCC8230A9308A8052308960993D0
:104670000B95FDF791FD1AB070BD00BF00380240E8
:104680000070004080B592B00024A14DDFF8C482D4
:10469000FBF7A2FFFFF79EFF1422002109A801F0FB
:1046A00077FB01942B6B9B4843F010032B632B6B20
:1046B00003F010030193019B02942B6B43F004035E
:1046C0002B632B6B03F004030293029B03942B6B6D
:1046D00043F080032B632B6B03F080030393039B56
:1046E00004942B6B43F001032B632B6B03F001034A
:1046F0000493049B05942B6B43F002032B632B6BF9
:1047000003F002030593059B06942B6B43F008030B
:104710002B632B6B03F00803224606930821069BAC
:10472000FCF7B0FB012211467B48FCF7ABFB2246AD
:104730004FF610717948FCF7A5FB042309A97548C9
:104740000993012603270A940B94FCF7BFFA082368
:1047500009A9704809930B940A960C97FCF7B6FACE
:10476000322309A96B480993CDF828800B94FCF7F4
:10477000ADFA09A968480B940C9409960A96FCF7BF
:10478000A5FA09A96648CDF828800B940996FCF78C
:104790009DFA4FF6107309A9604809930B940A9685
:1047A0000C97FCF793FA09A95C480A940B940996B4
:1047B000FCF78CFA202309A9584809930A940B9412
:1047C000FCF784FA00942B6BDFF88C8143F48003B0
:1047D0002B632B6B03F48003214622460093392080
:1047E000009BFBF74BFF3920FBF77CFF4D484E4AFF
:1047F0004E4B846080E80C004FF48043C46003613A
:1048000044618461C4610462FCF790FF4848494BED
:1048100084604FF4007580E82800C4600461C0F82B
:1048200014808461C4610662FDF724F84248434B5A
:10483000846080E82800C4600561C0F81480846149
:10484000C4610462FDF716F83D483E4B84604FF0AA
:104850000A084FF4827980E80802C4600461446168
:104860008561C461046244628462C0F82C80FDF7F3
:10487000CBFD01F0D5F83448344B846080E8080261
:10488000C460046144618561C461314D0462446265
:104890008462C0F82C80FDF7B7FD00F0E5F8242213
:1048A0000DEB0200214601F073FA4FF080494FF002
:1048B000FF3309A92846EB60079408946C60AC604C
:1048C0002C61AC61C5F8009009970B96CDF8348047
:1048D0000F96CDF84480FEF7A5F807A9284607945F
:1048E0000894FEF7EAF8C9F8006000F0D9F80B4C1C
:1048F00001F0B6F801212046FCF7BEFAB0FA80F0CC
:10490000400900F059FE2820FBF792FEF0E700BFB7
:10491000003802400010024000080240000C024033
:10492000000002401401002000540040A086010055
:10493000BC0200200038004004030020003C00407E
:104940002002002000300140C80100200034014056
:10495000780200200000121000770100704700006C
:10496000014B13221A7070473C000020014B0322B8
:104970001A7070473C000020014B04221A707047E7
:104980003C000020014B05221A7070473C000020BB
:10499000014B06221A7070473C000020014B072291
:1049A0001A7070473C000020014B08221A707047B3
:1049B0003C000020014B09221A7070473C00002087
:1049C000014B0A221A7070473C000020014B0B2259
:1049D0001A7070473C000020014B0C221A7070477F
:1049E0003C000020014B0D221A7070473C00002053
:1049F000014B0E221A7070473C000020014B0F2221
:104A00001A7070473C000020014B10221A7070474A
:104A10003C000020014B11221A7070473C0000201E
:104A2000014B12221A7070473C00002038B5044632
:104A3000FCF798F802210420FCF722F904F108059C
:104A400021680B6933B90434A542F9D1BDE8384077
:104A5000FCF79AB8CA69896900230220FCF7C8F8F4
:104A600023681B692360EBE7FFF78EBA0A4A00232D
:104A700010B51946136000695C1C48B901B1136098
:104A8000136801331360054B1B6800225A6210BD86
:104A900023460121EFE700BFA40300207802002095
:104AA0002DE9F04F00208FB0FFF7C6FC242001F065
:104AB0005FF9AE4BAE4C18600646242001F058F961
:104AC000AC4B05461860242001F052F9AA4B0D901A
:104AD0001860242001F04CF9A8490C9008602420AB
:104AE00001F046F9A64983460860242001F040F908
:104AF000A44982460860242001F03AF9A24981467F
:104B00000860242001F034F9A04980460860242080
:104B100001F02EF99E4907460860242001F028F98B
:104B20009C4901900860242001F022F99A490290E2
:104B30000860242001F01CF99849039008602420A3
:104B400001F016F9964904900860242001F010F94C
:104B5000944905900860242001F00AF992490690D2
:104B60000860242001F004F990490790086024208F
:104B700001F0FEF88E4908900860242001F0F8F852
:104B80008C4909900860242001F0F2F801468A4817
:104B90000B910160242001F0EBF80A9087480A9BF2
:104BA0000360242001F0E4F8DFF87CE22060C5F81F
:104BB00000E0834CDFF874E23460C0F800E00024C9
:104BC000DFF86CE20D9A286144608460C56004617E
:104BD0008461C0F814E080F820407A480C9BB260F1
:104BE00082E8410078489460D46013617460F46096
:104BF0003561B461746186F820406C60AF60EE602E
:104C0000AC616C6185F8204090610068D061DFF88C
:104C100024E2C2F814E0012082F82000DA606B4A36
:104C20009A61DFF814E21268C3F800E0DFF80CE2E2
:104C30005E609C60C3F810B0C3F814E0DA6183F8DA
:104C40002000CBF80C30624BCBF818301B68CBF847
:104C50001C30604B604A8BF820008AE848005F4BAC
:104C6000CAF818308BE844005D4ACBF814201B6862
:104C70005C4ACAF81420CBF80840CBF810A0CAF858
:104C80000840CAF80CB0CAF81090CAF81C30564B4D
:104C90000B99564ADFF8A8C1C9F8142089E84800E2
:104CA000534BC9F818301B68C9F81C30514B524A95
:104CB0008AF8200088E84800504BC8F818301B6874
:104CC000C8F81C304E4BC1F800C04FF0030E81F8FD
:104CD00020E089F82000C8F81010C8F8142088F8DF
:104CE00020004E608C60C1F80C800C618C614C61BE
:104CF00087E82800C9F80840C9F80CA0C9F8108056
:104D0000C8F80840C8F80C90BC60019B3B613D4B63
:104D1000BB613D4A1B687A61019AFB613B4B1360A2
:104D2000029B136101993A4B936155609460D7607F
:104D3000384A1B684A61029ACB61374B1360039B68
:104D40001361364BD160936181F820000299556060
:104D500094601B68324A87F820004A61FC60CB618E
:104D6000039A304B1360049BD1606BE0C8030020B2
:104D700058030020900300209C030020D80300204B
:104D80008C030020B803002060030020980300205B
:104D9000C403002064030020B0030020540300205B
:104DA00050030020D00300205C030020AC0300204F
:104DB000D4030020C003002068030020CC0300209F
:104DC000508800086B8800080000010804000108F2
:104DD00008000108838800087B8800080C0001088F
:104DE00085490008914900088B8800089D49000802
:104DF0001000010893880008A94900081400010860
:104E0000A388000818000108B5490008AB8800080D
:104E10001C000108C1490008B388000820000108EF
:104E2000CD490008BB88000859880008628800083E
:104E3000614900086D490008738800087949000835
:104E40009B880008136181F82000434B039955604B
:104E500094609361414A1B684A61049ACB61404B5C
:104E60001360059BD160136181F820003D4B0499CC
:104E70005560946093613C4A1B684A61059ACB6116
:104E80003A4B81F8200055609460D1601360069B16
:104E900013610599364B9361364A1B684A61069A3D
:104EA000CB61354B1360079BD160136181F8200003
:104EB000324B0699936155609460314A1B684A6190
:104EC000079ACB612F4B1360089B13612E4BD16067
:104ED000936181F820000799556094601B682B4A04
:104EE0004A61CB61089A2A4B1360099BD160136118
:104EF00081F82000274B0899936155609460264AF9
:104F00001B684A61099ACB61244B13600A9B1361A9
:104F1000234BD160936181F8200009991B6855608B
:104F20009460CB610A9B1F4A4A611A46C3F800C0CD
:104F30005D609C601C4B81F82000D160304614619C
:104F40009461546182F820E01E60FFF78FFD174BDB
:104F50001C600FB0BDE8F08F24000108D94900089B
:104F6000C388000828000108E5490008CB8800082C
:104F70002C000108F1490008D3880008300001081E
:104F8000FD490008DB88000834000108094A0008D0
:104F9000E388000838000108154A0008EB8800087B
:104FA0003C000108214A0008A0030020BC030020A7
:104FB000F0B5294C294E227833789A4285B00546BF
:104FC0000BD0274A274B12681B68926912685A62F5
:104FD0000020FFF731FA23783370234F234E3A78BD
:104FE0006B1E5D425D4122B91DB1337883F0010330
:104FF00033703378012B09D14FF478431C48009368
:10500000A022DC2314210068FFF7FCF83A783378FB
:10501000002A08BF002B1CD1DDB1164B1A68B2F56F
:10502000C87F84BF4FF4C8721A600D4A1B681268AB
:10503000D361114B1B680293104B02A81B680393AA
:10504000FFF7F4FC074BBDF828201B685A620123C8
:10505000237005B0F0BD00BF3C000020D900002047
:10506000A8030020780200204C030020CC00002080
:10507000D0000020D40000209C030020C4030020A6
:105080002DE9F04399462E4C2E4B90461978227804
:1050900091428BB007D02C4D2C492D680968AD6921
:1050A0002D684D621A70431E294F2A4E5D425D41A4
:1050B0003B7823B91DB1337883F001033370337823
:1050C000012B16D1244B254A1B6814210DEB01003E
:1050D00000F022FF4FF6FF720292214B4FF478420C
:1050E00001925A6800921B6805AA49464046FFF79C
:1050F000A2F83A783378002A08BF002B1CD1DDB122
:10510000184B1A68B2F5C87F84BF4FF4C8721A6092
:105110000D4A1B681268D361134B1B680593134B30
:1051200005A81B680693FFF781FC084BBDF84820D3
:105130001B685A62012323700BB0BDE8F08300BFE7
:105140003C000020D9000020A803002078020020A5
:105150004C030020CC000020D00000204A8800082A
:1051600028000020D40000209C030020C40300205D
:105170002DE9F04F0D46BA49BA4A0B68BA4F5B6A3F
:10518000DFF8108313609B083B6098F800308DB007
:10519000012B04468946059240F08180B34E337856
:1051A000012B05D00020FFF747F998F80030337045
:1051B000059B1A68AE4B9A4281BFD9F800100023B4
:1051C0004B623B60AB4B38681B68591E81420AD268
:1051D000A748824207D803F18043D9F800203960FC
:1051E000013B9B005362A44A3B681268DB0813FB37
:1051F00002F3A24ADBB213700022D1B28B4200F25A
:105200006981DFF89C82002623689D4A142107A843
:1052100000F082FE994B1A783B689A1A1E23B6FB5F
:10522000F3F39A421FFA86FA40F094814FF0000B94
:105230004FF6FF730293CDF804B0D8F80430009312
:10524000D8F8003007AA51465846FEF7F4FF8D4BB8
:105250001B785B4508BF012D0CBF4FF0010E4FF0CE
:10526000000E40F04A81884B1C6094F82030032BDC
:1052700040F03681854A606810605B46C16800294D
:1052800040F02B8103B11060FFF7F0FB804AD9F8A2
:10529000003012685A620027EF2E40F27D817D4E69
:1052A0003378032B06D1002300939622214628460B
:1052B000FFF77EFE3378042B06D1009396221E233F
:1052C00021462846FFF7DCFE3378052B07D108235B
:1052D000009396223C2321462846FFF7D1FE3378DF
:1052E000062B07D10C23009396225A2321462846E9
:1052F000FFF7C6FE3378072B07D1102300939622C1
:10530000782321462846FFF7BBFE3378082B07D1C8
:105310001423009396231A4621462846FFF7B0FE31
:105320003378092B06D10023009396222146284684
:10533000FFF7A6FE33780A2B07D1042300939622A9
:105340001E2321462846FFF79BFE33780B2B07D1FF
:105350000823009396223C2321462846FFF790FE1F
:1053600033780C2B06D1009396225A2321462846E7
:10537000FFF786FE33780D2B07D11023009396227A
:10538000782321462846FFF77BFE33780E2B07D182
:105390001423009396231A4621462846FFF770FEF1
:1053A00033780F2B07D1182300939622B42321467C
:1053B0002846FFF765FE3378102B07D11C23009396
:1053C0009622D22321462846FFF75AFE3378112B26
:1053D00007D1202300939622002321462846FFF779
:1053E0004FFE3378122B07D12423009396221E23DD
:1053F00021462846FFF744FE3378224F132B62D113
:105400001A4C2378132B04D00020FFF715F83378BB
:1054100023706A1E3B78204CD2F1000A4AEB020A44
:1054200033B9BAF1000F03D0237883F0010323705E
:105430002078002838D1194B02904FF4FC62019279
:105440005A68DFF8608000921B68D8F8002032218B
:10545000FFF774F8D8F800300133C8F8003023E0C3
:1054600078020020D4000020D0000020D9000020C5
:10547000FEFFFF7FA403002038000020D80000209A
:10548000F38800084C030020A8030020A00300209C
:10549000BC0300203C000020CD0000203000002094
:1054A00028000020C80000203A782378002A08BF8E
:1054B000012B08D1BAF1000F05D0D9F80030002235
:1054C0005A62012333706B1E5D425D413D700DB029
:1054D000BDE8F08F246901328FE673460846CDE6B9
:1054E000A06840B1314B1860FFF7C0FA059B1A68FD
:1054F0002F4B1A60CFE66369984794F82030012B50
:1055000015D1E3692B4A9B08142107A800F004FD7C
:105510004FF6FF73029300230193D8F804300093F1
:10552000D8F8003007AA51469620FEF784FE94F87A
:105530002030032B00D03BB900230093AA221E2366
:1055400051469620FEF706FF24691E36002C7FF494
:105550005BAEA0E64FF0000B4FF4FC63CDF808B053
:105560000193D8F804300093D8F8003007AA5146C8
:105570005846FEF760FE94F82030012BD7D1E3693E
:105580000C4A9B08142107A800F0C6FC4FF6FF73D5
:105590000293CDF804B0C0E7B1B200971E234FF4D8
:1055A000A0720020FEF7D6FE1E3675E6A00300208E
:1055B000BC0300204A88000808B5034B0146186860
:1055C000FFF7D6FD08BD00BFA003002007B50E4BB6
:1055D000002100915A6C42F480425A645A6C02F4E1
:1055E00080420092009A01911A6C42F080521A6433
:1055F0001B6C03F0805301930720019BFBF72CF8F1
:1056000003B05DF804FB00BF0038024030B504462B
:1056100089B01422002103A800F0BAFB2268144BC1
:105620009A4222D1134C144800250195236B43F074
:1056300002032363236B03F002030193019B4FF4E6
:1056400010730393122304930123059303A90423E6
:105650000793FBF73BFB0295236C43F40013236491
:10566000236C03F400130293029B09B030BD00BF0A
:1056700000540040003802400004024070B5044667
:105680008CB01422002107A800F082FB23683E4A58
:10569000934241D13D4B3E48002401941A6C42F4A0
:1056A00080421A641A6C02F480420192019A0294B8
:1056B0001A6B42F004021A631A6B02F0040202929F
:1056C000029A03941A6B42F002021A631B6B03F0F6
:1056D00002030393039B04230225079307A90623D0
:1056E0000B9305260895FBF7F1FA082307A928482C
:1056F0000793089509940A940B96FBF7E7FA4FF481
:10570000A05324480793089509940A940B9607A977
:10571000FBF7DCFA0CB070BD1F4A9342FAD11B4B69
:105720001E48002404941A6C42F400421A641A6C55
:1057300002F400420492049A05941A6B42F00102AA
:105740001A631A6B02F001020592059A06941A6B0D
:1057500042F004021A631B6B03F004030693069BDA
:1057600002261023062507A9079308960B95FBF739
:10577000ADFA4FF4A4530793089609940A940B9535
:1057800007A90348C4E700BF0038004000380240C2
:105790000008024000040240003C004000000240BB
:1057A00070B514228AB0064600210DEB020000F00D
:1057B000EFFA3368364A934223D1364B36480021FC
:1057C00001915A6C42F480525A645A6C02F480522D
:1057D0000192019A02911A6B42F001021A631B6B4B
:1057E00003F001030293029BE02305930223069337
:1057F0000323089305A905230993FBF767FA0AB069
:1058000070BD264A9342FAD10025224B03955A6C6B
:105810002348244C42F400525A645A6C02F4005259
:105820000392039A04951A6B42F010021A631B6BE1
:1058300003F010030493049B4FF441530593022398
:1058400006930323089305A905230993FBF73EFA62
:105850001549E56040234FF0006284E80E002046C1
:105860004FF4806323616561A561E561256265622E
:10587000FAF772FF08B1FFF771F80022B46411461D
:105880005420A663FAF7FAFE5420FAF72BFFB6E786
:105890000030014000380240000002400034014066
:1058A00000100240680100202864024010B5044640
:1058B00088B01422002103A800F06AFA2368B3F12B
:1058C000804F2AD103F50E33002401941A6C14483A
:1058D00042F001021A641A6C02F001020192019A6C
:1058E00002941A6B42F001021A631B6B03F001036E
:1058F0000293029B48F2020303930223049303A939
:10590000012305930793FBF7E1F91C20224621466A
:10591000FAF7B4FE1C20FAF7E5FE08B010BD00BF90
:10592000000002407047FEE7FEE7FEE7FEE7704733
:1059300070477047FAF76ABE0148FCF782BF00BFA4
:1059400078020020024B034801221A70FAF7D2BFF6
:10595000DA000020680100200148FBF78FBB00BF80
:10596000AC0700200148FCF7E1BE00BFC8010020E1
:10597000014B1878704700BFDA00002008B50A4BC9
:105980001968024609B9094919601868694602444C
:105990008A4206D900F0C2F90C2303604FF0FF30B1
:1059A00008BD1A6008BD00BFDC000020740A00209A
:1059B0000F49D1F8883043F47003C1F888300D4B9B
:1059C0001A68002042F001021A6098601A6822F0FA
:1059D000847222F480321A60074A5A601A6822F4EC
:1059E00080221A60D8604FF000638B60704700BF60
:1059F00000ED00E0003802401030002404290AD0F5
:105A0000052904D0022905D1044B197070470322DF
:105A1000024B1A7070470122FAE700BFE000002035
:105A200008B501220B490C48FDF7A0FD08B1FEF7AF
:105A300095FF0A490848FDF7B0FD08B1FEF78EFF53
:105A40000548FDF7DDFD18B1BDE80840FEF786BF4B
:105A500008BD00BFFD590008E00300200800002039
:105A60000148FDF7D7BD00BFE003002030B5044674
:105A700089B01422002103A800F08AF92368B3F149
:105A8000A04F36D11C4C1D4800250195236B43F0D7
:105A900001032363236B03F001030193019B03A91B
:105AA0004FF400730393FBF711F94FF4E0530393A2
:105AB000022304930323069303A90A230F480793A1
:105AC0000595FBF703F9636B43F08003636302956D
:105AD000636C43F480436364636C03F48043029318
